{
	"contracts/TokenFarm.sol": {
		"TokenFarm": {
			"abi": [
				{
					"inputs": [
						{
							"internalType": "contract DAppToken",
							"name": "_dappToken",
							"type": "address"
						},
						{
							"internalType": "contract LPToken",
							"name": "_lpToken",
							"type": "address"
						}
					],
					"stateMutability": "nonpayable",
					"type": "constructor"
				},
				{
					"anonymous": false,
					"inputs": [
						{
							"indexed": true,
							"internalType": "address",
							"name": "user",
							"type": "address"
						},
						{
							"indexed": false,
							"internalType": "uint256",
							"name": "amount",
							"type": "uint256"
						}
					],
					"name": "Deposit",
					"type": "event"
				},
				{
					"anonymous": false,
					"inputs": [
						{
							"indexed": true,
							"internalType": "address",
							"name": "user",
							"type": "address"
						},
						{
							"indexed": false,
							"internalType": "uint256",
							"name": "amount",
							"type": "uint256"
						}
					],
					"name": "RewardsClaimed",
					"type": "event"
				},
				{
					"anonymous": false,
					"inputs": [],
					"name": "RewardsDistributed",
					"type": "event"
				},
				{
					"anonymous": false,
					"inputs": [
						{
							"indexed": true,
							"internalType": "address",
							"name": "user",
							"type": "address"
						},
						{
							"indexed": false,
							"internalType": "uint256",
							"name": "amount",
							"type": "uint256"
						}
					],
					"name": "Withdraw",
					"type": "event"
				},
				{
					"inputs": [],
					"name": "REWARD_PER_BLOCK",
					"outputs": [
						{
							"internalType": "uint256",
							"name": "",
							"type": "uint256"
						}
					],
					"stateMutability": "view",
					"type": "function"
				},
				{
					"inputs": [
						{
							"internalType": "address",
							"name": "",
							"type": "address"
						}
					],
					"name": "checkpoints",
					"outputs": [
						{
							"internalType": "uint256",
							"name": "",
							"type": "uint256"
						}
					],
					"stateMutability": "view",
					"type": "function"
				},
				{
					"inputs": [],
					"name": "claimRewards",
					"outputs": [],
					"stateMutability": "nonpayable",
					"type": "function"
				},
				{
					"inputs": [],
					"name": "dappToken",
					"outputs": [
						{
							"internalType": "contract DAppToken",
							"name": "",
							"type": "address"
						}
					],
					"stateMutability": "view",
					"type": "function"
				},
				{
					"inputs": [
						{
							"internalType": "uint256",
							"name": "_amount",
							"type": "uint256"
						}
					],
					"name": "deposit",
					"outputs": [],
					"stateMutability": "nonpayable",
					"type": "function"
				},
				{
					"inputs": [],
					"name": "distributeRewardsAll",
					"outputs": [],
					"stateMutability": "nonpayable",
					"type": "function"
				},
				{
					"inputs": [],
					"name": "getStakersCount",
					"outputs": [
						{
							"internalType": "uint256",
							"name": "",
							"type": "uint256"
						}
					],
					"stateMutability": "view",
					"type": "function"
				},
				{
					"inputs": [
						{
							"internalType": "address",
							"name": "user",
							"type": "address"
						}
					],
					"name": "getUserInfo",
					"outputs": [
						{
							"internalType": "uint256",
							"name": "_stakingBalance",
							"type": "uint256"
						},
						{
							"internalType": "uint256",
							"name": "_pendingRewards",
							"type": "uint256"
						},
						{
							"internalType": "bool",
							"name": "_hasStaked",
							"type": "bool"
						},
						{
							"internalType": "bool",
							"name": "_isStaking",
							"type": "bool"
						},
						{
							"internalType": "uint256",
							"name": "_checkpoint",
							"type": "uint256"
						}
					],
					"stateMutability": "view",
					"type": "function"
				},
				{
					"inputs": [
						{
							"internalType": "address",
							"name": "",
							"type": "address"
						}
					],
					"name": "hasStaked",
					"outputs": [
						{
							"internalType": "bool",
							"name": "",
							"type": "bool"
						}
					],
					"stateMutability": "view",
					"type": "function"
				},
				{
					"inputs": [
						{
							"internalType": "address",
							"name": "",
							"type": "address"
						}
					],
					"name": "isStaking",
					"outputs": [
						{
							"internalType": "bool",
							"name": "",
							"type": "bool"
						}
					],
					"stateMutability": "view",
					"type": "function"
				},
				{
					"inputs": [],
					"name": "lpToken",
					"outputs": [
						{
							"internalType": "contract LPToken",
							"name": "",
							"type": "address"
						}
					],
					"stateMutability": "view",
					"type": "function"
				},
				{
					"inputs": [],
					"name": "name",
					"outputs": [
						{
							"internalType": "string",
							"name": "",
							"type": "string"
						}
					],
					"stateMutability": "view",
					"type": "function"
				},
				{
					"inputs": [],
					"name": "owner",
					"outputs": [
						{
							"internalType": "address",
							"name": "",
							"type": "address"
						}
					],
					"stateMutability": "view",
					"type": "function"
				},
				{
					"inputs": [
						{
							"internalType": "address",
							"name": "",
							"type": "address"
						}
					],
					"name": "pendingRewards",
					"outputs": [
						{
							"internalType": "uint256",
							"name": "",
							"type": "uint256"
						}
					],
					"stateMutability": "view",
					"type": "function"
				},
				{
					"inputs": [
						{
							"internalType": "uint256",
							"name": "",
							"type": "uint256"
						}
					],
					"name": "stakers",
					"outputs": [
						{
							"internalType": "address",
							"name": "",
							"type": "address"
						}
					],
					"stateMutability": "view",
					"type": "function"
				},
				{
					"inputs": [
						{
							"internalType": "address",
							"name": "",
							"type": "address"
						}
					],
					"name": "stakingBalance",
					"outputs": [
						{
							"internalType": "uint256",
							"name": "",
							"type": "uint256"
						}
					],
					"stateMutability": "view",
					"type": "function"
				},
				{
					"inputs": [],
					"name": "totalStakingBalance",
					"outputs": [
						{
							"internalType": "uint256",
							"name": "",
							"type": "uint256"
						}
					],
					"stateMutability": "view",
					"type": "function"
				},
				{
					"inputs": [],
					"name": "withdraw",
					"outputs": [],
					"stateMutability": "nonpayable",
					"type": "function"
				}
			],
			"devdoc": {
				"kind": "dev",
				"methods": {
					"deposit(uint256)": {
						"params": {
							"_amount": "Cantidad de tokens LP a depositar."
						}
					}
				},
				"title": "Proportional Token Farm",
				"version": 1
			},
			"evm": {
				"assembly": "    /* \"contracts/TokenFarm.sol\":265:8083  contract TokenFarm {... */\n  mstore(0x40, 0x80)\n    /* \"contracts/TokenFarm.sol\":335:381  string public name = \"Proportional Token Farm\" */\n  mload(0x40)\n  dup1\n  0x40\n  add\n  0x40\n  mstore\n  dup1\n  0x17\n  dup2\n  mstore\n  0x20\n  add\n  0x50726f706f7274696f6e616c20546f6b656e204661726d000000000000000000\n  dup2\n  mstore\n  pop\n  0x00\n  swap1\n  dup2\n  tag_1\n  swap2\n  swap1\n  tag_2\n  jump\t// in\ntag_1:\n  pop\n    /* \"contracts/TokenFarm.sol\":1218:1527  constructor(DAppToken _dappToken, LPToken _lpToken) {... */\n  callvalue\n  dup1\n  iszero\n  tag_3\n  jumpi\n  revert(0x00, 0x00)\ntag_3:\n  pop\n  mload(0x40)\n  sub(codesize, bytecodeSize)\n  dup1\n  bytecodeSize\n  dup4\n  codecopy\n  dup2\n  dup2\n  add\n  0x40\n  mstore\n  dup2\n  add\n  swap1\n  tag_4\n  swap2\n  swap1\n  tag_5\n  jump\t// in\ntag_4:\n    /* \"contracts/TokenFarm.sol\":1372:1382  _dappToken */\n  dup2\n    /* \"contracts/TokenFarm.sol\":1360:1369  dappToken */\n  0x02\n  0x00\n    /* \"contracts/TokenFarm.sol\":1360:1382  dappToken = _dappToken */\n  0x0100\n  exp\n  dup2\n  sload\n  dup2\n  0xffffffffffffffffffffffffffffffffffffffff\n  mul\n  not\n  and\n  swap1\n  dup4\n  0xffffffffffffffffffffffffffffffffffffffff\n  and\n  mul\n  or\n  swap1\n  sstore\n  pop\n    /* \"contracts/TokenFarm.sol\":1403:1411  _lpToken */\n  dup1\n    /* \"contracts/TokenFarm.sol\":1393:1400  lpToken */\n  0x03\n  0x00\n    /* \"contracts/TokenFarm.sol\":1393:1411  lpToken = _lpToken */\n  0x0100\n  exp\n  dup2\n  sload\n  dup2\n  0xffffffffffffffffffffffffffffffffffffffff\n  mul\n  not\n  and\n  swap1\n  dup4\n  0xffffffffffffffffffffffffffffffffffffffff\n  and\n  mul\n  or\n  swap1\n  sstore\n  pop\n    /* \"contracts/TokenFarm.sol\":1509:1519  msg.sender */\n  caller\n    /* \"contracts/TokenFarm.sol\":1501:1506  owner */\n  0x01\n  0x00\n    /* \"contracts/TokenFarm.sol\":1501:1519  owner = msg.sender */\n  0x0100\n  exp\n  dup2\n  sload\n  dup2\n  0xffffffffffffffffffffffffffffffffffffffff\n  mul\n  not\n  and\n  swap1\n  dup4\n  0xffffffffffffffffffffffffffffffffffffffff\n  and\n  mul\n  or\n  swap1\n  sstore\n  pop\n    /* \"contracts/TokenFarm.sol\":1218:1527  constructor(DAppToken _dappToken, LPToken _lpToken) {... */\n  pop\n  pop\n    /* \"contracts/TokenFarm.sol\":265:8083  contract TokenFarm {... */\n  jump(tag_8)\n    /* \"#utility.yul\":7:106   */\ntag_9:\n    /* \"#utility.yul\":59:65   */\n  0x00\n    /* \"#utility.yul\":93:98   */\n  dup2\n    /* \"#utility.yul\":87:99   */\n  mload\n    /* \"#utility.yul\":77:99   */\n  swap1\n  pop\n    /* \"#utility.yul\":7:106   */\n  swap2\n  swap1\n  pop\n  jump\t// out\n    /* \"#utility.yul\":112:292   */\ntag_10:\n    /* \"#utility.yul\":160:237   */\n  0x4e487b7100000000000000000000000000000000000000000000000000000000\n    /* \"#utility.yul\":157:158   */\n  0x00\n    /* \"#utility.yul\":150:238   */\n  mstore\n    /* \"#utility.yul\":257:261   */\n  0x41\n    /* \"#utility.yul\":254:255   */\n  0x04\n    /* \"#utility.yul\":247:262   */\n  mstore\n    /* \"#utility.yul\":281:285   */\n  0x24\n    /* \"#utility.yul\":278:279   */\n  0x00\n    /* \"#utility.yul\":271:286   */\n  revert\n    /* \"#utility.yul\":298:478   */\ntag_11:\n    /* \"#utility.yul\":346:423   */\n  0x4e487b7100000000000000000000000000000000000000000000000000000000\n    /* \"#utility.yul\":343:344   */\n  0x00\n    /* \"#utility.yul\":336:424   */\n  mstore\n    /* \"#utility.yul\":443:447   */\n  0x22\n    /* \"#utility.yul\":440:441   */\n  0x04\n    /* \"#utility.yul\":433:448   */\n  mstore\n    /* \"#utility.yul\":467:471   */\n  0x24\n    /* \"#utility.yul\":464:465   */\n  0x00\n    /* \"#utility.yul\":457:472   */\n  revert\n    /* \"#utility.yul\":484:804   */\ntag_12:\n    /* \"#utility.yul\":528:534   */\n  0x00\n    /* \"#utility.yul\":565:566   */\n  0x02\n    /* \"#utility.yul\":559:563   */\n  dup3\n    /* \"#utility.yul\":555:567   */\n  div\n    /* \"#utility.yul\":545:567   */\n  swap1\n  pop\n    /* \"#utility.yul\":612:613   */\n  0x01\n    /* \"#utility.yul\":606:610   */\n  dup3\n    /* \"#utility.yul\":602:614   */\n  and\n    /* \"#utility.yul\":633:651   */\n  dup1\n    /* \"#utility.yul\":623:704   */\n  tag_45\n  jumpi\n    /* \"#utility.yul\":689:693   */\n  0x7f\n    /* \"#utility.yul\":681:687   */\n  dup3\n    /* \"#utility.yul\":677:694   */\n  and\n    /* \"#utility.yul\":667:694   */\n  swap2\n  pop\n    /* \"#utility.yul\":623:704   */\ntag_45:\n    /* \"#utility.yul\":751:753   */\n  0x20\n    /* \"#utility.yul\":743:749   */\n  dup3\n    /* \"#utility.yul\":740:754   */\n  lt\n    /* \"#utility.yul\":720:738   */\n  dup2\n    /* \"#utility.yul\":717:755   */\n  sub\n    /* \"#utility.yul\":714:798   */\n  tag_46\n  jumpi\n    /* \"#utility.yul\":770:788   */\n  tag_47\n  tag_11\n  jump\t// in\ntag_47:\n    /* \"#utility.yul\":714:798   */\ntag_46:\n    /* \"#utility.yul\":535:804   */\n  pop\n    /* \"#utility.yul\":484:804   */\n  swap2\n  swap1\n  pop\n  jump\t// out\n    /* \"#utility.yul\":810:951   */\ntag_13:\n    /* \"#utility.yul\":859:863   */\n  0x00\n    /* \"#utility.yul\":882:885   */\n  dup2\n    /* \"#utility.yul\":874:885   */\n  swap1\n  pop\n    /* \"#utility.yul\":905:908   */\n  dup2\n    /* \"#utility.yul\":902:903   */\n  0x00\n    /* \"#utility.yul\":895:909   */\n  mstore\n    /* \"#utility.yul\":939:943   */\n  0x20\n    /* \"#utility.yul\":936:937   */\n  0x00\n    /* \"#utility.yul\":926:944   */\n  keccak256\n    /* \"#utility.yul\":918:944   */\n  swap1\n  pop\n    /* \"#utility.yul\":810:951   */\n  swap2\n  swap1\n  pop\n  jump\t// out\n    /* \"#utility.yul\":957:1050   */\ntag_14:\n    /* \"#utility.yul\":994:1000   */\n  0x00\n    /* \"#utility.yul\":1041:1043   */\n  0x20\n    /* \"#utility.yul\":1036:1038   */\n  0x1f\n    /* \"#utility.yul\":1029:1034   */\n  dup4\n    /* \"#utility.yul\":1025:1039   */\n  add\n    /* \"#utility.yul\":1021:1044   */\n  div\n    /* \"#utility.yul\":1011:1044   */\n  swap1\n  pop\n    /* \"#utility.yul\":957:1050   */\n  swap2\n  swap1\n  pop\n  jump\t// out\n    /* \"#utility.yul\":1056:1163   */\ntag_15:\n    /* \"#utility.yul\":1100:1108   */\n  0x00\n    /* \"#utility.yul\":1150:1155   */\n  dup3\n    /* \"#utility.yul\":1144:1148   */\n  dup3\n    /* \"#utility.yul\":1140:1156   */\n  shl\n    /* \"#utility.yul\":1119:1156   */\n  swap1\n  pop\n    /* \"#utility.yul\":1056:1163   */\n  swap3\n  swap2\n  pop\n  pop\n  jump\t// out\n    /* \"#utility.yul\":1169:1562   */\ntag_16:\n    /* \"#utility.yul\":1238:1244   */\n  0x00\n    /* \"#utility.yul\":1288:1289   */\n  0x08\n    /* \"#utility.yul\":1276:1286   */\n  dup4\n    /* \"#utility.yul\":1272:1290   */\n  mul\n    /* \"#utility.yul\":1311:1408   */\n  tag_52\n    /* \"#utility.yul\":1341:1407   */\n  0xffffffffffffffffffffffffffffffffffffffffffffffffffffffffffffffff\n    /* \"#utility.yul\":1330:1339   */\n  dup3\n    /* \"#utility.yul\":1311:1408   */\n  tag_15\n  jump\t// in\ntag_52:\n    /* \"#utility.yul\":1429:1468   */\n  tag_53\n    /* \"#utility.yul\":1459:1467   */\n  dup7\n    /* \"#utility.yul\":1448:1457   */\n  dup4\n    /* \"#utility.yul\":1429:1468   */\n  tag_15\n  jump\t// in\ntag_53:\n    /* \"#utility.yul\":1417:1468   */\n  swap6\n  pop\n    /* \"#utility.yul\":1501:1505   */\n  dup1\n    /* \"#utility.yul\":1497:1506   */\n  not\n    /* \"#utility.yul\":1490:1495   */\n  dup5\n    /* \"#utility.yul\":1486:1507   */\n  and\n    /* \"#utility.yul\":1477:1507   */\n  swap4\n  pop\n    /* \"#utility.yul\":1550:1554   */\n  dup1\n    /* \"#utility.yul\":1540:1548   */\n  dup7\n    /* \"#utility.yul\":1536:1555   */\n  and\n    /* \"#utility.yul\":1529:1534   */\n  dup5\n    /* \"#utility.yul\":1526:1556   */\n  or\n    /* \"#utility.yul\":1516:1556   */\n  swap3\n  pop\n    /* \"#utility.yul\":1245:1562   */\n  pop\n  pop\n    /* \"#utility.yul\":1169:1562   */\n  swap4\n  swap3\n  pop\n  pop\n  pop\n  jump\t// out\n    /* \"#utility.yul\":1568:1645   */\ntag_17:\n    /* \"#utility.yul\":1605:1612   */\n  0x00\n    /* \"#utility.yul\":1634:1639   */\n  dup2\n    /* \"#utility.yul\":1623:1639   */\n  swap1\n  pop\n    /* \"#utility.yul\":1568:1645   */\n  swap2\n  swap1\n  pop\n  jump\t// out\n    /* \"#utility.yul\":1651:1711   */\ntag_18:\n    /* \"#utility.yul\":1679:1682   */\n  0x00\n    /* \"#utility.yul\":1700:1705   */\n  dup2\n    /* \"#utility.yul\":1693:1705   */\n  swap1\n  pop\n    /* \"#utility.yul\":1651:1711   */\n  swap2\n  swap1\n  pop\n  jump\t// out\n    /* \"#utility.yul\":1717:1859   */\ntag_19:\n    /* \"#utility.yul\":1767:1776   */\n  0x00\n    /* \"#utility.yul\":1800:1853   */\n  tag_57\n    /* \"#utility.yul\":1818:1852   */\n  tag_58\n    /* \"#utility.yul\":1827:1851   */\n  tag_59\n    /* \"#utility.yul\":1845:1850   */\n  dup5\n    /* \"#utility.yul\":1827:1851   */\n  tag_17\n  jump\t// in\ntag_59:\n    /* \"#utility.yul\":1818:1852   */\n  tag_18\n  jump\t// in\ntag_58:\n    /* \"#utility.yul\":1800:1853   */\n  tag_17\n  jump\t// in\ntag_57:\n    /* \"#utility.yul\":1787:1853   */\n  swap1\n  pop\n    /* \"#utility.yul\":1717:1859   */\n  swap2\n  swap1\n  pop\n  jump\t// out\n    /* \"#utility.yul\":1865:1940   */\ntag_20:\n    /* \"#utility.yul\":1908:1911   */\n  0x00\n    /* \"#utility.yul\":1929:1934   */\n  dup2\n    /* \"#utility.yul\":1922:1934   */\n  swap1\n  pop\n    /* \"#utility.yul\":1865:1940   */\n  swap2\n  swap1\n  pop\n  jump\t// out\n    /* \"#utility.yul\":1946:2215   */\ntag_21:\n    /* \"#utility.yul\":2056:2095   */\n  tag_62\n    /* \"#utility.yul\":2087:2094   */\n  dup4\n    /* \"#utility.yul\":2056:2095   */\n  tag_19\n  jump\t// in\ntag_62:\n    /* \"#utility.yul\":2117:2208   */\n  tag_63\n    /* \"#utility.yul\":2166:2207   */\n  tag_64\n    /* \"#utility.yul\":2190:2206   */\n  dup3\n    /* \"#utility.yul\":2166:2207   */\n  tag_20\n  jump\t// in\ntag_64:\n    /* \"#utility.yul\":2158:2164   */\n  dup5\n    /* \"#utility.yul\":2151:2155   */\n  dup5\n    /* \"#utility.yul\":2145:2156   */\n  sload\n    /* \"#utility.yul\":2117:2208   */\n  tag_16\n  jump\t// in\ntag_63:\n    /* \"#utility.yul\":2111:2115   */\n  dup3\n    /* \"#utility.yul\":2104:2209   */\n  sstore\n    /* \"#utility.yul\":2022:2215   */\n  pop\n    /* \"#utility.yul\":1946:2215   */\n  pop\n  pop\n  pop\n  jump\t// out\n    /* \"#utility.yul\":2221:2294   */\ntag_22:\n    /* \"#utility.yul\":2266:2269   */\n  0x00\n    /* \"#utility.yul\":2287:2288   */\n  0x00\n    /* \"#utility.yul\":2280:2288   */\n  swap1\n  pop\n    /* \"#utility.yul\":2221:2294   */\n  swap1\n  jump\t// out\n    /* \"#utility.yul\":2300:2489   */\ntag_23:\n    /* \"#utility.yul\":2377:2409   */\n  tag_67\n  tag_22\n  jump\t// in\ntag_67:\n    /* \"#utility.yul\":2418:2483   */\n  tag_68\n    /* \"#utility.yul\":2476:2482   */\n  dup2\n    /* \"#utility.yul\":2468:2474   */\n  dup5\n    /* \"#utility.yul\":2462:2466   */\n  dup5\n    /* \"#utility.yul\":2418:2483   */\n  tag_21\n  jump\t// in\ntag_68:\n    /* \"#utility.yul\":2353:2489   */\n  pop\n    /* \"#utility.yul\":2300:2489   */\n  pop\n  pop\n  jump\t// out\n    /* \"#utility.yul\":2495:2681   */\ntag_24:\n    /* \"#utility.yul\":2555:2675   */\ntag_70:\n    /* \"#utility.yul\":2572:2575   */\n  dup2\n    /* \"#utility.yul\":2565:2570   */\n  dup2\n    /* \"#utility.yul\":2562:2576   */\n  lt\n    /* \"#utility.yul\":2555:2675   */\n  iszero\n  tag_72\n  jumpi\n    /* \"#utility.yul\":2626:2665   */\n  tag_73\n    /* \"#utility.yul\":2663:2664   */\n  0x00\n    /* \"#utility.yul\":2656:2661   */\n  dup3\n    /* \"#utility.yul\":2626:2665   */\n  tag_23\n  jump\t// in\ntag_73:\n    /* \"#utility.yul\":2599:2600   */\n  0x01\n    /* \"#utility.yul\":2592:2597   */\n  dup2\n    /* \"#utility.yul\":2588:2601   */\n  add\n    /* \"#utility.yul\":2579:2601   */\n  swap1\n  pop\n    /* \"#utility.yul\":2555:2675   */\n  jump(tag_70)\ntag_72:\n    /* \"#utility.yul\":2495:2681   */\n  pop\n  pop\n  jump\t// out\n    /* \"#utility.yul\":2687:3230   */\ntag_25:\n    /* \"#utility.yul\":2788:2790   */\n  0x1f\n    /* \"#utility.yul\":2783:2786   */\n  dup3\n    /* \"#utility.yul\":2780:2791   */\n  gt\n    /* \"#utility.yul\":2777:3223   */\n  iszero\n  tag_75\n  jumpi\n    /* \"#utility.yul\":2822:2860   */\n  tag_76\n    /* \"#utility.yul\":2854:2859   */\n  dup2\n    /* \"#utility.yul\":2822:2860   */\n  tag_13\n  jump\t// in\ntag_76:\n    /* \"#utility.yul\":2906:2935   */\n  tag_77\n    /* \"#utility.yul\":2924:2934   */\n  dup5\n    /* \"#utility.yul\":2906:2935   */\n  tag_14\n  jump\t// in\ntag_77:\n    /* \"#utility.yul\":2896:2904   */\n  dup2\n    /* \"#utility.yul\":2892:2936   */\n  add\n    /* \"#utility.yul\":3089:3091   */\n  0x20\n    /* \"#utility.yul\":3077:3087   */\n  dup6\n    /* \"#utility.yul\":3074:3092   */\n  lt\n    /* \"#utility.yul\":3071:3120   */\n  iszero\n  tag_78\n  jumpi\n    /* \"#utility.yul\":3110:3118   */\n  dup2\n    /* \"#utility.yul\":3095:3118   */\n  swap1\n  pop\n    /* \"#utility.yul\":3071:3120   */\ntag_78:\n    /* \"#utility.yul\":3133:3213   */\n  tag_79\n    /* \"#utility.yul\":3189:3211   */\n  tag_80\n    /* \"#utility.yul\":3207:3210   */\n  dup6\n    /* \"#utility.yul\":3189:3211   */\n  tag_14\n  jump\t// in\ntag_80:\n    /* \"#utility.yul\":3179:3187   */\n  dup4\n    /* \"#utility.yul\":3175:3212   */\n  add\n    /* \"#utility.yul\":3162:3173   */\n  dup3\n    /* \"#utility.yul\":3133:3213   */\n  tag_24\n  jump\t// in\ntag_79:\n    /* \"#utility.yul\":2792:3223   */\n  pop\n  pop\n    /* \"#utility.yul\":2777:3223   */\ntag_75:\n    /* \"#utility.yul\":2687:3230   */\n  pop\n  pop\n  pop\n  jump\t// out\n    /* \"#utility.yul\":3236:3353   */\ntag_26:\n    /* \"#utility.yul\":3290:3298   */\n  0x00\n    /* \"#utility.yul\":3340:3345   */\n  dup3\n    /* \"#utility.yul\":3334:3338   */\n  dup3\n    /* \"#utility.yul\":3330:3346   */\n  shr\n    /* \"#utility.yul\":3309:3346   */\n  swap1\n  pop\n    /* \"#utility.yul\":3236:3353   */\n  swap3\n  swap2\n  pop\n  pop\n  jump\t// out\n    /* \"#utility.yul\":3359:3528   */\ntag_27:\n    /* \"#utility.yul\":3403:3409   */\n  0x00\n    /* \"#utility.yul\":3436:3487   */\n  tag_83\n    /* \"#utility.yul\":3484:3485   */\n  0x00\n    /* \"#utility.yul\":3480:3486   */\n  not\n    /* \"#utility.yul\":3472:3477   */\n  dup5\n    /* \"#utility.yul\":3469:3470   */\n  0x08\n    /* \"#utility.yul\":3465:3478   */\n  mul\n    /* \"#utility.yul\":3436:3487   */\n  tag_26\n  jump\t// in\ntag_83:\n    /* \"#utility.yul\":3432:3488   */\n  not\n    /* \"#utility.yul\":3517:3521   */\n  dup1\n    /* \"#utility.yul\":3511:3515   */\n  dup4\n    /* \"#utility.yul\":3507:3522   */\n  and\n    /* \"#utility.yul\":3497:3522   */\n  swap2\n  pop\n    /* \"#utility.yul\":3410:3528   */\n  pop\n    /* \"#utility.yul\":3359:3528   */\n  swap3\n  swap2\n  pop\n  pop\n  jump\t// out\n    /* \"#utility.yul\":3533:3828   */\ntag_28:\n    /* \"#utility.yul\":3609:3613   */\n  0x00\n    /* \"#utility.yul\":3755:3784   */\n  tag_85\n    /* \"#utility.yul\":3780:3783   */\n  dup4\n    /* \"#utility.yul\":3774:3778   */\n  dup4\n    /* \"#utility.yul\":3755:3784   */\n  tag_27\n  jump\t// in\ntag_85:\n    /* \"#utility.yul\":3747:3784   */\n  swap2\n  pop\n    /* \"#utility.yul\":3817:3820   */\n  dup3\n    /* \"#utility.yul\":3814:3815   */\n  0x02\n    /* \"#utility.yul\":3810:3821   */\n  mul\n    /* \"#utility.yul\":3804:3808   */\n  dup3\n    /* \"#utility.yul\":3801:3822   */\n  or\n    /* \"#utility.yul\":3793:3822   */\n  swap1\n  pop\n    /* \"#utility.yul\":3533:3828   */\n  swap3\n  swap2\n  pop\n  pop\n  jump\t// out\n    /* \"#utility.yul\":3833:5228   */\ntag_2:\n    /* \"#utility.yul\":3950:3987   */\n  tag_87\n    /* \"#utility.yul\":3983:3986   */\n  dup3\n    /* \"#utility.yul\":3950:3987   */\n  tag_9\n  jump\t// in\ntag_87:\n    /* \"#utility.yul\":4052:4070   */\n  0xffffffffffffffff\n    /* \"#utility.yul\":4044:4050   */\n  dup2\n    /* \"#utility.yul\":4041:4071   */\n  gt\n    /* \"#utility.yul\":4038:4094   */\n  iszero\n  tag_88\n  jumpi\n    /* \"#utility.yul\":4074:4092   */\n  tag_89\n  tag_10\n  jump\t// in\ntag_89:\n    /* \"#utility.yul\":4038:4094   */\ntag_88:\n    /* \"#utility.yul\":4118:4156   */\n  tag_90\n    /* \"#utility.yul\":4150:4154   */\n  dup3\n    /* \"#utility.yul\":4144:4155   */\n  sload\n    /* \"#utility.yul\":4118:4156   */\n  tag_12\n  jump\t// in\ntag_90:\n    /* \"#utility.yul\":4203:4270   */\n  tag_91\n    /* \"#utility.yul\":4263:4269   */\n  dup3\n    /* \"#utility.yul\":4255:4261   */\n  dup3\n    /* \"#utility.yul\":4249:4253   */\n  dup6\n    /* \"#utility.yul\":4203:4270   */\n  tag_25\n  jump\t// in\ntag_91:\n    /* \"#utility.yul\":4297:4298   */\n  0x00\n    /* \"#utility.yul\":4321:4325   */\n  0x20\n    /* \"#utility.yul\":4308:4325   */\n  swap1\n  pop\n    /* \"#utility.yul\":4353:4355   */\n  0x1f\n    /* \"#utility.yul\":4345:4351   */\n  dup4\n    /* \"#utility.yul\":4342:4356   */\n  gt\n    /* \"#utility.yul\":4370:4371   */\n  0x01\n    /* \"#utility.yul\":4365:4983   */\n  dup2\n  eq\n  tag_93\n  jumpi\n    /* \"#utility.yul\":5027:5028   */\n  0x00\n    /* \"#utility.yul\":5044:5050   */\n  dup5\n    /* \"#utility.yul\":5041:5118   */\n  iszero\n  tag_94\n  jumpi\n    /* \"#utility.yul\":5093:5102   */\n  dup3\n    /* \"#utility.yul\":5088:5091   */\n  dup8\n    /* \"#utility.yul\":5084:5103   */\n  add\n    /* \"#utility.yul\":5078:5104   */\n  mload\n    /* \"#utility.yul\":5069:5104   */\n  swap1\n  pop\n    /* \"#utility.yul\":5041:5118   */\ntag_94:\n    /* \"#utility.yul\":5144:5211   */\n  tag_95\n    /* \"#utility.yul\":5204:5210   */\n  dup6\n    /* \"#utility.yul\":5197:5202   */\n  dup3\n    /* \"#utility.yul\":5144:5211   */\n  tag_28\n  jump\t// in\ntag_95:\n    /* \"#utility.yul\":5138:5142   */\n  dup7\n    /* \"#utility.yul\":5131:5212   */\n  sstore\n    /* \"#utility.yul\":5000:5222   */\n  pop\n    /* \"#utility.yul\":4335:5222   */\n  jump(tag_92)\n    /* \"#utility.yul\":4365:4983   */\ntag_93:\n    /* \"#utility.yul\":4417:4421   */\n  0x1f\n    /* \"#utility.yul\":4413:4422   */\n  not\n    /* \"#utility.yul\":4405:4411   */\n  dup5\n    /* \"#utility.yul\":4401:4423   */\n  and\n    /* \"#utility.yul\":4451:4488   */\n  tag_96\n    /* \"#utility.yul\":4483:4487   */\n  dup7\n    /* \"#utility.yul\":4451:4488   */\n  tag_13\n  jump\t// in\ntag_96:\n    /* \"#utility.yul\":4510:4511   */\n  0x00\n    /* \"#utility.yul\":4524:4732   */\ntag_97:\n    /* \"#utility.yul\":4538:4545   */\n  dup3\n    /* \"#utility.yul\":4535:4536   */\n  dup2\n    /* \"#utility.yul\":4532:4546   */\n  lt\n    /* \"#utility.yul\":4524:4732   */\n  iszero\n  tag_99\n  jumpi\n    /* \"#utility.yul\":4617:4626   */\n  dup5\n    /* \"#utility.yul\":4612:4615   */\n  dup10\n    /* \"#utility.yul\":4608:4627   */\n  add\n    /* \"#utility.yul\":4602:4628   */\n  mload\n    /* \"#utility.yul\":4594:4600   */\n  dup3\n    /* \"#utility.yul\":4587:4629   */\n  sstore\n    /* \"#utility.yul\":4668:4669   */\n  0x01\n    /* \"#utility.yul\":4660:4666   */\n  dup3\n    /* \"#utility.yul\":4656:4670   */\n  add\n    /* \"#utility.yul\":4646:4670   */\n  swap2\n  pop\n    /* \"#utility.yul\":4715:4717   */\n  0x20\n    /* \"#utility.yul\":4704:4713   */\n  dup6\n    /* \"#utility.yul\":4700:4718   */\n  add\n    /* \"#utility.yul\":4687:4718   */\n  swap5\n  pop\n    /* \"#utility.yul\":4561:4565   */\n  0x20\n    /* \"#utility.yul\":4558:4559   */\n  dup2\n    /* \"#utility.yul\":4554:4566   */\n  add\n    /* \"#utility.yul\":4549:4566   */\n  swap1\n  pop\n    /* \"#utility.yul\":4524:4732   */\n  jump(tag_97)\ntag_99:\n    /* \"#utility.yul\":4760:4766   */\n  dup7\n    /* \"#utility.yul\":4751:4758   */\n  dup4\n    /* \"#utility.yul\":4748:4767   */\n  lt\n    /* \"#utility.yul\":4745:4924   */\n  iszero\n  tag_100\n  jumpi\n    /* \"#utility.yul\":4818:4827   */\n  dup5\n    /* \"#utility.yul\":4813:4816   */\n  dup10\n    /* \"#utility.yul\":4809:4828   */\n  add\n    /* \"#utility.yul\":4803:4829   */\n  mload\n    /* \"#utility.yul\":4861:4909   */\n  tag_101\n    /* \"#utility.yul\":4903:4907   */\n  0x1f\n    /* \"#utility.yul\":4895:4901   */\n  dup10\n    /* \"#utility.yul\":4891:4908   */\n  and\n    /* \"#utility.yul\":4880:4889   */\n  dup3\n    /* \"#utility.yul\":4861:4909   */\n  tag_27\n  jump\t// in\ntag_101:\n    /* \"#utility.yul\":4853:4859   */\n  dup4\n    /* \"#utility.yul\":4846:4910   */\n  sstore\n    /* \"#utility.yul\":4768:4924   */\n  pop\n    /* \"#utility.yul\":4745:4924   */\ntag_100:\n    /* \"#utility.yul\":4970:4971   */\n  0x01\n    /* \"#utility.yul\":4966:4967   */\n  0x02\n    /* \"#utility.yul\":4958:4964   */\n  dup9\n    /* \"#utility.yul\":4954:4968   */\n  mul\n    /* \"#utility.yul\":4950:4972   */\n  add\n    /* \"#utility.yul\":4944:4948   */\n  dup9\n    /* \"#utility.yul\":4937:4973   */\n  sstore\n    /* \"#utility.yul\":4372:4983   */\n  pop\n  pop\n  pop\n    /* \"#utility.yul\":4335:5222   */\ntag_92:\n  pop\n    /* \"#utility.yul\":3925:5228   */\n  pop\n  pop\n  pop\n    /* \"#utility.yul\":3833:5228   */\n  pop\n  pop\n  jump\t// out\n    /* \"#utility.yul\":5315:5432   */\ntag_30:\n    /* \"#utility.yul\":5424:5425   */\n  0x00\n    /* \"#utility.yul\":5421:5422   */\n  0x00\n    /* \"#utility.yul\":5414:5426   */\n  revert\n    /* \"#utility.yul\":5561:5687   */\ntag_32:\n    /* \"#utility.yul\":5598:5605   */\n  0x00\n    /* \"#utility.yul\":5638:5680   */\n  0xffffffffffffffffffffffffffffffffffffffff\n    /* \"#utility.yul\":5631:5636   */\n  dup3\n    /* \"#utility.yul\":5627:5681   */\n  and\n    /* \"#utility.yul\":5616:5681   */\n  swap1\n  pop\n    /* \"#utility.yul\":5561:5687   */\n  swap2\n  swap1\n  pop\n  jump\t// out\n    /* \"#utility.yul\":5693:5789   */\ntag_33:\n    /* \"#utility.yul\":5730:5737   */\n  0x00\n    /* \"#utility.yul\":5759:5783   */\n  tag_107\n    /* \"#utility.yul\":5777:5782   */\n  dup3\n    /* \"#utility.yul\":5759:5783   */\n  tag_32\n  jump\t// in\ntag_107:\n    /* \"#utility.yul\":5748:5783   */\n  swap1\n  pop\n    /* \"#utility.yul\":5693:5789   */\n  swap2\n  swap1\n  pop\n  jump\t// out\n    /* \"#utility.yul\":5795:5908   */\ntag_34:\n    /* \"#utility.yul\":5849:5856   */\n  0x00\n    /* \"#utility.yul\":5878:5902   */\n  tag_109\n    /* \"#utility.yul\":5896:5901   */\n  dup3\n    /* \"#utility.yul\":5878:5902   */\n  tag_33\n  jump\t// in\ntag_109:\n    /* \"#utility.yul\":5867:5902   */\n  swap1\n  pop\n    /* \"#utility.yul\":5795:5908   */\n  swap2\n  swap1\n  pop\n  jump\t// out\n    /* \"#utility.yul\":5914:6070   */\ntag_35:\n    /* \"#utility.yul\":6004:6045   */\n  tag_111\n    /* \"#utility.yul\":6039:6044   */\n  dup2\n    /* \"#utility.yul\":6004:6045   */\n  tag_34\n  jump\t// in\ntag_111:\n    /* \"#utility.yul\":5997:6002   */\n  dup2\n    /* \"#utility.yul\":5994:6046   */\n  eq\n    /* \"#utility.yul\":5984:6064   */\n  tag_112\n  jumpi\n    /* \"#utility.yul\":6060:6061   */\n  0x00\n    /* \"#utility.yul\":6057:6058   */\n  0x00\n    /* \"#utility.yul\":6050:6062   */\n  revert\n    /* \"#utility.yul\":5984:6064   */\ntag_112:\n    /* \"#utility.yul\":5914:6070   */\n  pop\n  jump\t// out\n    /* \"#utility.yul\":6076:6253   */\ntag_36:\n    /* \"#utility.yul\":6150:6155   */\n  0x00\n    /* \"#utility.yul\":6181:6187   */\n  dup2\n    /* \"#utility.yul\":6175:6188   */\n  mload\n    /* \"#utility.yul\":6166:6188   */\n  swap1\n  pop\n    /* \"#utility.yul\":6197:6247   */\n  tag_114\n    /* \"#utility.yul\":6241:6246   */\n  dup2\n    /* \"#utility.yul\":6197:6247   */\n  tag_35\n  jump\t// in\ntag_114:\n    /* \"#utility.yul\":6076:6253   */\n  swap3\n  swap2\n  pop\n  pop\n  jump\t// out\n    /* \"#utility.yul\":6259:6371   */\ntag_37:\n    /* \"#utility.yul\":6312:6319   */\n  0x00\n    /* \"#utility.yul\":6341:6365   */\n  tag_116\n    /* \"#utility.yul\":6359:6364   */\n  dup3\n    /* \"#utility.yul\":6341:6365   */\n  tag_33\n  jump\t// in\ntag_116:\n    /* \"#utility.yul\":6330:6365   */\n  swap1\n  pop\n    /* \"#utility.yul\":6259:6371   */\n  swap2\n  swap1\n  pop\n  jump\t// out\n    /* \"#utility.yul\":6377:6531   */\ntag_38:\n    /* \"#utility.yul\":6466:6506   */\n  tag_118\n    /* \"#utility.yul\":6500:6505   */\n  dup2\n    /* \"#utility.yul\":6466:6506   */\n  tag_37\n  jump\t// in\ntag_118:\n    /* \"#utility.yul\":6459:6464   */\n  dup2\n    /* \"#utility.yul\":6456:6507   */\n  eq\n    /* \"#utility.yul\":6446:6525   */\n  tag_119\n  jumpi\n    /* \"#utility.yul\":6521:6522   */\n  0x00\n    /* \"#utility.yul\":6518:6519   */\n  0x00\n    /* \"#utility.yul\":6511:6523   */\n  revert\n    /* \"#utility.yul\":6446:6525   */\ntag_119:\n    /* \"#utility.yul\":6377:6531   */\n  pop\n  jump\t// out\n    /* \"#utility.yul\":6537:6712   */\ntag_39:\n    /* \"#utility.yul\":6610:6615   */\n  0x00\n    /* \"#utility.yul\":6641:6647   */\n  dup2\n    /* \"#utility.yul\":6635:6648   */\n  mload\n    /* \"#utility.yul\":6626:6648   */\n  swap1\n  pop\n    /* \"#utility.yul\":6657:6706   */\n  tag_121\n    /* \"#utility.yul\":6700:6705   */\n  dup2\n    /* \"#utility.yul\":6657:6706   */\n  tag_38\n  jump\t// in\ntag_121:\n    /* \"#utility.yul\":6537:6712   */\n  swap3\n  swap2\n  pop\n  pop\n  jump\t// out\n    /* \"#utility.yul\":6718:7291   */\ntag_5:\n    /* \"#utility.yul\":6830:6836   */\n  0x00\n    /* \"#utility.yul\":6838:6844   */\n  0x00\n    /* \"#utility.yul\":6887:6889   */\n  0x40\n    /* \"#utility.yul\":6875:6884   */\n  dup4\n    /* \"#utility.yul\":6866:6873   */\n  dup6\n    /* \"#utility.yul\":6862:6885   */\n  sub\n    /* \"#utility.yul\":6858:6890   */\n  slt\n    /* \"#utility.yul\":6855:6974   */\n  iszero\n  tag_123\n  jumpi\n    /* \"#utility.yul\":6893:6972   */\n  tag_124\n  tag_30\n  jump\t// in\ntag_124:\n    /* \"#utility.yul\":6855:6974   */\ntag_123:\n    /* \"#utility.yul\":7013:7014   */\n  0x00\n    /* \"#utility.yul\":7038:7119   */\n  tag_125\n    /* \"#utility.yul\":7111:7118   */\n  dup6\n    /* \"#utility.yul\":7102:7108   */\n  dup3\n    /* \"#utility.yul\":7091:7100   */\n  dup7\n    /* \"#utility.yul\":7087:7109   */\n  add\n    /* \"#utility.yul\":7038:7119   */\n  tag_36\n  jump\t// in\ntag_125:\n    /* \"#utility.yul\":7028:7119   */\n  swap3\n  pop\n    /* \"#utility.yul\":6984:7129   */\n  pop\n    /* \"#utility.yul\":7168:7170   */\n  0x20\n    /* \"#utility.yul\":7194:7274   */\n  tag_126\n    /* \"#utility.yul\":7266:7273   */\n  dup6\n    /* \"#utility.yul\":7257:7263   */\n  dup3\n    /* \"#utility.yul\":7246:7255   */\n  dup7\n    /* \"#utility.yul\":7242:7264   */\n  add\n    /* \"#utility.yul\":7194:7274   */\n  tag_39\n  jump\t// in\ntag_126:\n    /* \"#utility.yul\":7184:7274   */\n  swap2\n  pop\n    /* \"#utility.yul\":7139:7284   */\n  pop\n    /* \"#utility.yul\":6718:7291   */\n  swap3\n  pop\n  swap3\n  swap1\n  pop\n  jump\t// out\n    /* \"contracts/TokenFarm.sol\":265:8083  contract TokenFarm {... */\ntag_8:\n  dataSize(sub_0)\n  dup1\n  dataOffset(sub_0)\n  0x00\n  codecopy\n  0x00\n  return\nstop\n\nsub_0: assembly {\n        /* \"contracts/TokenFarm.sol\":265:8083  contract TokenFarm {... */\n      mstore(0x40, 0x80)\n      callvalue\n      dup1\n      iszero\n      tag_1\n      jumpi\n      revert(0x00, 0x00)\n    tag_1:\n      pop\n      jumpi(tag_2, lt(calldatasize, 0x04))\n      shr(0xe0, calldataload(0x00))\n      dup1\n      0x6f49712b\n      gt\n      tag_21\n      jumpi\n      dup1\n      0xc93c8f34\n      gt\n      tag_22\n      jumpi\n      dup1\n      0xc93c8f34\n      eq\n      tag_16\n      jumpi\n      dup1\n      0xdb03e227\n      eq\n      tag_17\n      jumpi\n      dup1\n      0xdbb51d6e\n      eq\n      tag_18\n      jumpi\n      dup1\n      0xe766c835\n      eq\n      tag_19\n      jumpi\n      dup1\n      0xfd5e6dd1\n      eq\n      tag_20\n      jumpi\n      jump(tag_2)\n    tag_22:\n      dup1\n      0x6f49712b\n      eq\n      tag_12\n      jumpi\n      dup1\n      0x8da5cb5b\n      eq\n      tag_13\n      jumpi\n      dup1\n      0x975532dc\n      eq\n      tag_14\n      jumpi\n      dup1\n      0xb6b55f25\n      eq\n      tag_15\n      jumpi\n      jump(tag_2)\n    tag_21:\n      dup1\n      0x45bc78ab\n      gt\n      tag_23\n      jumpi\n      dup1\n      0x45bc78ab\n      eq\n      tag_7\n      jumpi\n      dup1\n      0x48284789\n      eq\n      tag_8\n      jumpi\n      dup1\n      0x5eb186f8\n      eq\n      tag_9\n      jumpi\n      dup1\n      0x5fcbd285\n      eq\n      tag_10\n      jumpi\n      dup1\n      0x6386c1c7\n      eq\n      tag_11\n      jumpi\n      jump(tag_2)\n    tag_23:\n      dup1\n      0x06fdde03\n      eq\n      tag_3\n      jumpi\n      dup1\n      0x31d7a262\n      eq\n      tag_4\n      jumpi\n      dup1\n      0x372500ab\n      eq\n      tag_5\n      jumpi\n      dup1\n      0x3ccfd60b\n      eq\n      tag_6\n      jumpi\n    tag_2:\n      revert(0x00, 0x00)\n        /* \"contracts/TokenFarm.sol\":335:381  string public name = \"Proportional Token Farm\" */\n    tag_3:\n      tag_24\n      tag_25\n      jump\t// in\n    tag_24:\n      mload(0x40)\n      tag_26\n      swap2\n      swap1\n      tag_27\n      jump\t// in\n    tag_26:\n      mload(0x40)\n      dup1\n      swap2\n      sub\n      swap1\n      return\n        /* \"contracts/TokenFarm.sol\":811:860  mapping(address => uint256) public pendingRewards */\n    tag_4:\n      tag_28\n      0x04\n      dup1\n      calldatasize\n      sub\n      dup2\n      add\n      swap1\n      tag_29\n      swap2\n      swap1\n      tag_30\n      jump\t// in\n    tag_29:\n      tag_31\n      jump\t// in\n    tag_28:\n      mload(0x40)\n      tag_32\n      swap2\n      swap1\n      tag_33\n      jump\t// in\n    tag_32:\n      mload(0x40)\n      dup1\n      swap2\n      sub\n      swap1\n      return\n        /* \"contracts/TokenFarm.sol\":4328:5092  function claimRewards() external {... */\n    tag_5:\n      tag_34\n      tag_35\n      jump\t// in\n    tag_34:\n      stop\n        /* \"contracts/TokenFarm.sol\":3098:4256  function withdraw() external {... */\n    tag_6:\n      tag_36\n      tag_37\n      jump\t// in\n    tag_36:\n      stop\n        /* \"contracts/TokenFarm.sol\":702:751  mapping(address => uint256) public stakingBalance */\n    tag_7:\n      tag_38\n      0x04\n      dup1\n      calldatasize\n      sub\n      dup2\n      add\n      swap1\n      tag_39\n      swap2\n      swap1\n      tag_30\n      jump\t// in\n    tag_39:\n      tag_40\n      jump\t// in\n    tag_38:\n      mload(0x40)\n      tag_41\n      swap2\n      swap1\n      tag_33\n      jump\t// in\n    tag_41:\n      mload(0x40)\n      dup1\n      swap2\n      sub\n      swap1\n      return\n        /* \"contracts/TokenFarm.sol\":7981:8080  function getStakersCount() external view returns (uint256) {... */\n    tag_8:\n      tag_42\n      tag_43\n      jump\t// in\n    tag_42:\n      mload(0x40)\n      tag_44\n      swap2\n      swap1\n      tag_33\n      jump\t// in\n    tag_44:\n      mload(0x40)\n      dup1\n      swap2\n      sub\n      swap1\n      return\n        /* \"contracts/TokenFarm.sol\":415:441  DAppToken public dappToken */\n    tag_9:\n      tag_45\n      tag_46\n      jump\t// in\n    tag_45:\n      mload(0x40)\n      tag_47\n      swap2\n      swap1\n      tag_48\n      jump\t// in\n    tag_47:\n      mload(0x40)\n      dup1\n      swap2\n      sub\n      swap1\n      return\n        /* \"contracts/TokenFarm.sol\":448:470  LPToken public lpToken */\n    tag_10:\n      tag_49\n      tag_50\n      jump\t// in\n    tag_49:\n      mload(0x40)\n      tag_51\n      swap2\n      swap1\n      tag_52\n      jump\t// in\n    tag_51:\n      mload(0x40)\n      dup1\n      swap2\n      sub\n      swap1\n      return\n        /* \"contracts/TokenFarm.sol\":7559:7973  function getUserInfo(address user) external view returns (... */\n    tag_11:\n      tag_53\n      0x04\n      dup1\n      calldatasize\n      sub\n      dup2\n      add\n      swap1\n      tag_54\n      swap2\n      swap1\n      tag_30\n      jump\t// in\n    tag_54:\n      tag_55\n      jump\t// in\n    tag_53:\n      mload(0x40)\n      tag_56\n      swap6\n      swap5\n      swap4\n      swap3\n      swap2\n      swap1\n      tag_57\n      jump\t// in\n    tag_56:\n      mload(0x40)\n      dup1\n      swap2\n      sub\n      swap1\n      return\n        /* \"contracts/TokenFarm.sol\":915:956  mapping(address => bool) public isStaking */\n    tag_12:\n      tag_58\n      0x04\n      dup1\n      calldatasize\n      sub\n      dup2\n      add\n      swap1\n      tag_59\n      swap2\n      swap1\n      tag_30\n      jump\t// in\n    tag_59:\n      tag_60\n      jump\t// in\n    tag_58:\n      mload(0x40)\n      tag_61\n      swap2\n      swap1\n      tag_62\n      jump\t// in\n    tag_61:\n      mload(0x40)\n      dup1\n      swap2\n      sub\n      swap1\n      return\n        /* \"contracts/TokenFarm.sol\":388:408  address public owner */\n    tag_13:\n      tag_63\n      tag_64\n      jump\t// in\n    tag_63:\n      mload(0x40)\n      tag_65\n      swap2\n      swap1\n      tag_66\n      jump\t// in\n    tag_65:\n      mload(0x40)\n      dup1\n      swap2\n      sub\n      swap1\n      return\n        /* \"contracts/TokenFarm.sol\":483:530  uint256 public constant REWARD_PER_BLOCK = 1e18 */\n    tag_14:\n      tag_67\n      tag_68\n      jump\t// in\n    tag_67:\n      mload(0x40)\n      tag_69\n      swap2\n      swap1\n      tag_33\n      jump\t// in\n    tag_69:\n      mload(0x40)\n      dup1\n      swap2\n      sub\n      swap1\n      return\n        /* \"contracts/TokenFarm.sol\":1657:3019  function deposit(uint256 _amount) external {... */\n    tag_15:\n      tag_70\n      0x04\n      dup1\n      calldatasize\n      sub\n      dup2\n      add\n      swap1\n      tag_71\n      swap2\n      swap1\n      tag_72\n      jump\t// in\n    tag_71:\n      tag_73\n      jump\t// in\n    tag_70:\n      stop\n        /* \"contracts/TokenFarm.sol\":867:908  mapping(address => bool) public hasStaked */\n    tag_16:\n      tag_74\n      0x04\n      dup1\n      calldatasize\n      sub\n      dup2\n      add\n      swap1\n      tag_75\n      swap2\n      swap1\n      tag_30\n      jump\t// in\n    tag_75:\n      tag_76\n      jump\t// in\n    tag_74:\n      mload(0x40)\n      tag_77\n      swap2\n      swap1\n      tag_62\n      jump\t// in\n    tag_77:\n      mload(0x40)\n      dup1\n      swap2\n      sub\n      swap1\n      return\n        /* \"contracts/TokenFarm.sol\":5188:5921  function distributeRewardsAll() external {... */\n    tag_17:\n      tag_78\n      tag_79\n      jump\t// in\n    tag_78:\n      stop\n        /* \"contracts/TokenFarm.sol\":758:804  mapping(address => uint256) public checkpoints */\n    tag_18:\n      tag_80\n      0x04\n      dup1\n      calldatasize\n      sub\n      dup2\n      add\n      swap1\n      tag_81\n      swap2\n      swap1\n      tag_30\n      jump\t// in\n    tag_81:\n      tag_82\n      jump\t// in\n    tag_80:\n      mload(0x40)\n      tag_83\n      swap2\n      swap1\n      tag_33\n      jump\t// in\n    tag_83:\n      mload(0x40)\n      dup1\n      swap2\n      sub\n      swap1\n      return\n        /* \"contracts/TokenFarm.sol\":594:628  uint256 public totalStakingBalance */\n    tag_19:\n      tag_84\n      tag_85\n      jump\t// in\n    tag_84:\n      mload(0x40)\n      tag_86\n      swap2\n      swap1\n      tag_33\n      jump\t// in\n    tag_86:\n      mload(0x40)\n      dup1\n      swap2\n      sub\n      swap1\n      return\n        /* \"contracts/TokenFarm.sol\":665:689  address[] public stakers */\n    tag_20:\n      tag_87\n      0x04\n      dup1\n      calldatasize\n      sub\n      dup2\n      add\n      swap1\n      tag_88\n      swap2\n      swap1\n      tag_72\n      jump\t// in\n    tag_88:\n      tag_89\n      jump\t// in\n    tag_87:\n      mload(0x40)\n      tag_90\n      swap2\n      swap1\n      tag_66\n      jump\t// in\n    tag_90:\n      mload(0x40)\n      dup1\n      swap2\n      sub\n      swap1\n      return\n        /* \"contracts/TokenFarm.sol\":335:381  string public name = \"Proportional Token Farm\" */\n    tag_25:\n      0x00\n      dup1\n      sload\n      tag_91\n      swap1\n      tag_92\n      jump\t// in\n    tag_91:\n      dup1\n      0x1f\n      add\n      0x20\n      dup1\n      swap2\n      div\n      mul\n      0x20\n      add\n      mload(0x40)\n      swap1\n      dup2\n      add\n      0x40\n      mstore\n      dup1\n      swap3\n      swap2\n      swap1\n      dup2\n      dup2\n      mstore\n      0x20\n      add\n      dup3\n      dup1\n      sload\n      tag_93\n      swap1\n      tag_92\n      jump\t// in\n    tag_93:\n      dup1\n      iszero\n      tag_94\n      jumpi\n      dup1\n      0x1f\n      lt\n      tag_95\n      jumpi\n      0x0100\n      dup1\n      dup4\n      sload\n      div\n      mul\n      dup4\n      mstore\n      swap2\n      0x20\n      add\n      swap2\n      jump(tag_94)\n    tag_95:\n      dup3\n      add\n      swap2\n      swap1\n      0x00\n      mstore\n      keccak256(0x00, 0x20)\n      swap1\n    tag_96:\n      dup2\n      sload\n      dup2\n      mstore\n      swap1\n      0x01\n      add\n      swap1\n      0x20\n      add\n      dup1\n      dup4\n      gt\n      tag_96\n      jumpi\n      dup3\n      swap1\n      sub\n      0x1f\n      and\n      dup3\n      add\n      swap2\n    tag_94:\n      pop\n      pop\n      pop\n      pop\n      pop\n      dup2\n      jump\t// out\n        /* \"contracts/TokenFarm.sol\":811:860  mapping(address => uint256) public pendingRewards */\n    tag_31:\n      mstore(0x20, 0x08)\n      dup1\n      0x00\n      mstore\n      keccak256(0x00, 0x40)\n      0x00\n      swap2\n      pop\n      swap1\n      pop\n      sload\n      dup2\n      jump\t// out\n        /* \"contracts/TokenFarm.sol\":4328:5092  function claimRewards() external {... */\n    tag_35:\n        /* \"contracts/TokenFarm.sol\":4461:4482  uint256 pendingAmount */\n      0x00\n        /* \"contracts/TokenFarm.sol\":4485:4499  pendingRewards */\n      0x08\n        /* \"contracts/TokenFarm.sol\":4485:4511  pendingRewards[msg.sender] */\n      0x00\n        /* \"contracts/TokenFarm.sol\":4500:4510  msg.sender */\n      caller\n        /* \"contracts/TokenFarm.sol\":4485:4511  pendingRewards[msg.sender] */\n      0xffffffffffffffffffffffffffffffffffffffff\n      and\n      0xffffffffffffffffffffffffffffffffffffffff\n      and\n      dup2\n      mstore\n      0x20\n      add\n      swap1\n      dup2\n      mstore\n      0x20\n      add\n      0x00\n      keccak256\n      sload\n        /* \"contracts/TokenFarm.sol\":4461:4511  uint256 pendingAmount = pendingRewards[msg.sender] */\n      swap1\n      pop\n        /* \"contracts/TokenFarm.sol\":4632:4633  0 */\n      0x00\n        /* \"contracts/TokenFarm.sol\":4616:4629  pendingAmount */\n      dup2\n        /* \"contracts/TokenFarm.sol\":4616:4633  pendingAmount > 0 */\n      gt\n        /* \"contracts/TokenFarm.sol\":4608:4656  require(pendingAmount > 0, \"No pending rewards\") */\n      tag_98\n      jumpi\n      mload(0x40)\n      0x08c379a000000000000000000000000000000000000000000000000000000000\n      dup2\n      mstore\n      0x04\n      add\n      tag_99\n      swap1\n      tag_100\n      jump\t// in\n    tag_99:\n      mload(0x40)\n      dup1\n      swap2\n      sub\n      swap1\n      revert\n    tag_98:\n        /* \"contracts/TokenFarm.sol\":4774:4775  0 */\n      0x00\n        /* \"contracts/TokenFarm.sol\":4745:4759  pendingRewards */\n      0x08\n        /* \"contracts/TokenFarm.sol\":4745:4771  pendingRewards[msg.sender] */\n      0x00\n        /* \"contracts/TokenFarm.sol\":4760:4770  msg.sender */\n      caller\n        /* \"contracts/TokenFarm.sol\":4745:4771  pendingRewards[msg.sender] */\n      0xffffffffffffffffffffffffffffffffffffffff\n      and\n      0xffffffffffffffffffffffffffffffffffffffff\n      and\n      dup2\n      mstore\n      0x20\n      add\n      swap1\n      dup2\n      mstore\n      0x20\n      add\n      0x00\n      keccak256\n        /* \"contracts/TokenFarm.sol\":4745:4775  pendingRewards[msg.sender] = 0 */\n      dup2\n      swap1\n      sstore\n      pop\n        /* \"contracts/TokenFarm.sol\":4920:4929  dappToken */\n      0x02\n      0x00\n      swap1\n      sload\n      swap1\n      0x0100\n      exp\n      swap1\n      div\n      0xffffffffffffffffffffffffffffffffffffffff\n      and\n        /* \"contracts/TokenFarm.sol\":4920:4934  dappToken.mint */\n      0xffffffffffffffffffffffffffffffffffffffff\n      and\n      0x40c10f19\n        /* \"contracts/TokenFarm.sol\":4935:4945  msg.sender */\n      caller\n        /* \"contracts/TokenFarm.sol\":4947:4960  pendingAmount */\n      dup4\n        /* \"contracts/TokenFarm.sol\":4920:4961  dappToken.mint(msg.sender, pendingAmount) */\n      mload(0x40)\n      dup4\n      0xffffffff\n      and\n      0xe0\n      shl\n      dup2\n      mstore\n      0x04\n      add\n      tag_101\n      swap3\n      swap2\n      swap1\n      tag_102\n      jump\t// in\n    tag_101:\n      0x00\n      mload(0x40)\n      dup1\n      dup4\n      sub\n      dup2\n      0x00\n      dup8\n      dup1\n      extcodesize\n      iszero\n      dup1\n      iszero\n      tag_103\n      jumpi\n      revert(0x00, 0x00)\n    tag_103:\n      pop\n      gas\n      call\n      iszero\n      dup1\n      iszero\n      tag_105\n      jumpi\n      returndatacopy(0x00, 0x00, returndatasize)\n      revert(0x00, returndatasize)\n    tag_105:\n      pop\n      pop\n      pop\n      pop\n        /* \"contracts/TokenFarm.sol\":5058:5068  msg.sender */\n      caller\n        /* \"contracts/TokenFarm.sol\":5043:5084  RewardsClaimed(msg.sender, pendingAmount) */\n      0xffffffffffffffffffffffffffffffffffffffff\n      and\n      0xfc30cddea38e2bf4d6ea7d3f9ed3b6ad7f176419f4963bd81318067a4aee73fe\n        /* \"contracts/TokenFarm.sol\":5070:5083  pendingAmount */\n      dup3\n        /* \"contracts/TokenFarm.sol\":5043:5084  RewardsClaimed(msg.sender, pendingAmount) */\n      mload(0x40)\n      tag_106\n      swap2\n      swap1\n      tag_33\n      jump\t// in\n    tag_106:\n      mload(0x40)\n      dup1\n      swap2\n      sub\n      swap1\n      log2\n        /* \"contracts/TokenFarm.sol\":4361:5092  {... */\n      pop\n        /* \"contracts/TokenFarm.sol\":4328:5092  function claimRewards() external {... */\n      jump\t// out\n        /* \"contracts/TokenFarm.sol\":3098:4256  function withdraw() external {... */\n    tag_37:\n        /* \"contracts/TokenFarm.sol\":3227:3236  isStaking */\n      0x0a\n        /* \"contracts/TokenFarm.sol\":3227:3248  isStaking[msg.sender] */\n      0x00\n        /* \"contracts/TokenFarm.sol\":3237:3247  msg.sender */\n      caller\n        /* \"contracts/TokenFarm.sol\":3227:3248  isStaking[msg.sender] */\n      0xffffffffffffffffffffffffffffffffffffffff\n      and\n      0xffffffffffffffffffffffffffffffffffffffff\n      and\n      dup2\n      mstore\n      0x20\n      add\n      swap1\n      dup2\n      mstore\n      0x20\n      add\n      0x00\n      keccak256\n      0x00\n      swap1\n      sload\n      swap1\n      0x0100\n      exp\n      swap1\n      div\n      0xff\n      and\n        /* \"contracts/TokenFarm.sol\":3219:3272  require(isStaking[msg.sender], \"User is not staking\") */\n      tag_108\n      jumpi\n      mload(0x40)\n      0x08c379a000000000000000000000000000000000000000000000000000000000\n      dup2\n      mstore\n      0x04\n      add\n      tag_109\n      swap1\n      tag_110\n      jump\t// in\n    tag_109:\n      mload(0x40)\n      dup1\n      swap2\n      sub\n      swap1\n      revert\n    tag_108:\n        /* \"contracts/TokenFarm.sol\":3348:3363  uint256 balance */\n      0x00\n        /* \"contracts/TokenFarm.sol\":3366:3380  stakingBalance */\n      0x06\n        /* \"contracts/TokenFarm.sol\":3366:3392  stakingBalance[msg.sender] */\n      0x00\n        /* \"contracts/TokenFarm.sol\":3381:3391  msg.sender */\n      caller\n        /* \"contracts/TokenFarm.sol\":3366:3392  stakingBalance[msg.sender] */\n      0xffffffffffffffffffffffffffffffffffffffff\n      and\n      0xffffffffffffffffffffffffffffffffffffffff\n      and\n      dup2\n      mstore\n      0x20\n      add\n      swap1\n      dup2\n      mstore\n      0x20\n      add\n      0x00\n      keccak256\n      sload\n        /* \"contracts/TokenFarm.sol\":3348:3392  uint256 balance = stakingBalance[msg.sender] */\n      swap1\n      pop\n        /* \"contracts/TokenFarm.sol\":3494:3495  0 */\n      0x00\n        /* \"contracts/TokenFarm.sol\":3484:3491  balance */\n      dup2\n        /* \"contracts/TokenFarm.sol\":3484:3495  balance > 0 */\n      gt\n        /* \"contracts/TokenFarm.sol\":3476:3520  require(balance > 0, \"Staking balance is 0\") */\n      tag_111\n      jumpi\n      mload(0x40)\n      0x08c379a000000000000000000000000000000000000000000000000000000000\n      dup2\n      mstore\n      0x04\n      add\n      tag_112\n      swap1\n      tag_113\n      jump\t// in\n    tag_112:\n      mload(0x40)\n      dup1\n      swap2\n      sub\n      swap1\n      revert\n    tag_111:\n        /* \"contracts/TokenFarm.sol\":3667:3696  distributeRewards(msg.sender) */\n      tag_114\n        /* \"contracts/TokenFarm.sol\":3685:3695  msg.sender */\n      caller\n        /* \"contracts/TokenFarm.sol\":3667:3684  distributeRewards */\n      tag_115\n        /* \"contracts/TokenFarm.sol\":3667:3696  distributeRewards(msg.sender) */\n      jump\t// in\n    tag_114:\n        /* \"contracts/TokenFarm.sol\":3802:3803  0 */\n      0x00\n        /* \"contracts/TokenFarm.sol\":3773:3787  stakingBalance */\n      0x06\n        /* \"contracts/TokenFarm.sol\":3773:3799  stakingBalance[msg.sender] */\n      0x00\n        /* \"contracts/TokenFarm.sol\":3788:3798  msg.sender */\n      caller\n        /* \"contracts/TokenFarm.sol\":3773:3799  stakingBalance[msg.sender] */\n      0xffffffffffffffffffffffffffffffffffffffff\n      and\n      0xffffffffffffffffffffffffffffffffffffffff\n      and\n      dup2\n      mstore\n      0x20\n      add\n      swap1\n      dup2\n      mstore\n      0x20\n      add\n      0x00\n      keccak256\n        /* \"contracts/TokenFarm.sol\":3773:3803  stakingBalance[msg.sender] = 0 */\n      dup2\n      swap1\n      sstore\n      pop\n        /* \"contracts/TokenFarm.sol\":3925:3932  balance */\n      dup1\n        /* \"contracts/TokenFarm.sol\":3902:3921  totalStakingBalance */\n      0x04\n      0x00\n        /* \"contracts/TokenFarm.sol\":3902:3932  totalStakingBalance -= balance */\n      dup3\n      dup3\n      sload\n      tag_116\n      swap2\n      swap1\n      tag_117\n      jump\t// in\n    tag_116:\n      swap3\n      pop\n      pop\n      dup2\n      swap1\n      sstore\n      pop\n        /* \"contracts/TokenFarm.sol\":4031:4036  false */\n      0x00\n        /* \"contracts/TokenFarm.sol\":4007:4016  isStaking */\n      0x0a\n        /* \"contracts/TokenFarm.sol\":4007:4028  isStaking[msg.sender] */\n      0x00\n        /* \"contracts/TokenFarm.sol\":4017:4027  msg.sender */\n      caller\n        /* \"contracts/TokenFarm.sol\":4007:4028  isStaking[msg.sender] */\n      0xffffffffffffffffffffffffffffffffffffffff\n      and\n      0xffffffffffffffffffffffffffffffffffffffff\n      and\n      dup2\n      mstore\n      0x20\n      add\n      swap1\n      dup2\n      mstore\n      0x20\n      add\n      0x00\n      keccak256\n      0x00\n        /* \"contracts/TokenFarm.sol\":4007:4036  isStaking[msg.sender] = false */\n      0x0100\n      exp\n      dup2\n      sload\n      dup2\n      0xff\n      mul\n      not\n      and\n      swap1\n      dup4\n      iszero\n      iszero\n      mul\n      or\n      swap1\n      sstore\n      pop\n        /* \"contracts/TokenFarm.sol\":4116:4123  lpToken */\n      0x03\n      0x00\n      swap1\n      sload\n      swap1\n      0x0100\n      exp\n      swap1\n      div\n      0xffffffffffffffffffffffffffffffffffffffff\n      and\n        /* \"contracts/TokenFarm.sol\":4116:4132  lpToken.transfer */\n      0xffffffffffffffffffffffffffffffffffffffff\n      and\n      0xa9059cbb\n        /* \"contracts/TokenFarm.sol\":4133:4143  msg.sender */\n      caller\n        /* \"contracts/TokenFarm.sol\":4145:4152  balance */\n      dup4\n        /* \"contracts/TokenFarm.sol\":4116:4153  lpToken.transfer(msg.sender, balance) */\n      mload(0x40)\n      dup4\n      0xffffffff\n      and\n      0xe0\n      shl\n      dup2\n      mstore\n      0x04\n      add\n      tag_118\n      swap3\n      swap2\n      swap1\n      tag_102\n      jump\t// in\n    tag_118:\n      0x20\n      mload(0x40)\n      dup1\n      dup4\n      sub\n      dup2\n      0x00\n      dup8\n      gas\n      call\n      iszero\n      dup1\n      iszero\n      tag_120\n      jumpi\n      returndatacopy(0x00, 0x00, returndatasize)\n      revert(0x00, returndatasize)\n    tag_120:\n      pop\n      pop\n      pop\n      pop\n      mload(0x40)\n      returndatasize\n      not(0x1f)\n      0x1f\n      dup3\n      add\n      and\n      dup3\n      add\n      dup1\n      0x40\n      mstore\n      pop\n      dup2\n      add\n      swap1\n      tag_121\n      swap2\n      swap1\n      tag_122\n      jump\t// in\n    tag_121:\n      pop\n        /* \"contracts/TokenFarm.sol\":4228:4238  msg.sender */\n      caller\n        /* \"contracts/TokenFarm.sol\":4219:4248  Withdraw(msg.sender, balance) */\n      0xffffffffffffffffffffffffffffffffffffffff\n      and\n      0x884edad9ce6fa2440d8a54cc123490eb96d2768479d49ff9c7366125a9424364\n        /* \"contracts/TokenFarm.sol\":4240:4247  balance */\n      dup3\n        /* \"contracts/TokenFarm.sol\":4219:4248  Withdraw(msg.sender, balance) */\n      mload(0x40)\n      tag_123\n      swap2\n      swap1\n      tag_33\n      jump\t// in\n    tag_123:\n      mload(0x40)\n      dup1\n      swap2\n      sub\n      swap1\n      log2\n        /* \"contracts/TokenFarm.sol\":3127:4256  {... */\n      pop\n        /* \"contracts/TokenFarm.sol\":3098:4256  function withdraw() external {... */\n      jump\t// out\n        /* \"contracts/TokenFarm.sol\":702:751  mapping(address => uint256) public stakingBalance */\n    tag_40:\n      mstore(0x20, 0x06)\n      dup1\n      0x00\n      mstore\n      keccak256(0x00, 0x40)\n      0x00\n      swap2\n      pop\n      swap1\n      pop\n      sload\n      dup2\n      jump\t// out\n        /* \"contracts/TokenFarm.sol\":7981:8080  function getStakersCount() external view returns (uint256) {... */\n    tag_43:\n        /* \"contracts/TokenFarm.sol\":8031:8038  uint256 */\n      0x00\n        /* \"contracts/TokenFarm.sol\":8058:8065  stakers */\n      0x05\n        /* \"contracts/TokenFarm.sol\":8058:8072  stakers.length */\n      dup1\n      sload\n      swap1\n      pop\n        /* \"contracts/TokenFarm.sol\":8051:8072  return stakers.length */\n      swap1\n      pop\n        /* \"contracts/TokenFarm.sol\":7981:8080  function getStakersCount() external view returns (uint256) {... */\n      swap1\n      jump\t// out\n        /* \"contracts/TokenFarm.sol\":415:441  DAppToken public dappToken */\n    tag_46:\n      0x02\n      0x00\n      swap1\n      sload\n      swap1\n      0x0100\n      exp\n      swap1\n      div\n      0xffffffffffffffffffffffffffffffffffffffff\n      and\n      dup2\n      jump\t// out\n        /* \"contracts/TokenFarm.sol\":448:470  LPToken public lpToken */\n    tag_50:\n      0x03\n      0x00\n      swap1\n      sload\n      swap1\n      0x0100\n      exp\n      swap1\n      div\n      0xffffffffffffffffffffffffffffffffffffffff\n      and\n      dup2\n      jump\t// out\n        /* \"contracts/TokenFarm.sol\":7559:7973  function getUserInfo(address user) external view returns (... */\n    tag_55:\n        /* \"contracts/TokenFarm.sol\":7627:7650  uint256 _stakingBalance */\n      0x00\n        /* \"contracts/TokenFarm.sol\":7661:7684  uint256 _pendingRewards */\n      0x00\n        /* \"contracts/TokenFarm.sol\":7695:7710  bool _hasStaked */\n      0x00\n        /* \"contracts/TokenFarm.sol\":7721:7736  bool _isStaking */\n      0x00\n        /* \"contracts/TokenFarm.sol\":7747:7766  uint256 _checkpoint */\n      0x00\n        /* \"contracts/TokenFarm.sol\":7807:7821  stakingBalance */\n      0x06\n        /* \"contracts/TokenFarm.sol\":7807:7827  stakingBalance[user] */\n      0x00\n        /* \"contracts/TokenFarm.sol\":7822:7826  user */\n      dup8\n        /* \"contracts/TokenFarm.sol\":7807:7827  stakingBalance[user] */\n      0xffffffffffffffffffffffffffffffffffffffff\n      and\n      0xffffffffffffffffffffffffffffffffffffffff\n      and\n      dup2\n      mstore\n      0x20\n      add\n      swap1\n      dup2\n      mstore\n      0x20\n      add\n      0x00\n      keccak256\n      sload\n        /* \"contracts/TokenFarm.sol\":7842:7856  pendingRewards */\n      0x08\n        /* \"contracts/TokenFarm.sol\":7842:7862  pendingRewards[user] */\n      0x00\n        /* \"contracts/TokenFarm.sol\":7857:7861  user */\n      dup9\n        /* \"contracts/TokenFarm.sol\":7842:7862  pendingRewards[user] */\n      0xffffffffffffffffffffffffffffffffffffffff\n      and\n      0xffffffffffffffffffffffffffffffffffffffff\n      and\n      dup2\n      mstore\n      0x20\n      add\n      swap1\n      dup2\n      mstore\n      0x20\n      add\n      0x00\n      keccak256\n      sload\n        /* \"contracts/TokenFarm.sol\":7877:7886  hasStaked */\n      0x09\n        /* \"contracts/TokenFarm.sol\":7877:7892  hasStaked[user] */\n      0x00\n        /* \"contracts/TokenFarm.sol\":7887:7891  user */\n      dup10\n        /* \"contracts/TokenFarm.sol\":7877:7892  hasStaked[user] */\n      0xffffffffffffffffffffffffffffffffffffffff\n      and\n      0xffffffffffffffffffffffffffffffffffffffff\n      and\n      dup2\n      mstore\n      0x20\n      add\n      swap1\n      dup2\n      mstore\n      0x20\n      add\n      0x00\n      keccak256\n      0x00\n      swap1\n      sload\n      swap1\n      0x0100\n      exp\n      swap1\n      div\n      0xff\n      and\n        /* \"contracts/TokenFarm.sol\":7907:7916  isStaking */\n      0x0a\n        /* \"contracts/TokenFarm.sol\":7907:7922  isStaking[user] */\n      0x00\n        /* \"contracts/TokenFarm.sol\":7917:7921  user */\n      dup11\n        /* \"contracts/TokenFarm.sol\":7907:7922  isStaking[user] */\n      0xffffffffffffffffffffffffffffffffffffffff\n      and\n      0xffffffffffffffffffffffffffffffffffffffff\n      and\n      dup2\n      mstore\n      0x20\n      add\n      swap1\n      dup2\n      mstore\n      0x20\n      add\n      0x00\n      keccak256\n      0x00\n      swap1\n      sload\n      swap1\n      0x0100\n      exp\n      swap1\n      div\n      0xff\n      and\n        /* \"contracts/TokenFarm.sol\":7937:7948  checkpoints */\n      0x07\n        /* \"contracts/TokenFarm.sol\":7937:7954  checkpoints[user] */\n      0x00\n        /* \"contracts/TokenFarm.sol\":7949:7953  user */\n      dup12\n        /* \"contracts/TokenFarm.sol\":7937:7954  checkpoints[user] */\n      0xffffffffffffffffffffffffffffffffffffffff\n      and\n      0xffffffffffffffffffffffffffffffffffffffff\n      and\n      dup2\n      mstore\n      0x20\n      add\n      swap1\n      dup2\n      mstore\n      0x20\n      add\n      0x00\n      keccak256\n      sload\n        /* \"contracts/TokenFarm.sol\":7785:7965  return (... */\n      swap5\n      pop\n      swap5\n      pop\n      swap5\n      pop\n      swap5\n      pop\n      swap5\n      pop\n        /* \"contracts/TokenFarm.sol\":7559:7973  function getUserInfo(address user) external view returns (... */\n      swap2\n      swap4\n      swap6\n      swap1\n      swap3\n      swap5\n      pop\n      jump\t// out\n        /* \"contracts/TokenFarm.sol\":915:956  mapping(address => bool) public isStaking */\n    tag_60:\n      mstore(0x20, 0x0a)\n      dup1\n      0x00\n      mstore\n      keccak256(0x00, 0x40)\n      0x00\n      swap2\n      pop\n      sload\n      swap1\n      0x0100\n      exp\n      swap1\n      div\n      0xff\n      and\n      dup2\n      jump\t// out\n        /* \"contracts/TokenFarm.sol\":388:408  address public owner */\n    tag_64:\n      0x01\n      0x00\n      swap1\n      sload\n      swap1\n      0x0100\n      exp\n      swap1\n      div\n      0xffffffffffffffffffffffffffffffffffffffff\n      and\n      dup2\n      jump\t// out\n        /* \"contracts/TokenFarm.sol\":483:530  uint256 public constant REWARD_PER_BLOCK = 1e18 */\n    tag_68:\n        /* \"contracts/TokenFarm.sol\":526:530  1e18 */\n      0x0de0b6b3a7640000\n        /* \"contracts/TokenFarm.sol\":483:530  uint256 public constant REWARD_PER_BLOCK = 1e18 */\n      dup2\n      jump\t// out\n        /* \"contracts/TokenFarm.sol\":1657:3019  function deposit(uint256 _amount) external {... */\n    tag_73:\n        /* \"contracts/TokenFarm.sol\":1778:1779  0 */\n      0x00\n        /* \"contracts/TokenFarm.sol\":1768:1775  _amount */\n      dup2\n        /* \"contracts/TokenFarm.sol\":1768:1779  _amount > 0 */\n      gt\n        /* \"contracts/TokenFarm.sol\":1760:1813  require(_amount > 0, \"Amount must be greater than 0\") */\n      tag_127\n      jumpi\n      mload(0x40)\n      0x08c379a000000000000000000000000000000000000000000000000000000000\n      dup2\n      mstore\n      0x04\n      add\n      tag_128\n      swap1\n      tag_129\n      jump\t// in\n    tag_128:\n      mload(0x40)\n      dup1\n      swap2\n      sub\n      swap1\n      revert\n    tag_127:\n        /* \"contracts/TokenFarm.sol\":1896:1903  lpToken */\n      0x03\n      0x00\n      swap1\n      sload\n      swap1\n      0x0100\n      exp\n      swap1\n      div\n      0xffffffffffffffffffffffffffffffffffffffff\n      and\n        /* \"contracts/TokenFarm.sol\":1896:1916  lpToken.transferFrom */\n      0xffffffffffffffffffffffffffffffffffffffff\n      and\n      0x23b872dd\n        /* \"contracts/TokenFarm.sol\":1917:1927  msg.sender */\n      caller\n        /* \"contracts/TokenFarm.sol\":1937:1941  this */\n      address\n        /* \"contracts/TokenFarm.sol\":1944:1951  _amount */\n      dup5\n        /* \"contracts/TokenFarm.sol\":1896:1952  lpToken.transferFrom(msg.sender, address(this), _amount) */\n      mload(0x40)\n      dup5\n      0xffffffff\n      and\n      0xe0\n      shl\n      dup2\n      mstore\n      0x04\n      add\n      tag_130\n      swap4\n      swap3\n      swap2\n      swap1\n      tag_131\n      jump\t// in\n    tag_130:\n      0x20\n      mload(0x40)\n      dup1\n      dup4\n      sub\n      dup2\n      0x00\n      dup8\n      gas\n      call\n      iszero\n      dup1\n      iszero\n      tag_133\n      jumpi\n      returndatacopy(0x00, 0x00, returndatasize)\n      revert(0x00, returndatasize)\n    tag_133:\n      pop\n      pop\n      pop\n      pop\n      mload(0x40)\n      returndatasize\n      not(0x1f)\n      0x1f\n      dup3\n      add\n      and\n      dup3\n      add\n      dup1\n      0x40\n      mstore\n      pop\n      dup2\n      add\n      swap1\n      tag_134\n      swap2\n      swap1\n      tag_122\n      jump\t// in\n    tag_134:\n      pop\n        /* \"contracts/TokenFarm.sol\":2079:2086  _amount */\n      dup1\n        /* \"contracts/TokenFarm.sol\":2049:2063  stakingBalance */\n      0x06\n        /* \"contracts/TokenFarm.sol\":2049:2075  stakingBalance[msg.sender] */\n      0x00\n        /* \"contracts/TokenFarm.sol\":2064:2074  msg.sender */\n      caller\n        /* \"contracts/TokenFarm.sol\":2049:2075  stakingBalance[msg.sender] */\n      0xffffffffffffffffffffffffffffffffffffffff\n      and\n      0xffffffffffffffffffffffffffffffffffffffff\n      and\n      dup2\n      mstore\n      0x20\n      add\n      swap1\n      dup2\n      mstore\n      0x20\n      add\n      0x00\n      keccak256\n      0x00\n        /* \"contracts/TokenFarm.sol\":2049:2086  stakingBalance[msg.sender] += _amount */\n      dup3\n      dup3\n      sload\n      tag_135\n      swap2\n      swap1\n      tag_136\n      jump\t// in\n    tag_135:\n      swap3\n      pop\n      pop\n      dup2\n      swap1\n      sstore\n      pop\n        /* \"contracts/TokenFarm.sol\":2187:2194  _amount */\n      dup1\n        /* \"contracts/TokenFarm.sol\":2164:2183  totalStakingBalance */\n      0x04\n      0x00\n        /* \"contracts/TokenFarm.sol\":2164:2194  totalStakingBalance += _amount */\n      dup3\n      dup3\n      sload\n      tag_137\n      swap2\n      swap1\n      tag_136\n      jump\t// in\n    tag_137:\n      swap3\n      pop\n      pop\n      dup2\n      swap1\n      sstore\n      pop\n        /* \"contracts/TokenFarm.sol\":2333:2342  hasStaked */\n      0x09\n        /* \"contracts/TokenFarm.sol\":2333:2354  hasStaked[msg.sender] */\n      0x00\n        /* \"contracts/TokenFarm.sol\":2343:2353  msg.sender */\n      caller\n        /* \"contracts/TokenFarm.sol\":2333:2354  hasStaked[msg.sender] */\n      0xffffffffffffffffffffffffffffffffffffffff\n      and\n      0xffffffffffffffffffffffffffffffffffffffff\n      and\n      dup2\n      mstore\n      0x20\n      add\n      swap1\n      dup2\n      mstore\n      0x20\n      add\n      0x00\n      keccak256\n      0x00\n      swap1\n      sload\n      swap1\n      0x0100\n      exp\n      swap1\n      div\n      0xff\n      and\n        /* \"contracts/TokenFarm.sol\":2328:2450  if (!hasStaked[msg.sender]) {... */\n      tag_138\n      jumpi\n        /* \"contracts/TokenFarm.sol\":2371:2378  stakers */\n      0x05\n        /* \"contracts/TokenFarm.sol\":2384:2394  msg.sender */\n      caller\n        /* \"contracts/TokenFarm.sol\":2371:2395  stakers.push(msg.sender) */\n      swap1\n      dup1\n      0x01\n      dup2\n      sload\n      add\n      dup1\n      dup3\n      sstore\n      dup1\n      swap2\n      pop\n      pop\n      0x01\n      swap1\n      sub\n      swap1\n      0x00\n      mstore\n      keccak256(0x00, 0x20)\n      add\n      0x00\n      swap1\n      swap2\n      swap1\n      swap2\n      swap1\n      swap2\n      0x0100\n      exp\n      dup2\n      sload\n      dup2\n      0xffffffffffffffffffffffffffffffffffffffff\n      mul\n      not\n      and\n      swap1\n      dup4\n      0xffffffffffffffffffffffffffffffffffffffff\n      and\n      mul\n      or\n      swap1\n      sstore\n      pop\n        /* \"contracts/TokenFarm.sol\":2434:2438  true */\n      0x01\n        /* \"contracts/TokenFarm.sol\":2410:2419  hasStaked */\n      0x09\n        /* \"contracts/TokenFarm.sol\":2410:2431  hasStaked[msg.sender] */\n      0x00\n        /* \"contracts/TokenFarm.sol\":2420:2430  msg.sender */\n      caller\n        /* \"contracts/TokenFarm.sol\":2410:2431  hasStaked[msg.sender] */\n      0xffffffffffffffffffffffffffffffffffffffff\n      and\n      0xffffffffffffffffffffffffffffffffffffffff\n      and\n      dup2\n      mstore\n      0x20\n      add\n      swap1\n      dup2\n      mstore\n      0x20\n      add\n      0x00\n      keccak256\n      0x00\n        /* \"contracts/TokenFarm.sol\":2410:2438  hasStaked[msg.sender] = true */\n      0x0100\n      exp\n      dup2\n      sload\n      dup2\n      0xff\n      mul\n      not\n      and\n      swap1\n      dup4\n      iszero\n      iszero\n      mul\n      or\n      swap1\n      sstore\n      pop\n        /* \"contracts/TokenFarm.sol\":2328:2450  if (!hasStaked[msg.sender]) {... */\n    tag_138:\n        /* \"contracts/TokenFarm.sol\":2547:2551  true */\n      0x01\n        /* \"contracts/TokenFarm.sol\":2523:2532  isStaking */\n      0x0a\n        /* \"contracts/TokenFarm.sol\":2523:2544  isStaking[msg.sender] */\n      0x00\n        /* \"contracts/TokenFarm.sol\":2533:2543  msg.sender */\n      caller\n        /* \"contracts/TokenFarm.sol\":2523:2544  isStaking[msg.sender] */\n      0xffffffffffffffffffffffffffffffffffffffff\n      and\n      0xffffffffffffffffffffffffffffffffffffffff\n      and\n      dup2\n      mstore\n      0x20\n      add\n      swap1\n      dup2\n      mstore\n      0x20\n      add\n      0x00\n      keccak256\n      0x00\n        /* \"contracts/TokenFarm.sol\":2523:2551  isStaking[msg.sender] = true */\n      0x0100\n      exp\n      dup2\n      sload\n      dup2\n      0xff\n      mul\n      not\n      and\n      swap1\n      dup4\n      iszero\n      iszero\n      mul\n      or\n      swap1\n      sstore\n      pop\n        /* \"contracts/TokenFarm.sol\":2703:2704  0 */\n      0x00\n        /* \"contracts/TokenFarm.sol\":2676:2687  checkpoints */\n      0x07\n        /* \"contracts/TokenFarm.sol\":2676:2699  checkpoints[msg.sender] */\n      0x00\n        /* \"contracts/TokenFarm.sol\":2688:2698  msg.sender */\n      caller\n        /* \"contracts/TokenFarm.sol\":2676:2699  checkpoints[msg.sender] */\n      0xffffffffffffffffffffffffffffffffffffffff\n      and\n      0xffffffffffffffffffffffffffffffffffffffff\n      and\n      dup2\n      mstore\n      0x20\n      add\n      swap1\n      dup2\n      mstore\n      0x20\n      add\n      0x00\n      keccak256\n      sload\n        /* \"contracts/TokenFarm.sol\":2676:2704  checkpoints[msg.sender] == 0 */\n      sub\n        /* \"contracts/TokenFarm.sol\":2672:2771  if (checkpoints[msg.sender] == 0) {... */\n      tag_140\n      jumpi\n        /* \"contracts/TokenFarm.sol\":2747:2759  block.number */\n      number\n        /* \"contracts/TokenFarm.sol\":2721:2732  checkpoints */\n      0x07\n        /* \"contracts/TokenFarm.sol\":2721:2744  checkpoints[msg.sender] */\n      0x00\n        /* \"contracts/TokenFarm.sol\":2733:2743  msg.sender */\n      caller\n        /* \"contracts/TokenFarm.sol\":2721:2744  checkpoints[msg.sender] */\n      0xffffffffffffffffffffffffffffffffffffffff\n      and\n      0xffffffffffffffffffffffffffffffffffffffff\n      and\n      dup2\n      mstore\n      0x20\n      add\n      swap1\n      dup2\n      mstore\n      0x20\n      add\n      0x00\n      keccak256\n        /* \"contracts/TokenFarm.sol\":2721:2759  checkpoints[msg.sender] = block.number */\n      dup2\n      swap1\n      sstore\n      pop\n        /* \"contracts/TokenFarm.sol\":2672:2771  if (checkpoints[msg.sender] == 0) {... */\n    tag_140:\n        /* \"contracts/TokenFarm.sol\":2885:2914  distributeRewards(msg.sender) */\n      tag_141\n        /* \"contracts/TokenFarm.sol\":2903:2913  msg.sender */\n      caller\n        /* \"contracts/TokenFarm.sol\":2885:2902  distributeRewards */\n      tag_115\n        /* \"contracts/TokenFarm.sol\":2885:2914  distributeRewards(msg.sender) */\n      jump\t// in\n    tag_141:\n        /* \"contracts/TokenFarm.sol\":2991:3001  msg.sender */\n      caller\n        /* \"contracts/TokenFarm.sol\":2983:3011  Deposit(msg.sender, _amount) */\n      0xffffffffffffffffffffffffffffffffffffffff\n      and\n      0xe1fffcc4923d04b559f4d29a8bfc6cda04eb5b0d3c460751c2402c5c5cc9109c\n        /* \"contracts/TokenFarm.sol\":3003:3010  _amount */\n      dup3\n        /* \"contracts/TokenFarm.sol\":2983:3011  Deposit(msg.sender, _amount) */\n      mload(0x40)\n      tag_142\n      swap2\n      swap1\n      tag_33\n      jump\t// in\n    tag_142:\n      mload(0x40)\n      dup1\n      swap2\n      sub\n      swap1\n      log2\n        /* \"contracts/TokenFarm.sol\":1657:3019  function deposit(uint256 _amount) external {... */\n      pop\n      jump\t// out\n        /* \"contracts/TokenFarm.sol\":867:908  mapping(address => bool) public hasStaked */\n    tag_76:\n      mstore(0x20, 0x09)\n      dup1\n      0x00\n      mstore\n      keccak256(0x00, 0x40)\n      0x00\n      swap2\n      pop\n      sload\n      swap1\n      0x0100\n      exp\n      swap1\n      div\n      0xff\n      and\n      dup2\n      jump\t// out\n        /* \"contracts/TokenFarm.sol\":5188:5921  function distributeRewardsAll() external {... */\n    tag_79:\n        /* \"contracts/TokenFarm.sol\":5327:5332  owner */\n      0x01\n      0x00\n      swap1\n      sload\n      swap1\n      0x0100\n      exp\n      swap1\n      div\n      0xffffffffffffffffffffffffffffffffffffffff\n      and\n        /* \"contracts/TokenFarm.sol\":5313:5332  msg.sender == owner */\n      0xffffffffffffffffffffffffffffffffffffffff\n      and\n        /* \"contracts/TokenFarm.sol\":5313:5323  msg.sender */\n      caller\n        /* \"contracts/TokenFarm.sol\":5313:5332  msg.sender == owner */\n      0xffffffffffffffffffffffffffffffffffffffff\n      and\n      eq\n        /* \"contracts/TokenFarm.sol\":5305:5370  require(msg.sender == owner, \"Only owner can call this function\") */\n      tag_144\n      jumpi\n      mload(0x40)\n      0x08c379a000000000000000000000000000000000000000000000000000000000\n      dup2\n      mstore\n      0x04\n      add\n      tag_145\n      swap1\n      tag_146\n      jump\t// in\n    tag_145:\n      mload(0x40)\n      dup1\n      swap2\n      sub\n      swap1\n      revert\n    tag_144:\n        /* \"contracts/TokenFarm.sol\":5484:5493  uint256 i */\n      0x00\n        /* \"contracts/TokenFarm.sol\":5496:5497  0 */\n      0x00\n        /* \"contracts/TokenFarm.sol\":5484:5497  uint256 i = 0 */\n      swap1\n      pop\n        /* \"contracts/TokenFarm.sol\":5479:5786  for (uint256 i = 0; i < stakers.length; i++) {... */\n    tag_147:\n        /* \"contracts/TokenFarm.sol\":5503:5510  stakers */\n      0x05\n        /* \"contracts/TokenFarm.sol\":5503:5517  stakers.length */\n      dup1\n      sload\n      swap1\n      pop\n        /* \"contracts/TokenFarm.sol\":5499:5500  i */\n      dup2\n        /* \"contracts/TokenFarm.sol\":5499:5517  i < stakers.length */\n      lt\n        /* \"contracts/TokenFarm.sol\":5479:5786  for (uint256 i = 0; i < stakers.length; i++) {... */\n      iszero\n      tag_148\n      jumpi\n        /* \"contracts/TokenFarm.sol\":5539:5553  address staker */\n      0x00\n        /* \"contracts/TokenFarm.sol\":5556:5563  stakers */\n      0x05\n        /* \"contracts/TokenFarm.sol\":5564:5565  i */\n      dup3\n        /* \"contracts/TokenFarm.sol\":5556:5566  stakers[i] */\n      dup2\n      sload\n      dup2\n      lt\n      tag_150\n      jumpi\n      tag_151\n      tag_152\n      jump\t// in\n    tag_151:\n    tag_150:\n      swap1\n      0x00\n      mstore\n      keccak256(0x00, 0x20)\n      add\n      0x00\n      swap1\n      sload\n      swap1\n      0x0100\n      exp\n      swap1\n      div\n      0xffffffffffffffffffffffffffffffffffffffff\n      and\n        /* \"contracts/TokenFarm.sol\":5539:5566  address staker = stakers[i] */\n      swap1\n      pop\n        /* \"contracts/TokenFarm.sol\":5696:5705  isStaking */\n      0x0a\n        /* \"contracts/TokenFarm.sol\":5696:5713  isStaking[staker] */\n      0x00\n        /* \"contracts/TokenFarm.sol\":5706:5712  staker */\n      dup3\n        /* \"contracts/TokenFarm.sol\":5696:5713  isStaking[staker] */\n      0xffffffffffffffffffffffffffffffffffffffff\n      and\n      0xffffffffffffffffffffffffffffffffffffffff\n      and\n      dup2\n      mstore\n      0x20\n      add\n      swap1\n      dup2\n      mstore\n      0x20\n      add\n      0x00\n      keccak256\n      0x00\n      swap1\n      sload\n      swap1\n      0x0100\n      exp\n      swap1\n      div\n      0xff\n      and\n        /* \"contracts/TokenFarm.sol\":5692:5775  if (isStaking[staker]) {... */\n      iszero\n      tag_154\n      jumpi\n        /* \"contracts/TokenFarm.sol\":5734:5759  distributeRewards(staker) */\n      tag_155\n        /* \"contracts/TokenFarm.sol\":5752:5758  staker */\n      dup2\n        /* \"contracts/TokenFarm.sol\":5734:5751  distributeRewards */\n      tag_115\n        /* \"contracts/TokenFarm.sol\":5734:5759  distributeRewards(staker) */\n      jump\t// in\n    tag_155:\n        /* \"contracts/TokenFarm.sol\":5692:5775  if (isStaking[staker]) {... */\n    tag_154:\n        /* \"contracts/TokenFarm.sol\":5524:5786  {... */\n      pop\n        /* \"contracts/TokenFarm.sol\":5519:5522  i++ */\n      dup1\n      dup1\n      0x01\n      add\n      swap2\n      pop\n      pop\n        /* \"contracts/TokenFarm.sol\":5479:5786  for (uint256 i = 0; i < stakers.length; i++) {... */\n      jump(tag_147)\n    tag_148:\n      pop\n        /* \"contracts/TokenFarm.sol\":5893:5913  RewardsDistributed() */\n      0xefea7889cd26c56b4174d211c6b03e98a905c56c27fbd926d308e082727de59d\n      mload(0x40)\n      mload(0x40)\n      dup1\n      swap2\n      sub\n      swap1\n      log1\n        /* \"contracts/TokenFarm.sol\":5188:5921  function distributeRewardsAll() external {... */\n      jump\t// out\n        /* \"contracts/TokenFarm.sol\":758:804  mapping(address => uint256) public checkpoints */\n    tag_82:\n      mstore(0x20, 0x07)\n      dup1\n      0x00\n      mstore\n      keccak256(0x00, 0x40)\n      0x00\n      swap2\n      pop\n      swap1\n      pop\n      sload\n      dup2\n      jump\t// out\n        /* \"contracts/TokenFarm.sol\":594:628  uint256 public totalStakingBalance */\n    tag_85:\n      sload(0x04)\n      dup2\n      jump\t// out\n        /* \"contracts/TokenFarm.sol\":665:689  address[] public stakers */\n    tag_89:\n      0x05\n      dup2\n      dup2\n      sload\n      dup2\n      lt\n      tag_156\n      jumpi\n      0x00\n      dup1\n      revert\n    tag_156:\n      swap1\n      0x00\n      mstore\n      keccak256(0x00, 0x20)\n      add\n      0x00\n      swap2\n      pop\n      sload\n      swap1\n      0x0100\n      exp\n      swap1\n      div\n      0xffffffffffffffffffffffffffffffffffffffff\n      and\n      dup2\n      jump\t// out\n        /* \"contracts/TokenFarm.sol\":5929:7498  function distributeRewards(address beneficiary) private {... */\n    tag_115:\n        /* \"contracts/TokenFarm.sol\":6069:6091  uint256 lastCheckpoint */\n      0x00\n        /* \"contracts/TokenFarm.sol\":6094:6105  checkpoints */\n      0x07\n        /* \"contracts/TokenFarm.sol\":6094:6118  checkpoints[beneficiary] */\n      0x00\n        /* \"contracts/TokenFarm.sol\":6106:6117  beneficiary */\n      dup4\n        /* \"contracts/TokenFarm.sol\":6094:6118  checkpoints[beneficiary] */\n      0xffffffffffffffffffffffffffffffffffffffff\n      and\n      0xffffffffffffffffffffffffffffffffffffffff\n      and\n      dup2\n      mstore\n      0x20\n      add\n      swap1\n      dup2\n      mstore\n      0x20\n      add\n      0x00\n      keccak256\n      sload\n        /* \"contracts/TokenFarm.sol\":6069:6118  uint256 lastCheckpoint = checkpoints[beneficiary] */\n      swap1\n      pop\n        /* \"contracts/TokenFarm.sol\":6278:6292  lastCheckpoint */\n      dup1\n        /* \"contracts/TokenFarm.sol\":6262:6274  block.number */\n      number\n        /* \"contracts/TokenFarm.sol\":6262:6292  block.number <= lastCheckpoint */\n      gt\n      iszero\n        /* \"contracts/TokenFarm.sol\":6262:6320  block.number <= lastCheckpoint || totalStakingBalance == 0 */\n      dup1\n      tag_159\n      jumpi\n      pop\n        /* \"contracts/TokenFarm.sol\":6319:6320  0 */\n      0x00\n        /* \"contracts/TokenFarm.sol\":6296:6315  totalStakingBalance */\n      sload(0x04)\n        /* \"contracts/TokenFarm.sol\":6296:6320  totalStakingBalance == 0 */\n      eq\n        /* \"contracts/TokenFarm.sol\":6262:6320  block.number <= lastCheckpoint || totalStakingBalance == 0 */\n    tag_159:\n        /* \"contracts/TokenFarm.sol\":6258:6355  if (block.number <= lastCheckpoint || totalStakingBalance == 0) {... */\n      iszero\n      tag_160\n      jumpi\n        /* \"contracts/TokenFarm.sol\":6337:6344  return; */\n      pop\n      jump(tag_158)\n        /* \"contracts/TokenFarm.sol\":6258:6355  if (block.number <= lastCheckpoint || totalStakingBalance == 0) {... */\n    tag_160:\n        /* \"contracts/TokenFarm.sol\":6462:6482  uint256 blocksPassed */\n      0x00\n        /* \"contracts/TokenFarm.sol\":6500:6514  lastCheckpoint */\n      dup2\n        /* \"contracts/TokenFarm.sol\":6485:6497  block.number */\n      number\n        /* \"contracts/TokenFarm.sol\":6485:6514  block.number - lastCheckpoint */\n      tag_161\n      swap2\n      swap1\n      tag_117\n      jump\t// in\n    tag_161:\n        /* \"contracts/TokenFarm.sol\":6462:6514  uint256 blocksPassed = block.number - lastCheckpoint */\n      swap1\n      pop\n        /* \"contracts/TokenFarm.sol\":6678:6695  uint256 userStake */\n      0x00\n        /* \"contracts/TokenFarm.sol\":6698:6712  stakingBalance */\n      0x06\n        /* \"contracts/TokenFarm.sol\":6698:6725  stakingBalance[beneficiary] */\n      0x00\n        /* \"contracts/TokenFarm.sol\":6713:6724  beneficiary */\n      dup6\n        /* \"contracts/TokenFarm.sol\":6698:6725  stakingBalance[beneficiary] */\n      0xffffffffffffffffffffffffffffffffffffffff\n      and\n      0xffffffffffffffffffffffffffffffffffffffff\n      and\n      dup2\n      mstore\n      0x20\n      add\n      swap1\n      dup2\n      mstore\n      0x20\n      add\n      0x00\n      keccak256\n      sload\n        /* \"contracts/TokenFarm.sol\":6678:6725  uint256 userStake = stakingBalance[beneficiary] */\n      swap1\n      pop\n        /* \"contracts/TokenFarm.sol\":6753:6754  0 */\n      0x00\n        /* \"contracts/TokenFarm.sol\":6740:6749  userStake */\n      dup2\n        /* \"contracts/TokenFarm.sol\":6740:6754  userStake == 0 */\n      sub\n        /* \"contracts/TokenFarm.sol\":6736:6843  if (userStake == 0) {... */\n      tag_162\n      jumpi\n        /* \"contracts/TokenFarm.sol\":6798:6810  block.number */\n      number\n        /* \"contracts/TokenFarm.sol\":6771:6782  checkpoints */\n      0x07\n        /* \"contracts/TokenFarm.sol\":6771:6795  checkpoints[beneficiary] */\n      0x00\n        /* \"contracts/TokenFarm.sol\":6783:6794  beneficiary */\n      dup7\n        /* \"contracts/TokenFarm.sol\":6771:6795  checkpoints[beneficiary] */\n      0xffffffffffffffffffffffffffffffffffffffff\n      and\n      0xffffffffffffffffffffffffffffffffffffffff\n      and\n      dup2\n      mstore\n      0x20\n      add\n      swap1\n      dup2\n      mstore\n      0x20\n      add\n      0x00\n      keccak256\n        /* \"contracts/TokenFarm.sol\":6771:6810  checkpoints[beneficiary] = block.number */\n      dup2\n      swap1\n      sstore\n      pop\n        /* \"contracts/TokenFarm.sol\":6825:6832  return; */\n      pop\n      pop\n      pop\n      jump(tag_158)\n        /* \"contracts/TokenFarm.sol\":6736:6843  if (userStake == 0) {... */\n    tag_162:\n        /* \"contracts/TokenFarm.sol\":6952:6965  uint256 share */\n      0x00\n        /* \"contracts/TokenFarm.sol\":6989:7008  totalStakingBalance */\n      sload(0x04)\n        /* \"contracts/TokenFarm.sol\":6981:6985  1e18 */\n      0x0de0b6b3a7640000\n        /* \"contracts/TokenFarm.sol\":6969:6978  userStake */\n      dup4\n        /* \"contracts/TokenFarm.sol\":6969:6985  userStake * 1e18 */\n      tag_163\n      swap2\n      swap1\n      tag_164\n      jump\t// in\n    tag_163:\n        /* \"contracts/TokenFarm.sol\":6968:7008  (userStake * 1e18) / totalStakingBalance */\n      tag_165\n      swap2\n      swap1\n      tag_166\n      jump\t// in\n    tag_165:\n        /* \"contracts/TokenFarm.sol\":6952:7008  uint256 share = (userStake * 1e18) / totalStakingBalance */\n      swap1\n      pop\n        /* \"contracts/TokenFarm.sol\":7157:7172  uint256 rewards */\n      0x00\n        /* \"contracts/TokenFarm.sol\":7219:7223  1e18 */\n      0x0de0b6b3a7640000\n        /* \"contracts/TokenFarm.sol\":7210:7215  share */\n      dup3\n        /* \"contracts/TokenFarm.sol\":7195:7207  blocksPassed */\n      dup6\n        /* \"contracts/TokenFarm.sol\":526:530  1e18 */\n      0x0de0b6b3a7640000\n        /* \"contracts/TokenFarm.sol\":7176:7207  REWARD_PER_BLOCK * blocksPassed */\n      tag_167\n      swap2\n      swap1\n      tag_164\n      jump\t// in\n    tag_167:\n        /* \"contracts/TokenFarm.sol\":7176:7215  REWARD_PER_BLOCK * blocksPassed * share */\n      tag_168\n      swap2\n      swap1\n      tag_164\n      jump\t// in\n    tag_168:\n        /* \"contracts/TokenFarm.sol\":7175:7223  (REWARD_PER_BLOCK * blocksPassed * share) / 1e18 */\n      tag_169\n      swap2\n      swap1\n      tag_166\n      jump\t// in\n    tag_169:\n        /* \"contracts/TokenFarm.sol\":7157:7223  uint256 rewards = (REWARD_PER_BLOCK * blocksPassed * share) / 1e18 */\n      swap1\n      pop\n        /* \"contracts/TokenFarm.sol\":7356:7363  rewards */\n      dup1\n        /* \"contracts/TokenFarm.sol\":7325:7339  pendingRewards */\n      0x08\n        /* \"contracts/TokenFarm.sol\":7325:7352  pendingRewards[beneficiary] */\n      0x00\n        /* \"contracts/TokenFarm.sol\":7340:7351  beneficiary */\n      dup9\n        /* \"contracts/TokenFarm.sol\":7325:7352  pendingRewards[beneficiary] */\n      0xffffffffffffffffffffffffffffffffffffffff\n      and\n      0xffffffffffffffffffffffffffffffffffffffff\n      and\n      dup2\n      mstore\n      0x20\n      add\n      swap1\n      dup2\n      mstore\n      0x20\n      add\n      0x00\n      keccak256\n      0x00\n        /* \"contracts/TokenFarm.sol\":7325:7363  pendingRewards[beneficiary] += rewards */\n      dup3\n      dup3\n      sload\n      tag_170\n      swap2\n      swap1\n      tag_136\n      jump\t// in\n    tag_170:\n      swap3\n      pop\n      pop\n      dup2\n      swap1\n      sstore\n      pop\n        /* \"contracts/TokenFarm.sol\":7478:7490  block.number */\n      number\n        /* \"contracts/TokenFarm.sol\":7451:7462  checkpoints */\n      0x07\n        /* \"contracts/TokenFarm.sol\":7451:7475  checkpoints[beneficiary] */\n      0x00\n        /* \"contracts/TokenFarm.sol\":7463:7474  beneficiary */\n      dup9\n        /* \"contracts/TokenFarm.sol\":7451:7475  checkpoints[beneficiary] */\n      0xffffffffffffffffffffffffffffffffffffffff\n      and\n      0xffffffffffffffffffffffffffffffffffffffff\n      and\n      dup2\n      mstore\n      0x20\n      add\n      swap1\n      dup2\n      mstore\n      0x20\n      add\n      0x00\n      keccak256\n        /* \"contracts/TokenFarm.sol\":7451:7490  checkpoints[beneficiary] = block.number */\n      dup2\n      swap1\n      sstore\n      pop\n        /* \"contracts/TokenFarm.sol\":5985:7498  {... */\n      pop\n      pop\n      pop\n      pop\n      pop\n        /* \"contracts/TokenFarm.sol\":5929:7498  function distributeRewards(address beneficiary) private {... */\n    tag_158:\n      pop\n      jump\t// out\n        /* \"#utility.yul\":7:106   */\n    tag_171:\n        /* \"#utility.yul\":59:65   */\n      0x00\n        /* \"#utility.yul\":93:98   */\n      dup2\n        /* \"#utility.yul\":87:99   */\n      mload\n        /* \"#utility.yul\":77:99   */\n      swap1\n      pop\n        /* \"#utility.yul\":7:106   */\n      swap2\n      swap1\n      pop\n      jump\t// out\n        /* \"#utility.yul\":112:281   */\n    tag_172:\n        /* \"#utility.yul\":196:207   */\n      0x00\n        /* \"#utility.yul\":230:236   */\n      dup3\n        /* \"#utility.yul\":225:228   */\n      dup3\n        /* \"#utility.yul\":218:237   */\n      mstore\n        /* \"#utility.yul\":270:274   */\n      0x20\n        /* \"#utility.yul\":265:268   */\n      dup3\n        /* \"#utility.yul\":261:275   */\n      add\n        /* \"#utility.yul\":246:275   */\n      swap1\n      pop\n        /* \"#utility.yul\":112:281   */\n      swap3\n      swap2\n      pop\n      pop\n      jump\t// out\n        /* \"#utility.yul\":287:426   */\n    tag_173:\n        /* \"#utility.yul\":376:382   */\n      dup3\n        /* \"#utility.yul\":371:374   */\n      dup2\n        /* \"#utility.yul\":366:369   */\n      dup4\n        /* \"#utility.yul\":360:383   */\n      mcopy\n        /* \"#utility.yul\":417:418   */\n      0x00\n        /* \"#utility.yul\":408:414   */\n      dup4\n        /* \"#utility.yul\":403:406   */\n      dup4\n        /* \"#utility.yul\":399:415   */\n      add\n        /* \"#utility.yul\":392:419   */\n      mstore\n        /* \"#utility.yul\":287:426   */\n      pop\n      pop\n      pop\n      jump\t// out\n        /* \"#utility.yul\":432:534   */\n    tag_174:\n        /* \"#utility.yul\":473:479   */\n      0x00\n        /* \"#utility.yul\":524:526   */\n      0x1f\n        /* \"#utility.yul\":520:527   */\n      not\n        /* \"#utility.yul\":515:517   */\n      0x1f\n        /* \"#utility.yul\":508:513   */\n      dup4\n        /* \"#utility.yul\":504:518   */\n      add\n        /* \"#utility.yul\":500:528   */\n      and\n        /* \"#utility.yul\":490:528   */\n      swap1\n      pop\n        /* \"#utility.yul\":432:534   */\n      swap2\n      swap1\n      pop\n      jump\t// out\n        /* \"#utility.yul\":540:917   */\n    tag_175:\n        /* \"#utility.yul\":628:631   */\n      0x00\n        /* \"#utility.yul\":656:695   */\n      tag_218\n        /* \"#utility.yul\":689:694   */\n      dup3\n        /* \"#utility.yul\":656:695   */\n      tag_171\n      jump\t// in\n    tag_218:\n        /* \"#utility.yul\":711:782   */\n      tag_219\n        /* \"#utility.yul\":775:781   */\n      dup2\n        /* \"#utility.yul\":770:773   */\n      dup6\n        /* \"#utility.yul\":711:782   */\n      tag_172\n      jump\t// in\n    tag_219:\n        /* \"#utility.yul\":704:782   */\n      swap4\n      pop\n        /* \"#utility.yul\":791:856   */\n      tag_220\n        /* \"#utility.yul\":849:855   */\n      dup2\n        /* \"#utility.yul\":844:847   */\n      dup6\n        /* \"#utility.yul\":837:841   */\n      0x20\n        /* \"#utility.yul\":830:835   */\n      dup7\n        /* \"#utility.yul\":826:842   */\n      add\n        /* \"#utility.yul\":791:856   */\n      tag_173\n      jump\t// in\n    tag_220:\n        /* \"#utility.yul\":881:910   */\n      tag_221\n        /* \"#utility.yul\":903:909   */\n      dup2\n        /* \"#utility.yul\":881:910   */\n      tag_174\n      jump\t// in\n    tag_221:\n        /* \"#utility.yul\":876:879   */\n      dup5\n        /* \"#utility.yul\":872:911   */\n      add\n        /* \"#utility.yul\":865:911   */\n      swap2\n      pop\n        /* \"#utility.yul\":632:917   */\n      pop\n        /* \"#utility.yul\":540:917   */\n      swap3\n      swap2\n      pop\n      pop\n      jump\t// out\n        /* \"#utility.yul\":923:1236   */\n    tag_27:\n        /* \"#utility.yul\":1036:1040   */\n      0x00\n        /* \"#utility.yul\":1074:1076   */\n      0x20\n        /* \"#utility.yul\":1063:1072   */\n      dup3\n        /* \"#utility.yul\":1059:1077   */\n      add\n        /* \"#utility.yul\":1051:1077   */\n      swap1\n      pop\n        /* \"#utility.yul\":1123:1132   */\n      dup2\n        /* \"#utility.yul\":1117:1121   */\n      dup2\n        /* \"#utility.yul\":1113:1133   */\n      sub\n        /* \"#utility.yul\":1109:1110   */\n      0x00\n        /* \"#utility.yul\":1098:1107   */\n      dup4\n        /* \"#utility.yul\":1094:1111   */\n      add\n        /* \"#utility.yul\":1087:1134   */\n      mstore\n        /* \"#utility.yul\":1151:1229   */\n      tag_223\n        /* \"#utility.yul\":1224:1228   */\n      dup2\n        /* \"#utility.yul\":1215:1221   */\n      dup5\n        /* \"#utility.yul\":1151:1229   */\n      tag_175\n      jump\t// in\n    tag_223:\n        /* \"#utility.yul\":1143:1229   */\n      swap1\n      pop\n        /* \"#utility.yul\":923:1236   */\n      swap3\n      swap2\n      pop\n      pop\n      jump\t// out\n        /* \"#utility.yul\":1323:1440   */\n    tag_177:\n        /* \"#utility.yul\":1432:1433   */\n      0x00\n        /* \"#utility.yul\":1429:1430   */\n      0x00\n        /* \"#utility.yul\":1422:1434   */\n      revert\n        /* \"#utility.yul\":1569:1695   */\n    tag_179:\n        /* \"#utility.yul\":1606:1613   */\n      0x00\n        /* \"#utility.yul\":1646:1688   */\n      0xffffffffffffffffffffffffffffffffffffffff\n        /* \"#utility.yul\":1639:1644   */\n      dup3\n        /* \"#utility.yul\":1635:1689   */\n      and\n        /* \"#utility.yul\":1624:1689   */\n      swap1\n      pop\n        /* \"#utility.yul\":1569:1695   */\n      swap2\n      swap1\n      pop\n      jump\t// out\n        /* \"#utility.yul\":1701:1797   */\n    tag_180:\n        /* \"#utility.yul\":1738:1745   */\n      0x00\n        /* \"#utility.yul\":1767:1791   */\n      tag_229\n        /* \"#utility.yul\":1785:1790   */\n      dup3\n        /* \"#utility.yul\":1767:1791   */\n      tag_179\n      jump\t// in\n    tag_229:\n        /* \"#utility.yul\":1756:1791   */\n      swap1\n      pop\n        /* \"#utility.yul\":1701:1797   */\n      swap2\n      swap1\n      pop\n      jump\t// out\n        /* \"#utility.yul\":1803:1925   */\n    tag_181:\n        /* \"#utility.yul\":1876:1900   */\n      tag_231\n        /* \"#utility.yul\":1894:1899   */\n      dup2\n        /* \"#utility.yul\":1876:1900   */\n      tag_180\n      jump\t// in\n    tag_231:\n        /* \"#utility.yul\":1869:1874   */\n      dup2\n        /* \"#utility.yul\":1866:1901   */\n      eq\n        /* \"#utility.yul\":1856:1919   */\n      tag_232\n      jumpi\n        /* \"#utility.yul\":1915:1916   */\n      0x00\n        /* \"#utility.yul\":1912:1913   */\n      0x00\n        /* \"#utility.yul\":1905:1917   */\n      revert\n        /* \"#utility.yul\":1856:1919   */\n    tag_232:\n        /* \"#utility.yul\":1803:1925   */\n      pop\n      jump\t// out\n        /* \"#utility.yul\":1931:2070   */\n    tag_182:\n        /* \"#utility.yul\":1977:1982   */\n      0x00\n        /* \"#utility.yul\":2015:2021   */\n      dup2\n        /* \"#utility.yul\":2002:2022   */\n      calldataload\n        /* \"#utility.yul\":1993:2022   */\n      swap1\n      pop\n        /* \"#utility.yul\":2031:2064   */\n      tag_234\n        /* \"#utility.yul\":2058:2063   */\n      dup2\n        /* \"#utility.yul\":2031:2064   */\n      tag_181\n      jump\t// in\n    tag_234:\n        /* \"#utility.yul\":1931:2070   */\n      swap3\n      swap2\n      pop\n      pop\n      jump\t// out\n        /* \"#utility.yul\":2076:2405   */\n    tag_30:\n        /* \"#utility.yul\":2135:2141   */\n      0x00\n        /* \"#utility.yul\":2184:2186   */\n      0x20\n        /* \"#utility.yul\":2172:2181   */\n      dup3\n        /* \"#utility.yul\":2163:2170   */\n      dup5\n        /* \"#utility.yul\":2159:2182   */\n      sub\n        /* \"#utility.yul\":2155:2187   */\n      slt\n        /* \"#utility.yul\":2152:2271   */\n      iszero\n      tag_236\n      jumpi\n        /* \"#utility.yul\":2190:2269   */\n      tag_237\n      tag_177\n      jump\t// in\n    tag_237:\n        /* \"#utility.yul\":2152:2271   */\n    tag_236:\n        /* \"#utility.yul\":2310:2311   */\n      0x00\n        /* \"#utility.yul\":2335:2388   */\n      tag_238\n        /* \"#utility.yul\":2380:2387   */\n      dup5\n        /* \"#utility.yul\":2371:2377   */\n      dup3\n        /* \"#utility.yul\":2360:2369   */\n      dup6\n        /* \"#utility.yul\":2356:2378   */\n      add\n        /* \"#utility.yul\":2335:2388   */\n      tag_182\n      jump\t// in\n    tag_238:\n        /* \"#utility.yul\":2325:2388   */\n      swap2\n      pop\n        /* \"#utility.yul\":2281:2398   */\n      pop\n        /* \"#utility.yul\":2076:2405   */\n      swap3\n      swap2\n      pop\n      pop\n      jump\t// out\n        /* \"#utility.yul\":2411:2488   */\n    tag_183:\n        /* \"#utility.yul\":2448:2455   */\n      0x00\n        /* \"#utility.yul\":2477:2482   */\n      dup2\n        /* \"#utility.yul\":2466:2482   */\n      swap1\n      pop\n        /* \"#utility.yul\":2411:2488   */\n      swap2\n      swap1\n      pop\n      jump\t// out\n        /* \"#utility.yul\":2494:2612   */\n    tag_184:\n        /* \"#utility.yul\":2581:2605   */\n      tag_241\n        /* \"#utility.yul\":2599:2604   */\n      dup2\n        /* \"#utility.yul\":2581:2605   */\n      tag_183\n      jump\t// in\n    tag_241:\n        /* \"#utility.yul\":2576:2579   */\n      dup3\n        /* \"#utility.yul\":2569:2606   */\n      mstore\n        /* \"#utility.yul\":2494:2612   */\n      pop\n      pop\n      jump\t// out\n        /* \"#utility.yul\":2618:2840   */\n    tag_33:\n        /* \"#utility.yul\":2711:2715   */\n      0x00\n        /* \"#utility.yul\":2749:2751   */\n      0x20\n        /* \"#utility.yul\":2738:2747   */\n      dup3\n        /* \"#utility.yul\":2734:2752   */\n      add\n        /* \"#utility.yul\":2726:2752   */\n      swap1\n      pop\n        /* \"#utility.yul\":2762:2833   */\n      tag_243\n        /* \"#utility.yul\":2830:2831   */\n      0x00\n        /* \"#utility.yul\":2819:2828   */\n      dup4\n        /* \"#utility.yul\":2815:2832   */\n      add\n        /* \"#utility.yul\":2806:2812   */\n      dup5\n        /* \"#utility.yul\":2762:2833   */\n      tag_184\n      jump\t// in\n    tag_243:\n        /* \"#utility.yul\":2618:2840   */\n      swap3\n      swap2\n      pop\n      pop\n      jump\t// out\n        /* \"#utility.yul\":2846:2906   */\n    tag_185:\n        /* \"#utility.yul\":2874:2877   */\n      0x00\n        /* \"#utility.yul\":2895:2900   */\n      dup2\n        /* \"#utility.yul\":2888:2900   */\n      swap1\n      pop\n        /* \"#utility.yul\":2846:2906   */\n      swap2\n      swap1\n      pop\n      jump\t// out\n        /* \"#utility.yul\":2912:3054   */\n    tag_186:\n        /* \"#utility.yul\":2962:2971   */\n      0x00\n        /* \"#utility.yul\":2995:3048   */\n      tag_246\n        /* \"#utility.yul\":3013:3047   */\n      tag_247\n        /* \"#utility.yul\":3022:3046   */\n      tag_248\n        /* \"#utility.yul\":3040:3045   */\n      dup5\n        /* \"#utility.yul\":3022:3046   */\n      tag_179\n      jump\t// in\n    tag_248:\n        /* \"#utility.yul\":3013:3047   */\n      tag_185\n      jump\t// in\n    tag_247:\n        /* \"#utility.yul\":2995:3048   */\n      tag_179\n      jump\t// in\n    tag_246:\n        /* \"#utility.yul\":2982:3048   */\n      swap1\n      pop\n        /* \"#utility.yul\":2912:3054   */\n      swap2\n      swap1\n      pop\n      jump\t// out\n        /* \"#utility.yul\":3060:3186   */\n    tag_187:\n        /* \"#utility.yul\":3110:3119   */\n      0x00\n        /* \"#utility.yul\":3143:3180   */\n      tag_250\n        /* \"#utility.yul\":3174:3179   */\n      dup3\n        /* \"#utility.yul\":3143:3180   */\n      tag_186\n      jump\t// in\n    tag_250:\n        /* \"#utility.yul\":3130:3180   */\n      swap1\n      pop\n        /* \"#utility.yul\":3060:3186   */\n      swap2\n      swap1\n      pop\n      jump\t// out\n        /* \"#utility.yul\":3192:3335   */\n    tag_188:\n        /* \"#utility.yul\":3259:3268   */\n      0x00\n        /* \"#utility.yul\":3292:3329   */\n      tag_252\n        /* \"#utility.yul\":3323:3328   */\n      dup3\n        /* \"#utility.yul\":3292:3329   */\n      tag_187\n      jump\t// in\n    tag_252:\n        /* \"#utility.yul\":3279:3329   */\n      swap1\n      pop\n        /* \"#utility.yul\":3192:3335   */\n      swap2\n      swap1\n      pop\n      jump\t// out\n        /* \"#utility.yul\":3341:3506   */\n    tag_189:\n        /* \"#utility.yul\":3445:3499   */\n      tag_254\n        /* \"#utility.yul\":3493:3498   */\n      dup2\n        /* \"#utility.yul\":3445:3499   */\n      tag_188\n      jump\t// in\n    tag_254:\n        /* \"#utility.yul\":3440:3443   */\n      dup3\n        /* \"#utility.yul\":3433:3500   */\n      mstore\n        /* \"#utility.yul\":3341:3506   */\n      pop\n      pop\n      jump\t// out\n        /* \"#utility.yul\":3512:3768   */\n    tag_48:\n        /* \"#utility.yul\":3622:3626   */\n      0x00\n        /* \"#utility.yul\":3660:3662   */\n      0x20\n        /* \"#utility.yul\":3649:3658   */\n      dup3\n        /* \"#utility.yul\":3645:3663   */\n      add\n        /* \"#utility.yul\":3637:3663   */\n      swap1\n      pop\n        /* \"#utility.yul\":3673:3761   */\n      tag_256\n        /* \"#utility.yul\":3758:3759   */\n      0x00\n        /* \"#utility.yul\":3747:3756   */\n      dup4\n        /* \"#utility.yul\":3743:3760   */\n      add\n        /* \"#utility.yul\":3734:3740   */\n      dup5\n        /* \"#utility.yul\":3673:3761   */\n      tag_189\n      jump\t// in\n    tag_256:\n        /* \"#utility.yul\":3512:3768   */\n      swap3\n      swap2\n      pop\n      pop\n      jump\t// out\n        /* \"#utility.yul\":3774:3916   */\n    tag_190:\n        /* \"#utility.yul\":3840:3849   */\n      0x00\n        /* \"#utility.yul\":3873:3910   */\n      tag_258\n        /* \"#utility.yul\":3904:3909   */\n      dup3\n        /* \"#utility.yul\":3873:3910   */\n      tag_187\n      jump\t// in\n    tag_258:\n        /* \"#utility.yul\":3860:3910   */\n      swap1\n      pop\n        /* \"#utility.yul\":3774:3916   */\n      swap2\n      swap1\n      pop\n      jump\t// out\n        /* \"#utility.yul\":3922:4085   */\n    tag_191:\n        /* \"#utility.yul\":4025:4078   */\n      tag_260\n        /* \"#utility.yul\":4072:4077   */\n      dup2\n        /* \"#utility.yul\":4025:4078   */\n      tag_190\n      jump\t// in\n    tag_260:\n        /* \"#utility.yul\":4020:4023   */\n      dup3\n        /* \"#utility.yul\":4013:4079   */\n      mstore\n        /* \"#utility.yul\":3922:4085   */\n      pop\n      pop\n      jump\t// out\n        /* \"#utility.yul\":4091:4345   */\n    tag_52:\n        /* \"#utility.yul\":4200:4204   */\n      0x00\n        /* \"#utility.yul\":4238:4240   */\n      0x20\n        /* \"#utility.yul\":4227:4236   */\n      dup3\n        /* \"#utility.yul\":4223:4241   */\n      add\n        /* \"#utility.yul\":4215:4241   */\n      swap1\n      pop\n        /* \"#utility.yul\":4251:4338   */\n      tag_262\n        /* \"#utility.yul\":4335:4336   */\n      0x00\n        /* \"#utility.yul\":4324:4333   */\n      dup4\n        /* \"#utility.yul\":4320:4337   */\n      add\n        /* \"#utility.yul\":4311:4317   */\n      dup5\n        /* \"#utility.yul\":4251:4338   */\n      tag_191\n      jump\t// in\n    tag_262:\n        /* \"#utility.yul\":4091:4345   */\n      swap3\n      swap2\n      pop\n      pop\n      jump\t// out\n        /* \"#utility.yul\":4351:4441   */\n    tag_192:\n        /* \"#utility.yul\":4385:4392   */\n      0x00\n        /* \"#utility.yul\":4428:4433   */\n      dup2\n        /* \"#utility.yul\":4421:4434   */\n      iszero\n        /* \"#utility.yul\":4414:4435   */\n      iszero\n        /* \"#utility.yul\":4403:4435   */\n      swap1\n      pop\n        /* \"#utility.yul\":4351:4441   */\n      swap2\n      swap1\n      pop\n      jump\t// out\n        /* \"#utility.yul\":4447:4556   */\n    tag_193:\n        /* \"#utility.yul\":4528:4549   */\n      tag_265\n        /* \"#utility.yul\":4543:4548   */\n      dup2\n        /* \"#utility.yul\":4528:4549   */\n      tag_192\n      jump\t// in\n    tag_265:\n        /* \"#utility.yul\":4523:4526   */\n      dup3\n        /* \"#utility.yul\":4516:4550   */\n      mstore\n        /* \"#utility.yul\":4447:4556   */\n      pop\n      pop\n      jump\t// out\n        /* \"#utility.yul\":4562:5202   */\n    tag_57:\n        /* \"#utility.yul\":4755:4759   */\n      0x00\n        /* \"#utility.yul\":4793:4796   */\n      0xa0\n        /* \"#utility.yul\":4782:4791   */\n      dup3\n        /* \"#utility.yul\":4778:4797   */\n      add\n        /* \"#utility.yul\":4770:4797   */\n      swap1\n      pop\n        /* \"#utility.yul\":4807:4878   */\n      tag_267\n        /* \"#utility.yul\":4875:4876   */\n      0x00\n        /* \"#utility.yul\":4864:4873   */\n      dup4\n        /* \"#utility.yul\":4860:4877   */\n      add\n        /* \"#utility.yul\":4851:4857   */\n      dup9\n        /* \"#utility.yul\":4807:4878   */\n      tag_184\n      jump\t// in\n    tag_267:\n        /* \"#utility.yul\":4888:4960   */\n      tag_268\n        /* \"#utility.yul\":4956:4958   */\n      0x20\n        /* \"#utility.yul\":4945:4954   */\n      dup4\n        /* \"#utility.yul\":4941:4959   */\n      add\n        /* \"#utility.yul\":4932:4938   */\n      dup8\n        /* \"#utility.yul\":4888:4960   */\n      tag_184\n      jump\t// in\n    tag_268:\n        /* \"#utility.yul\":4970:5036   */\n      tag_269\n        /* \"#utility.yul\":5032:5034   */\n      0x40\n        /* \"#utility.yul\":5021:5030   */\n      dup4\n        /* \"#utility.yul\":5017:5035   */\n      add\n        /* \"#utility.yul\":5008:5014   */\n      dup7\n        /* \"#utility.yul\":4970:5036   */\n      tag_193\n      jump\t// in\n    tag_269:\n        /* \"#utility.yul\":5046:5112   */\n      tag_270\n        /* \"#utility.yul\":5108:5110   */\n      0x60\n        /* \"#utility.yul\":5097:5106   */\n      dup4\n        /* \"#utility.yul\":5093:5111   */\n      add\n        /* \"#utility.yul\":5084:5090   */\n      dup6\n        /* \"#utility.yul\":5046:5112   */\n      tag_193\n      jump\t// in\n    tag_270:\n        /* \"#utility.yul\":5122:5195   */\n      tag_271\n        /* \"#utility.yul\":5190:5193   */\n      0x80\n        /* \"#utility.yul\":5179:5188   */\n      dup4\n        /* \"#utility.yul\":5175:5194   */\n      add\n        /* \"#utility.yul\":5166:5172   */\n      dup5\n        /* \"#utility.yul\":5122:5195   */\n      tag_184\n      jump\t// in\n    tag_271:\n        /* \"#utility.yul\":4562:5202   */\n      swap7\n      swap6\n      pop\n      pop\n      pop\n      pop\n      pop\n      pop\n      jump\t// out\n        /* \"#utility.yul\":5208:5418   */\n    tag_62:\n        /* \"#utility.yul\":5295:5299   */\n      0x00\n        /* \"#utility.yul\":5333:5335   */\n      0x20\n        /* \"#utility.yul\":5322:5331   */\n      dup3\n        /* \"#utility.yul\":5318:5336   */\n      add\n        /* \"#utility.yul\":5310:5336   */\n      swap1\n      pop\n        /* \"#utility.yul\":5346:5411   */\n      tag_273\n        /* \"#utility.yul\":5408:5409   */\n      0x00\n        /* \"#utility.yul\":5397:5406   */\n      dup4\n        /* \"#utility.yul\":5393:5410   */\n      add\n        /* \"#utility.yul\":5384:5390   */\n      dup5\n        /* \"#utility.yul\":5346:5411   */\n      tag_193\n      jump\t// in\n    tag_273:\n        /* \"#utility.yul\":5208:5418   */\n      swap3\n      swap2\n      pop\n      pop\n      jump\t// out\n        /* \"#utility.yul\":5424:5542   */\n    tag_194:\n        /* \"#utility.yul\":5511:5535   */\n      tag_275\n        /* \"#utility.yul\":5529:5534   */\n      dup2\n        /* \"#utility.yul\":5511:5535   */\n      tag_180\n      jump\t// in\n    tag_275:\n        /* \"#utility.yul\":5506:5509   */\n      dup3\n        /* \"#utility.yul\":5499:5536   */\n      mstore\n        /* \"#utility.yul\":5424:5542   */\n      pop\n      pop\n      jump\t// out\n        /* \"#utility.yul\":5548:5770   */\n    tag_66:\n        /* \"#utility.yul\":5641:5645   */\n      0x00\n        /* \"#utility.yul\":5679:5681   */\n      0x20\n        /* \"#utility.yul\":5668:5677   */\n      dup3\n        /* \"#utility.yul\":5664:5682   */\n      add\n        /* \"#utility.yul\":5656:5682   */\n      swap1\n      pop\n        /* \"#utility.yul\":5692:5763   */\n      tag_277\n        /* \"#utility.yul\":5760:5761   */\n      0x00\n        /* \"#utility.yul\":5749:5758   */\n      dup4\n        /* \"#utility.yul\":5745:5762   */\n      add\n        /* \"#utility.yul\":5736:5742   */\n      dup5\n        /* \"#utility.yul\":5692:5763   */\n      tag_194\n      jump\t// in\n    tag_277:\n        /* \"#utility.yul\":5548:5770   */\n      swap3\n      swap2\n      pop\n      pop\n      jump\t// out\n        /* \"#utility.yul\":5776:5898   */\n    tag_195:\n        /* \"#utility.yul\":5849:5873   */\n      tag_279\n        /* \"#utility.yul\":5867:5872   */\n      dup2\n        /* \"#utility.yul\":5849:5873   */\n      tag_183\n      jump\t// in\n    tag_279:\n        /* \"#utility.yul\":5842:5847   */\n      dup2\n        /* \"#utility.yul\":5839:5874   */\n      eq\n        /* \"#utility.yul\":5829:5892   */\n      tag_280\n      jumpi\n        /* \"#utility.yul\":5888:5889   */\n      0x00\n        /* \"#utility.yul\":5885:5886   */\n      0x00\n        /* \"#utility.yul\":5878:5890   */\n      revert\n        /* \"#utility.yul\":5829:5892   */\n    tag_280:\n        /* \"#utility.yul\":5776:5898   */\n      pop\n      jump\t// out\n        /* \"#utility.yul\":5904:6043   */\n    tag_196:\n        /* \"#utility.yul\":5950:5955   */\n      0x00\n        /* \"#utility.yul\":5988:5994   */\n      dup2\n        /* \"#utility.yul\":5975:5995   */\n      calldataload\n        /* \"#utility.yul\":5966:5995   */\n      swap1\n      pop\n        /* \"#utility.yul\":6004:6037   */\n      tag_282\n        /* \"#utility.yul\":6031:6036   */\n      dup2\n        /* \"#utility.yul\":6004:6037   */\n      tag_195\n      jump\t// in\n    tag_282:\n        /* \"#utility.yul\":5904:6043   */\n      swap3\n      swap2\n      pop\n      pop\n      jump\t// out\n        /* \"#utility.yul\":6049:6378   */\n    tag_72:\n        /* \"#utility.yul\":6108:6114   */\n      0x00\n        /* \"#utility.yul\":6157:6159   */\n      0x20\n        /* \"#utility.yul\":6145:6154   */\n      dup3\n        /* \"#utility.yul\":6136:6143   */\n      dup5\n        /* \"#utility.yul\":6132:6155   */\n      sub\n        /* \"#utility.yul\":6128:6160   */\n      slt\n        /* \"#utility.yul\":6125:6244   */\n      iszero\n      tag_284\n      jumpi\n        /* \"#utility.yul\":6163:6242   */\n      tag_285\n      tag_177\n      jump\t// in\n    tag_285:\n        /* \"#utility.yul\":6125:6244   */\n    tag_284:\n        /* \"#utility.yul\":6283:6284   */\n      0x00\n        /* \"#utility.yul\":6308:6361   */\n      tag_286\n        /* \"#utility.yul\":6353:6360   */\n      dup5\n        /* \"#utility.yul\":6344:6350   */\n      dup3\n        /* \"#utility.yul\":6333:6342   */\n      dup6\n        /* \"#utility.yul\":6329:6351   */\n      add\n        /* \"#utility.yul\":6308:6361   */\n      tag_196\n      jump\t// in\n    tag_286:\n        /* \"#utility.yul\":6298:6361   */\n      swap2\n      pop\n        /* \"#utility.yul\":6254:6371   */\n      pop\n        /* \"#utility.yul\":6049:6378   */\n      swap3\n      swap2\n      pop\n      pop\n      jump\t// out\n        /* \"#utility.yul\":6384:6564   */\n    tag_197:\n        /* \"#utility.yul\":6432:6509   */\n      0x4e487b7100000000000000000000000000000000000000000000000000000000\n        /* \"#utility.yul\":6429:6430   */\n      0x00\n        /* \"#utility.yul\":6422:6510   */\n      mstore\n        /* \"#utility.yul\":6529:6533   */\n      0x22\n        /* \"#utility.yul\":6526:6527   */\n      0x04\n        /* \"#utility.yul\":6519:6534   */\n      mstore\n        /* \"#utility.yul\":6553:6557   */\n      0x24\n        /* \"#utility.yul\":6550:6551   */\n      0x00\n        /* \"#utility.yul\":6543:6558   */\n      revert\n        /* \"#utility.yul\":6570:6890   */\n    tag_92:\n        /* \"#utility.yul\":6614:6620   */\n      0x00\n        /* \"#utility.yul\":6651:6652   */\n      0x02\n        /* \"#utility.yul\":6645:6649   */\n      dup3\n        /* \"#utility.yul\":6641:6653   */\n      div\n        /* \"#utility.yul\":6631:6653   */\n      swap1\n      pop\n        /* \"#utility.yul\":6698:6699   */\n      0x01\n        /* \"#utility.yul\":6692:6696   */\n      dup3\n        /* \"#utility.yul\":6688:6700   */\n      and\n        /* \"#utility.yul\":6719:6737   */\n      dup1\n        /* \"#utility.yul\":6709:6790   */\n      tag_289\n      jumpi\n        /* \"#utility.yul\":6775:6779   */\n      0x7f\n        /* \"#utility.yul\":6767:6773   */\n      dup3\n        /* \"#utility.yul\":6763:6780   */\n      and\n        /* \"#utility.yul\":6753:6780   */\n      swap2\n      pop\n        /* \"#utility.yul\":6709:6790   */\n    tag_289:\n        /* \"#utility.yul\":6837:6839   */\n      0x20\n        /* \"#utility.yul\":6829:6835   */\n      dup3\n        /* \"#utility.yul\":6826:6840   */\n      lt\n        /* \"#utility.yul\":6806:6824   */\n      dup2\n        /* \"#utility.yul\":6803:6841   */\n      sub\n        /* \"#utility.yul\":6800:6884   */\n      tag_290\n      jumpi\n        /* \"#utility.yul\":6856:6874   */\n      tag_291\n      tag_197\n      jump\t// in\n    tag_291:\n        /* \"#utility.yul\":6800:6884   */\n    tag_290:\n        /* \"#utility.yul\":6621:6890   */\n      pop\n        /* \"#utility.yul\":6570:6890   */\n      swap2\n      swap1\n      pop\n      jump\t// out\n        /* \"#utility.yul\":6896:7064   */\n    tag_198:\n        /* \"#utility.yul\":7036:7056   */\n      0x4e6f2070656e64696e6720726577617264730000000000000000000000000000\n        /* \"#utility.yul\":7032:7033   */\n      0x00\n        /* \"#utility.yul\":7024:7030   */\n      dup3\n        /* \"#utility.yul\":7020:7034   */\n      add\n        /* \"#utility.yul\":7013:7057   */\n      mstore\n        /* \"#utility.yul\":6896:7064   */\n      pop\n      jump\t// out\n        /* \"#utility.yul\":7070:7436   */\n    tag_199:\n        /* \"#utility.yul\":7212:7215   */\n      0x00\n        /* \"#utility.yul\":7233:7300   */\n      tag_294\n        /* \"#utility.yul\":7297:7299   */\n      0x12\n        /* \"#utility.yul\":7292:7295   */\n      dup4\n        /* \"#utility.yul\":7233:7300   */\n      tag_172\n      jump\t// in\n    tag_294:\n        /* \"#utility.yul\":7226:7300   */\n      swap2\n      pop\n        /* \"#utility.yul\":7309:7402   */\n      tag_295\n        /* \"#utility.yul\":7398:7401   */\n      dup3\n        /* \"#utility.yul\":7309:7402   */\n      tag_198\n      jump\t// in\n    tag_295:\n        /* \"#utility.yul\":7427:7429   */\n      0x20\n        /* \"#utility.yul\":7422:7425   */\n      dup3\n        /* \"#utility.yul\":7418:7430   */\n      add\n        /* \"#utility.yul\":7411:7430   */\n      swap1\n      pop\n        /* \"#utility.yul\":7070:7436   */\n      swap2\n      swap1\n      pop\n      jump\t// out\n        /* \"#utility.yul\":7442:7861   */\n    tag_100:\n        /* \"#utility.yul\":7608:7612   */\n      0x00\n        /* \"#utility.yul\":7646:7648   */\n      0x20\n        /* \"#utility.yul\":7635:7644   */\n      dup3\n        /* \"#utility.yul\":7631:7649   */\n      add\n        /* \"#utility.yul\":7623:7649   */\n      swap1\n      pop\n        /* \"#utility.yul\":7695:7704   */\n      dup2\n        /* \"#utility.yul\":7689:7693   */\n      dup2\n        /* \"#utility.yul\":7685:7705   */\n      sub\n        /* \"#utility.yul\":7681:7682   */\n      0x00\n        /* \"#utility.yul\":7670:7679   */\n      dup4\n        /* \"#utility.yul\":7666:7683   */\n      add\n        /* \"#utility.yul\":7659:7706   */\n      mstore\n        /* \"#utility.yul\":7723:7854   */\n      tag_297\n        /* \"#utility.yul\":7849:7853   */\n      dup2\n        /* \"#utility.yul\":7723:7854   */\n      tag_199\n      jump\t// in\n    tag_297:\n        /* \"#utility.yul\":7715:7854   */\n      swap1\n      pop\n        /* \"#utility.yul\":7442:7861   */\n      swap2\n      swap1\n      pop\n      jump\t// out\n        /* \"#utility.yul\":7867:8199   */\n    tag_102:\n        /* \"#utility.yul\":7988:7992   */\n      0x00\n        /* \"#utility.yul\":8026:8028   */\n      0x40\n        /* \"#utility.yul\":8015:8024   */\n      dup3\n        /* \"#utility.yul\":8011:8029   */\n      add\n        /* \"#utility.yul\":8003:8029   */\n      swap1\n      pop\n        /* \"#utility.yul\":8039:8110   */\n      tag_299\n        /* \"#utility.yul\":8107:8108   */\n      0x00\n        /* \"#utility.yul\":8096:8105   */\n      dup4\n        /* \"#utility.yul\":8092:8109   */\n      add\n        /* \"#utility.yul\":8083:8089   */\n      dup6\n        /* \"#utility.yul\":8039:8110   */\n      tag_194\n      jump\t// in\n    tag_299:\n        /* \"#utility.yul\":8120:8192   */\n      tag_300\n        /* \"#utility.yul\":8188:8190   */\n      0x20\n        /* \"#utility.yul\":8177:8186   */\n      dup4\n        /* \"#utility.yul\":8173:8191   */\n      add\n        /* \"#utility.yul\":8164:8170   */\n      dup5\n        /* \"#utility.yul\":8120:8192   */\n      tag_184\n      jump\t// in\n    tag_300:\n        /* \"#utility.yul\":7867:8199   */\n      swap4\n      swap3\n      pop\n      pop\n      pop\n      jump\t// out\n        /* \"#utility.yul\":8205:8374   */\n    tag_200:\n        /* \"#utility.yul\":8345:8366   */\n      0x55736572206973206e6f74207374616b696e6700000000000000000000000000\n        /* \"#utility.yul\":8341:8342   */\n      0x00\n        /* \"#utility.yul\":8333:8339   */\n      dup3\n        /* \"#utility.yul\":8329:8343   */\n      add\n        /* \"#utility.yul\":8322:8367   */\n      mstore\n        /* \"#utility.yul\":8205:8374   */\n      pop\n      jump\t// out\n        /* \"#utility.yul\":8380:8746   */\n    tag_201:\n        /* \"#utility.yul\":8522:8525   */\n      0x00\n        /* \"#utility.yul\":8543:8610   */\n      tag_303\n        /* \"#utility.yul\":8607:8609   */\n      0x13\n        /* \"#utility.yul\":8602:8605   */\n      dup4\n        /* \"#utility.yul\":8543:8610   */\n      tag_172\n      jump\t// in\n    tag_303:\n        /* \"#utility.yul\":8536:8610   */\n      swap2\n      pop\n        /* \"#utility.yul\":8619:8712   */\n      tag_304\n        /* \"#utility.yul\":8708:8711   */\n      dup3\n        /* \"#utility.yul\":8619:8712   */\n      tag_200\n      jump\t// in\n    tag_304:\n        /* \"#utility.yul\":8737:8739   */\n      0x20\n        /* \"#utility.yul\":8732:8735   */\n      dup3\n        /* \"#utility.yul\":8728:8740   */\n      add\n        /* \"#utility.yul\":8721:8740   */\n      swap1\n      pop\n        /* \"#utility.yul\":8380:8746   */\n      swap2\n      swap1\n      pop\n      jump\t// out\n        /* \"#utility.yul\":8752:9171   */\n    tag_110:\n        /* \"#utility.yul\":8918:8922   */\n      0x00\n        /* \"#utility.yul\":8956:8958   */\n      0x20\n        /* \"#utility.yul\":8945:8954   */\n      dup3\n        /* \"#utility.yul\":8941:8959   */\n      add\n        /* \"#utility.yul\":8933:8959   */\n      swap1\n      pop\n        /* \"#utility.yul\":9005:9014   */\n      dup2\n        /* \"#utility.yul\":8999:9003   */\n      dup2\n        /* \"#utility.yul\":8995:9015   */\n      sub\n        /* \"#utility.yul\":8991:8992   */\n      0x00\n        /* \"#utility.yul\":8980:8989   */\n      dup4\n        /* \"#utility.yul\":8976:8993   */\n      add\n        /* \"#utility.yul\":8969:9016   */\n      mstore\n        /* \"#utility.yul\":9033:9164   */\n      tag_306\n        /* \"#utility.yul\":9159:9163   */\n      dup2\n        /* \"#utility.yul\":9033:9164   */\n      tag_201\n      jump\t// in\n    tag_306:\n        /* \"#utility.yul\":9025:9164   */\n      swap1\n      pop\n        /* \"#utility.yul\":8752:9171   */\n      swap2\n      swap1\n      pop\n      jump\t// out\n        /* \"#utility.yul\":9177:9347   */\n    tag_202:\n        /* \"#utility.yul\":9317:9339   */\n      0x5374616b696e672062616c616e63652069732030000000000000000000000000\n        /* \"#utility.yul\":9313:9314   */\n      0x00\n        /* \"#utility.yul\":9305:9311   */\n      dup3\n        /* \"#utility.yul\":9301:9315   */\n      add\n        /* \"#utility.yul\":9294:9340   */\n      mstore\n        /* \"#utility.yul\":9177:9347   */\n      pop\n      jump\t// out\n        /* \"#utility.yul\":9353:9719   */\n    tag_203:\n        /* \"#utility.yul\":9495:9498   */\n      0x00\n        /* \"#utility.yul\":9516:9583   */\n      tag_309\n        /* \"#utility.yul\":9580:9582   */\n      0x14\n        /* \"#utility.yul\":9575:9578   */\n      dup4\n        /* \"#utility.yul\":9516:9583   */\n      tag_172\n      jump\t// in\n    tag_309:\n        /* \"#utility.yul\":9509:9583   */\n      swap2\n      pop\n        /* \"#utility.yul\":9592:9685   */\n      tag_310\n        /* \"#utility.yul\":9681:9684   */\n      dup3\n        /* \"#utility.yul\":9592:9685   */\n      tag_202\n      jump\t// in\n    tag_310:\n        /* \"#utility.yul\":9710:9712   */\n      0x20\n        /* \"#utility.yul\":9705:9708   */\n      dup3\n        /* \"#utility.yul\":9701:9713   */\n      add\n        /* \"#utility.yul\":9694:9713   */\n      swap1\n      pop\n        /* \"#utility.yul\":9353:9719   */\n      swap2\n      swap1\n      pop\n      jump\t// out\n        /* \"#utility.yul\":9725:10144   */\n    tag_113:\n        /* \"#utility.yul\":9891:9895   */\n      0x00\n        /* \"#utility.yul\":9929:9931   */\n      0x20\n        /* \"#utility.yul\":9918:9927   */\n      dup3\n        /* \"#utility.yul\":9914:9932   */\n      add\n        /* \"#utility.yul\":9906:9932   */\n      swap1\n      pop\n        /* \"#utility.yul\":9978:9987   */\n      dup2\n        /* \"#utility.yul\":9972:9976   */\n      dup2\n        /* \"#utility.yul\":9968:9988   */\n      sub\n        /* \"#utility.yul\":9964:9965   */\n      0x00\n        /* \"#utility.yul\":9953:9962   */\n      dup4\n        /* \"#utility.yul\":9949:9966   */\n      add\n        /* \"#utility.yul\":9942:9989   */\n      mstore\n        /* \"#utility.yul\":10006:10137   */\n      tag_312\n        /* \"#utility.yul\":10132:10136   */\n      dup2\n        /* \"#utility.yul\":10006:10137   */\n      tag_203\n      jump\t// in\n    tag_312:\n        /* \"#utility.yul\":9998:10137   */\n      swap1\n      pop\n        /* \"#utility.yul\":9725:10144   */\n      swap2\n      swap1\n      pop\n      jump\t// out\n        /* \"#utility.yul\":10150:10330   */\n    tag_204:\n        /* \"#utility.yul\":10198:10275   */\n      0x4e487b7100000000000000000000000000000000000000000000000000000000\n        /* \"#utility.yul\":10195:10196   */\n      0x00\n        /* \"#utility.yul\":10188:10276   */\n      mstore\n        /* \"#utility.yul\":10295:10299   */\n      0x11\n        /* \"#utility.yul\":10292:10293   */\n      0x04\n        /* \"#utility.yul\":10285:10300   */\n      mstore\n        /* \"#utility.yul\":10319:10323   */\n      0x24\n        /* \"#utility.yul\":10316:10317   */\n      0x00\n        /* \"#utility.yul\":10309:10324   */\n      revert\n        /* \"#utility.yul\":10336:10530   */\n    tag_117:\n        /* \"#utility.yul\":10376:10380   */\n      0x00\n        /* \"#utility.yul\":10396:10416   */\n      tag_315\n        /* \"#utility.yul\":10414:10415   */\n      dup3\n        /* \"#utility.yul\":10396:10416   */\n      tag_183\n      jump\t// in\n    tag_315:\n        /* \"#utility.yul\":10391:10416   */\n      swap2\n      pop\n        /* \"#utility.yul\":10430:10450   */\n      tag_316\n        /* \"#utility.yul\":10448:10449   */\n      dup4\n        /* \"#utility.yul\":10430:10450   */\n      tag_183\n      jump\t// in\n    tag_316:\n        /* \"#utility.yul\":10425:10450   */\n      swap3\n      pop\n        /* \"#utility.yul\":10474:10475   */\n      dup3\n        /* \"#utility.yul\":10471:10472   */\n      dup3\n        /* \"#utility.yul\":10467:10476   */\n      sub\n        /* \"#utility.yul\":10459:10476   */\n      swap1\n      pop\n        /* \"#utility.yul\":10498:10499   */\n      dup2\n        /* \"#utility.yul\":10492:10496   */\n      dup2\n        /* \"#utility.yul\":10489:10500   */\n      gt\n        /* \"#utility.yul\":10486:10523   */\n      iszero\n      tag_317\n      jumpi\n        /* \"#utility.yul\":10503:10521   */\n      tag_318\n      tag_204\n      jump\t// in\n    tag_318:\n        /* \"#utility.yul\":10486:10523   */\n    tag_317:\n        /* \"#utility.yul\":10336:10530   */\n      swap3\n      swap2\n      pop\n      pop\n      jump\t// out\n        /* \"#utility.yul\":10536:10652   */\n    tag_205:\n        /* \"#utility.yul\":10606:10627   */\n      tag_320\n        /* \"#utility.yul\":10621:10626   */\n      dup2\n        /* \"#utility.yul\":10606:10627   */\n      tag_192\n      jump\t// in\n    tag_320:\n        /* \"#utility.yul\":10599:10604   */\n      dup2\n        /* \"#utility.yul\":10596:10628   */\n      eq\n        /* \"#utility.yul\":10586:10646   */\n      tag_321\n      jumpi\n        /* \"#utility.yul\":10642:10643   */\n      0x00\n        /* \"#utility.yul\":10639:10640   */\n      0x00\n        /* \"#utility.yul\":10632:10644   */\n      revert\n        /* \"#utility.yul\":10586:10646   */\n    tag_321:\n        /* \"#utility.yul\":10536:10652   */\n      pop\n      jump\t// out\n        /* \"#utility.yul\":10658:10795   */\n    tag_206:\n        /* \"#utility.yul\":10712:10717   */\n      0x00\n        /* \"#utility.yul\":10743:10749   */\n      dup2\n        /* \"#utility.yul\":10737:10750   */\n      mload\n        /* \"#utility.yul\":10728:10750   */\n      swap1\n      pop\n        /* \"#utility.yul\":10759:10789   */\n      tag_323\n        /* \"#utility.yul\":10783:10788   */\n      dup2\n        /* \"#utility.yul\":10759:10789   */\n      tag_205\n      jump\t// in\n    tag_323:\n        /* \"#utility.yul\":10658:10795   */\n      swap3\n      swap2\n      pop\n      pop\n      jump\t// out\n        /* \"#utility.yul\":10801:11146   */\n    tag_122:\n        /* \"#utility.yul\":10868:10874   */\n      0x00\n        /* \"#utility.yul\":10917:10919   */\n      0x20\n        /* \"#utility.yul\":10905:10914   */\n      dup3\n        /* \"#utility.yul\":10896:10903   */\n      dup5\n        /* \"#utility.yul\":10892:10915   */\n      sub\n        /* \"#utility.yul\":10888:10920   */\n      slt\n        /* \"#utility.yul\":10885:11004   */\n      iszero\n      tag_325\n      jumpi\n        /* \"#utility.yul\":10923:11002   */\n      tag_326\n      tag_177\n      jump\t// in\n    tag_326:\n        /* \"#utility.yul\":10885:11004   */\n    tag_325:\n        /* \"#utility.yul\":11043:11044   */\n      0x00\n        /* \"#utility.yul\":11068:11129   */\n      tag_327\n        /* \"#utility.yul\":11121:11128   */\n      dup5\n        /* \"#utility.yul\":11112:11118   */\n      dup3\n        /* \"#utility.yul\":11101:11110   */\n      dup6\n        /* \"#utility.yul\":11097:11119   */\n      add\n        /* \"#utility.yul\":11068:11129   */\n      tag_206\n      jump\t// in\n    tag_327:\n        /* \"#utility.yul\":11058:11129   */\n      swap2\n      pop\n        /* \"#utility.yul\":11014:11139   */\n      pop\n        /* \"#utility.yul\":10801:11146   */\n      swap3\n      swap2\n      pop\n      pop\n      jump\t// out\n        /* \"#utility.yul\":11152:11331   */\n    tag_207:\n        /* \"#utility.yul\":11292:11323   */\n      0x416d6f756e74206d7573742062652067726561746572207468616e2030000000\n        /* \"#utility.yul\":11288:11289   */\n      0x00\n        /* \"#utility.yul\":11280:11286   */\n      dup3\n        /* \"#utility.yul\":11276:11290   */\n      add\n        /* \"#utility.yul\":11269:11324   */\n      mstore\n        /* \"#utility.yul\":11152:11331   */\n      pop\n      jump\t// out\n        /* \"#utility.yul\":11337:11703   */\n    tag_208:\n        /* \"#utility.yul\":11479:11482   */\n      0x00\n        /* \"#utility.yul\":11500:11567   */\n      tag_330\n        /* \"#utility.yul\":11564:11566   */\n      0x1d\n        /* \"#utility.yul\":11559:11562   */\n      dup4\n        /* \"#utility.yul\":11500:11567   */\n      tag_172\n      jump\t// in\n    tag_330:\n        /* \"#utility.yul\":11493:11567   */\n      swap2\n      pop\n        /* \"#utility.yul\":11576:11669   */\n      tag_331\n        /* \"#utility.yul\":11665:11668   */\n      dup3\n        /* \"#utility.yul\":11576:11669   */\n      tag_207\n      jump\t// in\n    tag_331:\n        /* \"#utility.yul\":11694:11696   */\n      0x20\n        /* \"#utility.yul\":11689:11692   */\n      dup3\n        /* \"#utility.yul\":11685:11697   */\n      add\n        /* \"#utility.yul\":11678:11697   */\n      swap1\n      pop\n        /* \"#utility.yul\":11337:11703   */\n      swap2\n      swap1\n      pop\n      jump\t// out\n        /* \"#utility.yul\":11709:12128   */\n    tag_129:\n        /* \"#utility.yul\":11875:11879   */\n      0x00\n        /* \"#utility.yul\":11913:11915   */\n      0x20\n        /* \"#utility.yul\":11902:11911   */\n      dup3\n        /* \"#utility.yul\":11898:11916   */\n      add\n        /* \"#utility.yul\":11890:11916   */\n      swap1\n      pop\n        /* \"#utility.yul\":11962:11971   */\n      dup2\n        /* \"#utility.yul\":11956:11960   */\n      dup2\n        /* \"#utility.yul\":11952:11972   */\n      sub\n        /* \"#utility.yul\":11948:11949   */\n      0x00\n        /* \"#utility.yul\":11937:11946   */\n      dup4\n        /* \"#utility.yul\":11933:11950   */\n      add\n        /* \"#utility.yul\":11926:11973   */\n      mstore\n        /* \"#utility.yul\":11990:12121   */\n      tag_333\n        /* \"#utility.yul\":12116:12120   */\n      dup2\n        /* \"#utility.yul\":11990:12121   */\n      tag_208\n      jump\t// in\n    tag_333:\n        /* \"#utility.yul\":11982:12121   */\n      swap1\n      pop\n        /* \"#utility.yul\":11709:12128   */\n      swap2\n      swap1\n      pop\n      jump\t// out\n        /* \"#utility.yul\":12134:12576   */\n    tag_131:\n        /* \"#utility.yul\":12283:12287   */\n      0x00\n        /* \"#utility.yul\":12321:12323   */\n      0x60\n        /* \"#utility.yul\":12310:12319   */\n      dup3\n        /* \"#utility.yul\":12306:12324   */\n      add\n        /* \"#utility.yul\":12298:12324   */\n      swap1\n      pop\n        /* \"#utility.yul\":12334:12405   */\n      tag_335\n        /* \"#utility.yul\":12402:12403   */\n      0x00\n        /* \"#utility.yul\":12391:12400   */\n      dup4\n        /* \"#utility.yul\":12387:12404   */\n      add\n        /* \"#utility.yul\":12378:12384   */\n      dup7\n        /* \"#utility.yul\":12334:12405   */\n      tag_194\n      jump\t// in\n    tag_335:\n        /* \"#utility.yul\":12415:12487   */\n      tag_336\n        /* \"#utility.yul\":12483:12485   */\n      0x20\n        /* \"#utility.yul\":12472:12481   */\n      dup4\n        /* \"#utility.yul\":12468:12486   */\n      add\n        /* \"#utility.yul\":12459:12465   */\n      dup6\n        /* \"#utility.yul\":12415:12487   */\n      tag_194\n      jump\t// in\n    tag_336:\n        /* \"#utility.yul\":12497:12569   */\n      tag_337\n        /* \"#utility.yul\":12565:12567   */\n      0x40\n        /* \"#utility.yul\":12554:12563   */\n      dup4\n        /* \"#utility.yul\":12550:12568   */\n      add\n        /* \"#utility.yul\":12541:12547   */\n      dup5\n        /* \"#utility.yul\":12497:12569   */\n      tag_184\n      jump\t// in\n    tag_337:\n        /* \"#utility.yul\":12134:12576   */\n      swap5\n      swap4\n      pop\n      pop\n      pop\n      pop\n      jump\t// out\n        /* \"#utility.yul\":12582:12773   */\n    tag_136:\n        /* \"#utility.yul\":12622:12625   */\n      0x00\n        /* \"#utility.yul\":12641:12661   */\n      tag_339\n        /* \"#utility.yul\":12659:12660   */\n      dup3\n        /* \"#utility.yul\":12641:12661   */\n      tag_183\n      jump\t// in\n    tag_339:\n        /* \"#utility.yul\":12636:12661   */\n      swap2\n      pop\n        /* \"#utility.yul\":12675:12695   */\n      tag_340\n        /* \"#utility.yul\":12693:12694   */\n      dup4\n        /* \"#utility.yul\":12675:12695   */\n      tag_183\n      jump\t// in\n    tag_340:\n        /* \"#utility.yul\":12670:12695   */\n      swap3\n      pop\n        /* \"#utility.yul\":12718:12719   */\n      dup3\n        /* \"#utility.yul\":12715:12716   */\n      dup3\n        /* \"#utility.yul\":12711:12720   */\n      add\n        /* \"#utility.yul\":12704:12720   */\n      swap1\n      pop\n        /* \"#utility.yul\":12739:12742   */\n      dup1\n        /* \"#utility.yul\":12736:12737   */\n      dup3\n        /* \"#utility.yul\":12733:12743   */\n      gt\n        /* \"#utility.yul\":12730:12766   */\n      iszero\n      tag_341\n      jumpi\n        /* \"#utility.yul\":12746:12764   */\n      tag_342\n      tag_204\n      jump\t// in\n    tag_342:\n        /* \"#utility.yul\":12730:12766   */\n    tag_341:\n        /* \"#utility.yul\":12582:12773   */\n      swap3\n      swap2\n      pop\n      pop\n      jump\t// out\n        /* \"#utility.yul\":12779:12999   */\n    tag_209:\n        /* \"#utility.yul\":12919:12953   */\n      0x4f6e6c79206f776e65722063616e2063616c6c20746869732066756e6374696f\n        /* \"#utility.yul\":12915:12916   */\n      0x00\n        /* \"#utility.yul\":12907:12913   */\n      dup3\n        /* \"#utility.yul\":12903:12917   */\n      add\n        /* \"#utility.yul\":12896:12954   */\n      mstore\n        /* \"#utility.yul\":12988:12991   */\n      0x6e00000000000000000000000000000000000000000000000000000000000000\n        /* \"#utility.yul\":12983:12985   */\n      0x20\n        /* \"#utility.yul\":12975:12981   */\n      dup3\n        /* \"#utility.yul\":12971:12986   */\n      add\n        /* \"#utility.yul\":12964:12992   */\n      mstore\n        /* \"#utility.yul\":12779:12999   */\n      pop\n      jump\t// out\n        /* \"#utility.yul\":13005:13371   */\n    tag_210:\n        /* \"#utility.yul\":13147:13150   */\n      0x00\n        /* \"#utility.yul\":13168:13235   */\n      tag_345\n        /* \"#utility.yul\":13232:13234   */\n      0x21\n        /* \"#utility.yul\":13227:13230   */\n      dup4\n        /* \"#utility.yul\":13168:13235   */\n      tag_172\n      jump\t// in\n    tag_345:\n        /* \"#utility.yul\":13161:13235   */\n      swap2\n      pop\n        /* \"#utility.yul\":13244:13337   */\n      tag_346\n        /* \"#utility.yul\":13333:13336   */\n      dup3\n        /* \"#utility.yul\":13244:13337   */\n      tag_209\n      jump\t// in\n    tag_346:\n        /* \"#utility.yul\":13362:13364   */\n      0x40\n        /* \"#utility.yul\":13357:13360   */\n      dup3\n        /* \"#utility.yul\":13353:13365   */\n      add\n        /* \"#utility.yul\":13346:13365   */\n      swap1\n      pop\n        /* \"#utility.yul\":13005:13371   */\n      swap2\n      swap1\n      pop\n      jump\t// out\n        /* \"#utility.yul\":13377:13796   */\n    tag_146:\n        /* \"#utility.yul\":13543:13547   */\n      0x00\n        /* \"#utility.yul\":13581:13583   */\n      0x20\n        /* \"#utility.yul\":13570:13579   */\n      dup3\n        /* \"#utility.yul\":13566:13584   */\n      add\n        /* \"#utility.yul\":13558:13584   */\n      swap1\n      pop\n        /* \"#utility.yul\":13630:13639   */\n      dup2\n        /* \"#utility.yul\":13624:13628   */\n      dup2\n        /* \"#utility.yul\":13620:13640   */\n      sub\n        /* \"#utility.yul\":13616:13617   */\n      0x00\n        /* \"#utility.yul\":13605:13614   */\n      dup4\n        /* \"#utility.yul\":13601:13618   */\n      add\n        /* \"#utility.yul\":13594:13641   */\n      mstore\n        /* \"#utility.yul\":13658:13789   */\n      tag_348\n        /* \"#utility.yul\":13784:13788   */\n      dup2\n        /* \"#utility.yul\":13658:13789   */\n      tag_210\n      jump\t// in\n    tag_348:\n        /* \"#utility.yul\":13650:13789   */\n      swap1\n      pop\n        /* \"#utility.yul\":13377:13796   */\n      swap2\n      swap1\n      pop\n      jump\t// out\n        /* \"#utility.yul\":13802:13982   */\n    tag_152:\n        /* \"#utility.yul\":13850:13927   */\n      0x4e487b7100000000000000000000000000000000000000000000000000000000\n        /* \"#utility.yul\":13847:13848   */\n      0x00\n        /* \"#utility.yul\":13840:13928   */\n      mstore\n        /* \"#utility.yul\":13947:13951   */\n      0x32\n        /* \"#utility.yul\":13944:13945   */\n      0x04\n        /* \"#utility.yul\":13937:13952   */\n      mstore\n        /* \"#utility.yul\":13971:13975   */\n      0x24\n        /* \"#utility.yul\":13968:13969   */\n      0x00\n        /* \"#utility.yul\":13961:13976   */\n      revert\n        /* \"#utility.yul\":13988:14398   */\n    tag_164:\n        /* \"#utility.yul\":14028:14035   */\n      0x00\n        /* \"#utility.yul\":14051:14071   */\n      tag_351\n        /* \"#utility.yul\":14069:14070   */\n      dup3\n        /* \"#utility.yul\":14051:14071   */\n      tag_183\n      jump\t// in\n    tag_351:\n        /* \"#utility.yul\":14046:14071   */\n      swap2\n      pop\n        /* \"#utility.yul\":14085:14105   */\n      tag_352\n        /* \"#utility.yul\":14103:14104   */\n      dup4\n        /* \"#utility.yul\":14085:14105   */\n      tag_183\n      jump\t// in\n    tag_352:\n        /* \"#utility.yul\":14080:14105   */\n      swap3\n      pop\n        /* \"#utility.yul\":14140:14141   */\n      dup3\n        /* \"#utility.yul\":14137:14138   */\n      dup3\n        /* \"#utility.yul\":14133:14142   */\n      mul\n        /* \"#utility.yul\":14162:14192   */\n      tag_353\n        /* \"#utility.yul\":14180:14191   */\n      dup2\n        /* \"#utility.yul\":14162:14192   */\n      tag_183\n      jump\t// in\n    tag_353:\n        /* \"#utility.yul\":14151:14192   */\n      swap2\n      pop\n        /* \"#utility.yul\":14341:14342   */\n      dup3\n        /* \"#utility.yul\":14332:14339   */\n      dup3\n        /* \"#utility.yul\":14328:14343   */\n      div\n        /* \"#utility.yul\":14325:14326   */\n      dup5\n        /* \"#utility.yul\":14322:14344   */\n      eq\n        /* \"#utility.yul\":14302:14303   */\n      dup4\n        /* \"#utility.yul\":14295:14304   */\n      iszero\n        /* \"#utility.yul\":14275:14358   */\n      or\n        /* \"#utility.yul\":14252:14391   */\n      tag_354\n      jumpi\n        /* \"#utility.yul\":14371:14389   */\n      tag_355\n      tag_204\n      jump\t// in\n    tag_355:\n        /* \"#utility.yul\":14252:14391   */\n    tag_354:\n        /* \"#utility.yul\":14036:14398   */\n      pop\n        /* \"#utility.yul\":13988:14398   */\n      swap3\n      swap2\n      pop\n      pop\n      jump\t// out\n        /* \"#utility.yul\":14404:14584   */\n    tag_211:\n        /* \"#utility.yul\":14452:14529   */\n      0x4e487b7100000000000000000000000000000000000000000000000000000000\n        /* \"#utility.yul\":14449:14450   */\n      0x00\n        /* \"#utility.yul\":14442:14530   */\n      mstore\n        /* \"#utility.yul\":14549:14553   */\n      0x12\n        /* \"#utility.yul\":14546:14547   */\n      0x04\n        /* \"#utility.yul\":14539:14554   */\n      mstore\n        /* \"#utility.yul\":14573:14577   */\n      0x24\n        /* \"#utility.yul\":14570:14571   */\n      0x00\n        /* \"#utility.yul\":14563:14578   */\n      revert\n        /* \"#utility.yul\":14590:14775   */\n    tag_166:\n        /* \"#utility.yul\":14630:14631   */\n      0x00\n        /* \"#utility.yul\":14647:14667   */\n      tag_358\n        /* \"#utility.yul\":14665:14666   */\n      dup3\n        /* \"#utility.yul\":14647:14667   */\n      tag_183\n      jump\t// in\n    tag_358:\n        /* \"#utility.yul\":14642:14667   */\n      swap2\n      pop\n        /* \"#utility.yul\":14681:14701   */\n      tag_359\n        /* \"#utility.yul\":14699:14700   */\n      dup4\n        /* \"#utility.yul\":14681:14701   */\n      tag_183\n      jump\t// in\n    tag_359:\n        /* \"#utility.yul\":14676:14701   */\n      swap3\n      pop\n        /* \"#utility.yul\":14720:14721   */\n      dup3\n        /* \"#utility.yul\":14710:14745   */\n      tag_360\n      jumpi\n        /* \"#utility.yul\":14725:14743   */\n      tag_361\n      tag_211\n      jump\t// in\n    tag_361:\n        /* \"#utility.yul\":14710:14745   */\n    tag_360:\n        /* \"#utility.yul\":14767:14768   */\n      dup3\n        /* \"#utility.yul\":14764:14765   */\n      dup3\n        /* \"#utility.yul\":14760:14769   */\n      div\n        /* \"#utility.yul\":14755:14769   */\n      swap1\n      pop\n        /* \"#utility.yul\":14590:14775   */\n      swap3\n      swap2\n      pop\n      pop\n      jump\t// out\n\n    auxdata: 0xa26469706673582212205ca0f96539a4ea32520bd0d8e381b62ed027d2c78b9ab2d8a77197ec989dcc8f64736f6c634300081e0033\n}\n",
				"bytecode": {
					"linkReferences": {},
					"object": "60806040526040518060400160405280601781526020017f50726f706f7274696f6e616c20546f6b656e204661726d0000000000000000008152505f90816100479190610379565b50348015610053575f5ffd5b50604051611eef380380611eef833981810160405281019061007591906104f2565b8160025f6101000a81548173ffffffffffffffffffffffffffffffffffffffff021916908373ffffffffffffffffffffffffffffffffffffffff1602179055508060035f6101000a81548173ffffffffffffffffffffffffffffffffffffffff021916908373ffffffffffffffffffffffffffffffffffffffff1602179055503360015f6101000a81548173ffffffffffffffffffffffffffffffffffffffff021916908373ffffffffffffffffffffffffffffffffffffffff1602179055505050610530565b5f81519050919050565b7f4e487b71000000000000000000000000000000000000000000000000000000005f52604160045260245ffd5b7f4e487b71000000000000000000000000000000000000000000000000000000005f52602260045260245ffd5b5f60028204905060018216806101b757607f821691505b6020821081036101ca576101c9610173565b5b50919050565b5f819050815f5260205f209050919050565b5f6020601f8301049050919050565b5f82821b905092915050565b5f6008830261022c7fffffffffffffffffffffffffffffffffffffffffffffffffffffffffffffffff826101f1565b61023686836101f1565b95508019841693508086168417925050509392505050565b5f819050919050565b5f819050919050565b5f61027a6102756102708461024e565b610257565b61024e565b9050919050565b5f819050919050565b61029383610260565b6102a761029f82610281565b8484546101fd565b825550505050565b5f5f905090565b6102be6102af565b6102c981848461028a565b505050565b5b818110156102ec576102e15f826102b6565b6001810190506102cf565b5050565b601f82111561033157610302816101d0565b61030b846101e2565b8101602085101561031a578190505b61032e610326856101e2565b8301826102ce565b50505b505050565b5f82821c905092915050565b5f6103515f1984600802610336565b1980831691505092915050565b5f6103698383610342565b9150826002028217905092915050565b6103828261013c565b67ffffffffffffffff81111561039b5761039a610146565b5b6103a582546101a0565b6103b08282856102f0565b5f60209050601f8311600181146103e1575f84156103cf578287015190505b6103d9858261035e565b865550610440565b601f1984166103ef866101d0565b5f5b82811015610416578489015182556001820191506020850194506020810190506103f1565b86831015610433578489015161042f601f891682610342565b8355505b6001600288020188555050505b505050505050565b5f5ffd5b5f73ffffffffffffffffffffffffffffffffffffffff82169050919050565b5f6104758261044c565b9050919050565b5f6104868261046b565b9050919050565b6104968161047c565b81146104a0575f5ffd5b50565b5f815190506104b18161048d565b92915050565b5f6104c18261046b565b9050919050565b6104d1816104b7565b81146104db575f5ffd5b50565b5f815190506104ec816104c8565b92915050565b5f5f6040838503121561050857610507610448565b5b5f610515858286016104a3565b9250506020610526858286016104de565b9150509250929050565b6119b28061053d5f395ff3fe608060405234801561000f575f5ffd5b5060043610610114575f3560e01c80636f49712b116100a0578063c93c8f341161006f578063c93c8f34146102c0578063db03e227146102f0578063dbb51d6e146102fa578063e766c8351461032a578063fd5e6dd11461034857610114565b80636f49712b146102385780638da5cb5b14610268578063975532dc14610286578063b6b55f25146102a457610114565b806345bc78ab116100e757806345bc78ab1461017a57806348284789146101aa5780635eb186f8146101c85780635fcbd285146101e65780636386c1c71461020457610114565b806306fdde031461011857806331d7a26214610136578063372500ab146101665780633ccfd60b14610170575b5f5ffd5b610120610378565b60405161012d919061125a565b60405180910390f35b610150600480360381019061014b91906112d8565b610403565b60405161015d919061131b565b60405180910390f35b61016e610418565b005b6101786105b7565b005b610194600480360381019061018f91906112d8565b610868565b6040516101a1919061131b565b60405180910390f35b6101b261087d565b6040516101bf919061131b565b60405180910390f35b6101d0610889565b6040516101dd919061138f565b60405180910390f35b6101ee6108ae565b6040516101fb91906113c8565b60405180910390f35b61021e600480360381019061021991906112d8565b6108d3565b60405161022f9594939291906113fb565b60405180910390f35b610252600480360381019061024d91906112d8565b610a39565b60405161025f919061144c565b60405180910390f35b610270610a56565b60405161027d9190611474565b60405180910390f35b61028e610a7b565b60405161029b919061131b565b60405180910390f35b6102be60048036038101906102b991906114b7565b610a87565b005b6102da60048036038101906102d591906112d8565b610e0d565b6040516102e7919061144c565b60405180910390f35b6102f8610e2a565b005b610314600480360381019061030f91906112d8565b610fa0565b604051610321919061131b565b60405180910390f35b610332610fb5565b60405161033f919061131b565b60405180910390f35b610362600480360381019061035d91906114b7565b610fbb565b60405161036f9190611474565b60405180910390f35b5f80546103849061150f565b80601f01602080910402602001604051908101604052809291908181526020018280546103b09061150f565b80156103fb5780601f106103d2576101008083540402835291602001916103fb565b820191905f5260205f20905b8154815290600101906020018083116103de57829003601f168201915b505050505081565b6008602052805f5260405f205f915090505481565b5f60085f3373ffffffffffffffffffffffffffffffffffffffff1673ffffffffffffffffffffffffffffffffffffffff1681526020019081526020015f205490505f811161049b576040517f08c379a000000000000000000000000000000000000000000000000000000000815260040161049290611589565b60405180910390fd5b5f60085f3373ffffffffffffffffffffffffffffffffffffffff1673ffffffffffffffffffffffffffffffffffffffff1681526020019081526020015f208190555060025f9054906101000a900473ffffffffffffffffffffffffffffffffffffffff1673ffffffffffffffffffffffffffffffffffffffff166340c10f1933836040518363ffffffff1660e01b81526004016105399291906115a7565b5f604051808303815f87803b158015610550575f5ffd5b505af1158015610562573d5f5f3e3d5ffd5b505050503373ffffffffffffffffffffffffffffffffffffffff167ffc30cddea38e2bf4d6ea7d3f9ed3b6ad7f176419f4963bd81318067a4aee73fe826040516105ac919061131b565b60405180910390a250565b600a5f3373ffffffffffffffffffffffffffffffffffffffff1673ffffffffffffffffffffffffffffffffffffffff1681526020019081526020015f205f9054906101000a900460ff16610640576040517f08c379a000000000000000000000000000000000000000000000000000000000815260040161063790611618565b60405180910390fd5b5f60065f3373ffffffffffffffffffffffffffffffffffffffff1673ffffffffffffffffffffffffffffffffffffffff1681526020019081526020015f205490505f81116106c3576040517f08c379a00000000000000000000000000000000000000000000000000000000081526004016106ba90611680565b60405180910390fd5b6106cc33610ff6565b5f60065f3373ffffffffffffffffffffffffffffffffffffffff1673ffffffffffffffffffffffffffffffffffffffff1681526020019081526020015f20819055508060045f82825461071f91906116cb565b925050819055505f600a5f3373ffffffffffffffffffffffffffffffffffffffff1673ffffffffffffffffffffffffffffffffffffffff1681526020019081526020015f205f6101000a81548160ff02191690831515021790555060035f9054906101000a900473ffffffffffffffffffffffffffffffffffffffff1673ffffffffffffffffffffffffffffffffffffffff1663a9059cbb33836040518363ffffffff1660e01b81526004016107d69291906115a7565b6020604051808303815f875af11580156107f2573d5f5f3e3d5ffd5b505050506040513d601f19601f820116820180604052508101906108169190611728565b503373ffffffffffffffffffffffffffffffffffffffff167f884edad9ce6fa2440d8a54cc123490eb96d2768479d49ff9c7366125a94243648260405161085d919061131b565b60405180910390a250565b6006602052805f5260405f205f915090505481565b5f600580549050905090565b60025f9054906101000a900473ffffffffffffffffffffffffffffffffffffffff1681565b60035f9054906101000a900473ffffffffffffffffffffffffffffffffffffffff1681565b5f5f5f5f5f60065f8773ffffffffffffffffffffffffffffffffffffffff1673ffffffffffffffffffffffffffffffffffffffff1681526020019081526020015f205460085f8873ffffffffffffffffffffffffffffffffffffffff1673ffffffffffffffffffffffffffffffffffffffff1681526020019081526020015f205460095f8973ffffffffffffffffffffffffffffffffffffffff1673ffffffffffffffffffffffffffffffffffffffff1681526020019081526020015f205f9054906101000a900460ff16600a5f8a73ffffffffffffffffffffffffffffffffffffffff1673ffffffffffffffffffffffffffffffffffffffff1681526020019081526020015f205f9054906101000a900460ff1660075f8b73ffffffffffffffffffffffffffffffffffffffff1673ffffffffffffffffffffffffffffffffffffffff1681526020019081526020015f20549450945094509450945091939590929450565b600a602052805f5260405f205f915054906101000a900460ff1681565b60015f9054906101000a900473ffffffffffffffffffffffffffffffffffffffff1681565b670de0b6b3a764000081565b5f8111610ac9576040517f08c379a0000000000000000000000000000000000000000000000000000000008152600401610ac09061179d565b60405180910390fd5b60035f9054906101000a900473ffffffffffffffffffffffffffffffffffffffff1673ffffffffffffffffffffffffffffffffffffffff166323b872dd3330846040518463ffffffff1660e01b8152600401610b27939291906117bb565b6020604051808303815f875af1158015610b43573d5f5f3e3d5ffd5b505050506040513d601f19601f82011682018060405250810190610b679190611728565b508060065f3373ffffffffffffffffffffffffffffffffffffffff1673ffffffffffffffffffffffffffffffffffffffff1681526020019081526020015f205f828254610bb491906117f0565b925050819055508060045f828254610bcc91906117f0565b9250508190555060095f3373ffffffffffffffffffffffffffffffffffffffff1673ffffffffffffffffffffffffffffffffffffffff1681526020019081526020015f205f9054906101000a900460ff16610cd757600533908060018154018082558091505060019003905f5260205f20015f9091909190916101000a81548173ffffffffffffffffffffffffffffffffffffffff021916908373ffffffffffffffffffffffffffffffffffffffff160217905550600160095f3373ffffffffffffffffffffffffffffffffffffffff1673ffffffffffffffffffffffffffffffffffffffff1681526020019081526020015f205f6101000a81548160ff0219169083151502179055505b6001600a5f3373ffffffffffffffffffffffffffffffffffffffff1673ffffffffffffffffffffffffffffffffffffffff1681526020019081526020015f205f6101000a81548160ff0219169083151502179055505f60075f3373ffffffffffffffffffffffffffffffffffffffff1673ffffffffffffffffffffffffffffffffffffffff1681526020019081526020015f205403610db3574360075f3373ffffffffffffffffffffffffffffffffffffffff1673ffffffffffffffffffffffffffffffffffffffff1681526020019081526020015f20819055505b610dbc33610ff6565b3373ffffffffffffffffffffffffffffffffffffffff167fe1fffcc4923d04b559f4d29a8bfc6cda04eb5b0d3c460751c2402c5c5cc9109c82604051610e02919061131b565b60405180910390a250565b6009602052805f5260405f205f915054906101000a900460ff1681565b60015f9054906101000a900473ffffffffffffffffffffffffffffffffffffffff1673ffffffffffffffffffffffffffffffffffffffff163373ffffffffffffffffffffffffffffffffffffffff1614610eb9576040517f08c379a0000000000000000000000000000000000000000000000000000000008152600401610eb090611893565b60405180910390fd5b5f5f90505b600580549050811015610f71575f60058281548110610ee057610edf6118b1565b5b905f5260205f20015f9054906101000a900473ffffffffffffffffffffffffffffffffffffffff169050600a5f8273ffffffffffffffffffffffffffffffffffffffff1673ffffffffffffffffffffffffffffffffffffffff1681526020019081526020015f205f9054906101000a900460ff1615610f6357610f6281610ff6565b5b508080600101915050610ebe565b507fefea7889cd26c56b4174d211c6b03e98a905c56c27fbd926d308e082727de59d60405160405180910390a1565b6007602052805f5260405f205f915090505481565b60045481565b60058181548110610fca575f80fd5b905f5260205f20015f915054906101000a900473ffffffffffffffffffffffffffffffffffffffff1681565b5f60075f8373ffffffffffffffffffffffffffffffffffffffff1673ffffffffffffffffffffffffffffffffffffffff1681526020019081526020015f20549050804311158061104757505f600454145b1561105257506111e7565b5f814361105f91906116cb565b90505f60065f8573ffffffffffffffffffffffffffffffffffffffff1673ffffffffffffffffffffffffffffffffffffffff1681526020019081526020015f205490505f81036110f3574360075f8673ffffffffffffffffffffffffffffffffffffffff1673ffffffffffffffffffffffffffffffffffffffff1681526020019081526020015f20819055505050506111e7565b5f600454670de0b6b3a76400008361110b91906118de565b611115919061194c565b90505f670de0b6b3a76400008285670de0b6b3a764000061113691906118de565b61114091906118de565b61114a919061194c565b90508060085f8873ffffffffffffffffffffffffffffffffffffffff1673ffffffffffffffffffffffffffffffffffffffff1681526020019081526020015f205f82825461119891906117f0565b925050819055504360075f8873ffffffffffffffffffffffffffffffffffffffff1673ffffffffffffffffffffffffffffffffffffffff1681526020019081526020015f208190555050505050505b50565b5f81519050919050565b5f82825260208201905092915050565b8281835e5f83830152505050565b5f601f19601f8301169050919050565b5f61122c826111ea565b61123681856111f4565b9350611246818560208601611204565b61124f81611212565b840191505092915050565b5f6020820190508181035f8301526112728184611222565b905092915050565b5f5ffd5b5f73ffffffffffffffffffffffffffffffffffffffff82169050919050565b5f6112a78261127e565b9050919050565b6112b78161129d565b81146112c1575f5ffd5b50565b5f813590506112d2816112ae565b92915050565b5f602082840312156112ed576112ec61127a565b5b5f6112fa848285016112c4565b91505092915050565b5f819050919050565b61131581611303565b82525050565b5f60208201905061132e5f83018461130c565b92915050565b5f819050919050565b5f61135761135261134d8461127e565b611334565b61127e565b9050919050565b5f6113688261133d565b9050919050565b5f6113798261135e565b9050919050565b6113898161136f565b82525050565b5f6020820190506113a25f830184611380565b92915050565b5f6113b28261135e565b9050919050565b6113c2816113a8565b82525050565b5f6020820190506113db5f8301846113b9565b92915050565b5f8115159050919050565b6113f5816113e1565b82525050565b5f60a08201905061140e5f83018861130c565b61141b602083018761130c565b61142860408301866113ec565b61143560608301856113ec565b611442608083018461130c565b9695505050505050565b5f60208201905061145f5f8301846113ec565b92915050565b61146e8161129d565b82525050565b5f6020820190506114875f830184611465565b92915050565b61149681611303565b81146114a0575f5ffd5b50565b5f813590506114b18161148d565b92915050565b5f602082840312156114cc576114cb61127a565b5b5f6114d9848285016114a3565b91505092915050565b7f4e487b71000000000000000000000000000000000000000000000000000000005f52602260045260245ffd5b5f600282049050600182168061152657607f821691505b602082108103611539576115386114e2565b5b50919050565b7f4e6f2070656e64696e67207265776172647300000000000000000000000000005f82015250565b5f6115736012836111f4565b915061157e8261153f565b602082019050919050565b5f6020820190508181035f8301526115a081611567565b9050919050565b5f6040820190506115ba5f830185611465565b6115c7602083018461130c565b9392505050565b7f55736572206973206e6f74207374616b696e67000000000000000000000000005f82015250565b5f6116026013836111f4565b915061160d826115ce565b602082019050919050565b5f6020820190508181035f83015261162f816115f6565b9050919050565b7f5374616b696e672062616c616e636520697320300000000000000000000000005f82015250565b5f61166a6014836111f4565b915061167582611636565b602082019050919050565b5f6020820190508181035f8301526116978161165e565b9050919050565b7f4e487b71000000000000000000000000000000000000000000000000000000005f52601160045260245ffd5b5f6116d582611303565b91506116e083611303565b92508282039050818111156116f8576116f761169e565b5b92915050565b611707816113e1565b8114611711575f5ffd5b50565b5f81519050611722816116fe565b92915050565b5f6020828403121561173d5761173c61127a565b5b5f61174a84828501611714565b91505092915050565b7f416d6f756e74206d7573742062652067726561746572207468616e20300000005f82015250565b5f611787601d836111f4565b915061179282611753565b602082019050919050565b5f6020820190508181035f8301526117b48161177b565b9050919050565b5f6060820190506117ce5f830186611465565b6117db6020830185611465565b6117e8604083018461130c565b949350505050565b5f6117fa82611303565b915061180583611303565b925082820190508082111561181d5761181c61169e565b5b92915050565b7f4f6e6c79206f776e65722063616e2063616c6c20746869732066756e6374696f5f8201527f6e00000000000000000000000000000000000000000000000000000000000000602082015250565b5f61187d6021836111f4565b915061188882611823565b604082019050919050565b5f6020820190508181035f8301526118aa81611871565b9050919050565b7f4e487b71000000000000000000000000000000000000000000000000000000005f52603260045260245ffd5b5f6118e882611303565b91506118f383611303565b925082820261190181611303565b915082820484148315176119185761191761169e565b5b5092915050565b7f4e487b71000000000000000000000000000000000000000000000000000000005f52601260045260245ffd5b5f61195682611303565b915061196183611303565b9250826119715761197061191f565b5b82820490509291505056fea26469706673582212205ca0f96539a4ea32520bd0d8e381b62ed027d2c78b9ab2d8a77197ec989dcc8f64736f6c634300081e0033",
					"opcodes": "PUSH1 0x80 PUSH1 0x40 MSTORE PUSH1 0x40 MLOAD DUP1 PUSH1 0x40 ADD PUSH1 0x40 MSTORE DUP1 PUSH1 0x17 DUP2 MSTORE PUSH1 0x20 ADD PUSH32 0x50726F706F7274696F6E616C20546F6B656E204661726D000000000000000000 DUP2 MSTORE POP PUSH0 SWAP1 DUP2 PUSH2 0x47 SWAP2 SWAP1 PUSH2 0x379 JUMP JUMPDEST POP CALLVALUE DUP1 ISZERO PUSH2 0x53 JUMPI PUSH0 PUSH0 REVERT JUMPDEST POP PUSH1 0x40 MLOAD PUSH2 0x1EEF CODESIZE SUB DUP1 PUSH2 0x1EEF DUP4 CODECOPY DUP2 DUP2 ADD PUSH1 0x40 MSTORE DUP2 ADD SWAP1 PUSH2 0x75 SWAP2 SWAP1 PUSH2 0x4F2 JUMP JUMPDEST DUP2 PUSH1 0x2 PUSH0 PUSH2 0x100 EXP DUP2 SLOAD DUP2 PUSH20 0xFFFFFFFFFFFFFFFFFFFFFFFFFFFFFFFFFFFFFFFF MUL NOT AND SWAP1 DUP4 PUSH20 0xFFFFFFFFFFFFFFFFFFFFFFFFFFFFFFFFFFFFFFFF AND MUL OR SWAP1 SSTORE POP DUP1 PUSH1 0x3 PUSH0 PUSH2 0x100 EXP DUP2 SLOAD DUP2 PUSH20 0xFFFFFFFFFFFFFFFFFFFFFFFFFFFFFFFFFFFFFFFF MUL NOT AND SWAP1 DUP4 PUSH20 0xFFFFFFFFFFFFFFFFFFFFFFFFFFFFFFFFFFFFFFFF AND MUL OR SWAP1 SSTORE POP CALLER PUSH1 0x1 PUSH0 PUSH2 0x100 EXP DUP2 SLOAD DUP2 PUSH20 0xFFFFFFFFFFFFFFFFFFFFFFFFFFFFFFFFFFFFFFFF MUL NOT AND SWAP1 DUP4 PUSH20 0xFFFFFFFFFFFFFFFFFFFFFFFFFFFFFFFFFFFFFFFF AND MUL OR SWAP1 SSTORE POP POP POP PUSH2 0x530 JUMP JUMPDEST PUSH0 DUP2 MLOAD SWAP1 POP SWAP2 SWAP1 POP JUMP JUMPDEST PUSH32 0x4E487B7100000000000000000000000000000000000000000000000000000000 PUSH0 MSTORE PUSH1 0x41 PUSH1 0x4 MSTORE PUSH1 0x24 PUSH0 REVERT JUMPDEST PUSH32 0x4E487B7100000000000000000000000000000000000000000000000000000000 PUSH0 MSTORE PUSH1 0x22 PUSH1 0x4 MSTORE PUSH1 0x24 PUSH0 REVERT JUMPDEST PUSH0 PUSH1 0x2 DUP3 DIV SWAP1 POP PUSH1 0x1 DUP3 AND DUP1 PUSH2 0x1B7 JUMPI PUSH1 0x7F DUP3 AND SWAP2 POP JUMPDEST PUSH1 0x20 DUP3 LT DUP2 SUB PUSH2 0x1CA JUMPI PUSH2 0x1C9 PUSH2 0x173 JUMP JUMPDEST JUMPDEST POP SWAP2 SWAP1 POP JUMP JUMPDEST PUSH0 DUP2 SWAP1 POP DUP2 PUSH0 MSTORE PUSH1 0x20 PUSH0 KECCAK256 SWAP1 POP SWAP2 SWAP1 POP JUMP JUMPDEST PUSH0 PUSH1 0x20 PUSH1 0x1F DUP4 ADD DIV SWAP1 POP SWAP2 SWAP1 POP JUMP JUMPDEST PUSH0 DUP3 DUP3 SHL SWAP1 POP SWAP3 SWAP2 POP POP JUMP JUMPDEST PUSH0 PUSH1 0x8 DUP4 MUL PUSH2 0x22C PUSH32 0xFFFFFFFFFFFFFFFFFFFFFFFFFFFFFFFFFFFFFFFFFFFFFFFFFFFFFFFFFFFFFFFF DUP3 PUSH2 0x1F1 JUMP JUMPDEST PUSH2 0x236 DUP7 DUP4 PUSH2 0x1F1 JUMP JUMPDEST SWAP6 POP DUP1 NOT DUP5 AND SWAP4 POP DUP1 DUP7 AND DUP5 OR SWAP3 POP POP POP SWAP4 SWAP3 POP POP POP JUMP JUMPDEST PUSH0 DUP2 SWAP1 POP SWAP2 SWAP1 POP JUMP JUMPDEST PUSH0 DUP2 SWAP1 POP SWAP2 SWAP1 POP JUMP JUMPDEST PUSH0 PUSH2 0x27A PUSH2 0x275 PUSH2 0x270 DUP5 PUSH2 0x24E JUMP JUMPDEST PUSH2 0x257 JUMP JUMPDEST PUSH2 0x24E JUMP JUMPDEST SWAP1 POP SWAP2 SWAP1 POP JUMP JUMPDEST PUSH0 DUP2 SWAP1 POP SWAP2 SWAP1 POP JUMP JUMPDEST PUSH2 0x293 DUP4 PUSH2 0x260 JUMP JUMPDEST PUSH2 0x2A7 PUSH2 0x29F DUP3 PUSH2 0x281 JUMP JUMPDEST DUP5 DUP5 SLOAD PUSH2 0x1FD JUMP JUMPDEST DUP3 SSTORE POP POP POP POP JUMP JUMPDEST PUSH0 PUSH0 SWAP1 POP SWAP1 JUMP JUMPDEST PUSH2 0x2BE PUSH2 0x2AF JUMP JUMPDEST PUSH2 0x2C9 DUP2 DUP5 DUP5 PUSH2 0x28A JUMP JUMPDEST POP POP POP JUMP JUMPDEST JUMPDEST DUP2 DUP2 LT ISZERO PUSH2 0x2EC JUMPI PUSH2 0x2E1 PUSH0 DUP3 PUSH2 0x2B6 JUMP JUMPDEST PUSH1 0x1 DUP2 ADD SWAP1 POP PUSH2 0x2CF JUMP JUMPDEST POP POP JUMP JUMPDEST PUSH1 0x1F DUP3 GT ISZERO PUSH2 0x331 JUMPI PUSH2 0x302 DUP2 PUSH2 0x1D0 JUMP JUMPDEST PUSH2 0x30B DUP5 PUSH2 0x1E2 JUMP JUMPDEST DUP2 ADD PUSH1 0x20 DUP6 LT ISZERO PUSH2 0x31A JUMPI DUP2 SWAP1 POP JUMPDEST PUSH2 0x32E PUSH2 0x326 DUP6 PUSH2 0x1E2 JUMP JUMPDEST DUP4 ADD DUP3 PUSH2 0x2CE JUMP JUMPDEST POP POP JUMPDEST POP POP POP JUMP JUMPDEST PUSH0 DUP3 DUP3 SHR SWAP1 POP SWAP3 SWAP2 POP POP JUMP JUMPDEST PUSH0 PUSH2 0x351 PUSH0 NOT DUP5 PUSH1 0x8 MUL PUSH2 0x336 JUMP JUMPDEST NOT DUP1 DUP4 AND SWAP2 POP POP SWAP3 SWAP2 POP POP JUMP JUMPDEST PUSH0 PUSH2 0x369 DUP4 DUP4 PUSH2 0x342 JUMP JUMPDEST SWAP2 POP DUP3 PUSH1 0x2 MUL DUP3 OR SWAP1 POP SWAP3 SWAP2 POP POP JUMP JUMPDEST PUSH2 0x382 DUP3 PUSH2 0x13C JUMP JUMPDEST PUSH8 0xFFFFFFFFFFFFFFFF DUP2 GT ISZERO PUSH2 0x39B JUMPI PUSH2 0x39A PUSH2 0x146 JUMP JUMPDEST JUMPDEST PUSH2 0x3A5 DUP3 SLOAD PUSH2 0x1A0 JUMP JUMPDEST PUSH2 0x3B0 DUP3 DUP3 DUP6 PUSH2 0x2F0 JUMP JUMPDEST PUSH0 PUSH1 0x20 SWAP1 POP PUSH1 0x1F DUP4 GT PUSH1 0x1 DUP2 EQ PUSH2 0x3E1 JUMPI PUSH0 DUP5 ISZERO PUSH2 0x3CF JUMPI DUP3 DUP8 ADD MLOAD SWAP1 POP JUMPDEST PUSH2 0x3D9 DUP6 DUP3 PUSH2 0x35E JUMP JUMPDEST DUP7 SSTORE POP PUSH2 0x440 JUMP JUMPDEST PUSH1 0x1F NOT DUP5 AND PUSH2 0x3EF DUP7 PUSH2 0x1D0 JUMP JUMPDEST PUSH0 JUMPDEST DUP3 DUP2 LT ISZERO PUSH2 0x416 JUMPI DUP5 DUP10 ADD MLOAD DUP3 SSTORE PUSH1 0x1 DUP3 ADD SWAP2 POP PUSH1 0x20 DUP6 ADD SWAP5 POP PUSH1 0x20 DUP2 ADD SWAP1 POP PUSH2 0x3F1 JUMP JUMPDEST DUP7 DUP4 LT ISZERO PUSH2 0x433 JUMPI DUP5 DUP10 ADD MLOAD PUSH2 0x42F PUSH1 0x1F DUP10 AND DUP3 PUSH2 0x342 JUMP JUMPDEST DUP4 SSTORE POP JUMPDEST PUSH1 0x1 PUSH1 0x2 DUP9 MUL ADD DUP9 SSTORE POP POP POP JUMPDEST POP POP POP POP POP POP JUMP JUMPDEST PUSH0 PUSH0 REVERT JUMPDEST PUSH0 PUSH20 0xFFFFFFFFFFFFFFFFFFFFFFFFFFFFFFFFFFFFFFFF DUP3 AND SWAP1 POP SWAP2 SWAP1 POP JUMP JUMPDEST PUSH0 PUSH2 0x475 DUP3 PUSH2 0x44C JUMP JUMPDEST SWAP1 POP SWAP2 SWAP1 POP JUMP JUMPDEST PUSH0 PUSH2 0x486 DUP3 PUSH2 0x46B JUMP JUMPDEST SWAP1 POP SWAP2 SWAP1 POP JUMP JUMPDEST PUSH2 0x496 DUP2 PUSH2 0x47C JUMP JUMPDEST DUP2 EQ PUSH2 0x4A0 JUMPI PUSH0 PUSH0 REVERT JUMPDEST POP JUMP JUMPDEST PUSH0 DUP2 MLOAD SWAP1 POP PUSH2 0x4B1 DUP2 PUSH2 0x48D JUMP JUMPDEST SWAP3 SWAP2 POP POP JUMP JUMPDEST PUSH0 PUSH2 0x4C1 DUP3 PUSH2 0x46B JUMP JUMPDEST SWAP1 POP SWAP2 SWAP1 POP JUMP JUMPDEST PUSH2 0x4D1 DUP2 PUSH2 0x4B7 JUMP JUMPDEST DUP2 EQ PUSH2 0x4DB JUMPI PUSH0 PUSH0 REVERT JUMPDEST POP JUMP JUMPDEST PUSH0 DUP2 MLOAD SWAP1 POP PUSH2 0x4EC DUP2 PUSH2 0x4C8 JUMP JUMPDEST SWAP3 SWAP2 POP POP JUMP JUMPDEST PUSH0 PUSH0 PUSH1 0x40 DUP4 DUP6 SUB SLT ISZERO PUSH2 0x508 JUMPI PUSH2 0x507 PUSH2 0x448 JUMP JUMPDEST JUMPDEST PUSH0 PUSH2 0x515 DUP6 DUP3 DUP7 ADD PUSH2 0x4A3 JUMP JUMPDEST SWAP3 POP POP PUSH1 0x20 PUSH2 0x526 DUP6 DUP3 DUP7 ADD PUSH2 0x4DE JUMP JUMPDEST SWAP2 POP POP SWAP3 POP SWAP3 SWAP1 POP JUMP JUMPDEST PUSH2 0x19B2 DUP1 PUSH2 0x53D PUSH0 CODECOPY PUSH0 RETURN INVALID PUSH1 0x80 PUSH1 0x40 MSTORE CALLVALUE DUP1 ISZERO PUSH2 0xF JUMPI PUSH0 PUSH0 REVERT JUMPDEST POP PUSH1 0x4 CALLDATASIZE LT PUSH2 0x114 JUMPI PUSH0 CALLDATALOAD PUSH1 0xE0 SHR DUP1 PUSH4 0x6F49712B GT PUSH2 0xA0 JUMPI DUP1 PUSH4 0xC93C8F34 GT PUSH2 0x6F JUMPI DUP1 PUSH4 0xC93C8F34 EQ PUSH2 0x2C0 JUMPI DUP1 PUSH4 0xDB03E227 EQ PUSH2 0x2F0 JUMPI DUP1 PUSH4 0xDBB51D6E EQ PUSH2 0x2FA JUMPI DUP1 PUSH4 0xE766C835 EQ PUSH2 0x32A JUMPI DUP1 PUSH4 0xFD5E6DD1 EQ PUSH2 0x348 JUMPI PUSH2 0x114 JUMP JUMPDEST DUP1 PUSH4 0x6F49712B EQ PUSH2 0x238 JUMPI DUP1 PUSH4 0x8DA5CB5B EQ PUSH2 0x268 JUMPI DUP1 PUSH4 0x975532DC EQ PUSH2 0x286 JUMPI DUP1 PUSH4 0xB6B55F25 EQ PUSH2 0x2A4 JUMPI PUSH2 0x114 JUMP JUMPDEST DUP1 PUSH4 0x45BC78AB GT PUSH2 0xE7 JUMPI DUP1 PUSH4 0x45BC78AB EQ PUSH2 0x17A JUMPI DUP1 PUSH4 0x48284789 EQ PUSH2 0x1AA JUMPI DUP1 PUSH4 0x5EB186F8 EQ PUSH2 0x1C8 JUMPI DUP1 PUSH4 0x5FCBD285 EQ PUSH2 0x1E6 JUMPI DUP1 PUSH4 0x6386C1C7 EQ PUSH2 0x204 JUMPI PUSH2 0x114 JUMP JUMPDEST DUP1 PUSH4 0x6FDDE03 EQ PUSH2 0x118 JUMPI DUP1 PUSH4 0x31D7A262 EQ PUSH2 0x136 JUMPI DUP1 PUSH4 0x372500AB EQ PUSH2 0x166 JUMPI DUP1 PUSH4 0x3CCFD60B EQ PUSH2 0x170 JUMPI JUMPDEST PUSH0 PUSH0 REVERT JUMPDEST PUSH2 0x120 PUSH2 0x378 JUMP JUMPDEST PUSH1 0x40 MLOAD PUSH2 0x12D SWAP2 SWAP1 PUSH2 0x125A JUMP JUMPDEST PUSH1 0x40 MLOAD DUP1 SWAP2 SUB SWAP1 RETURN JUMPDEST PUSH2 0x150 PUSH1 0x4 DUP1 CALLDATASIZE SUB DUP2 ADD SWAP1 PUSH2 0x14B SWAP2 SWAP1 PUSH2 0x12D8 JUMP JUMPDEST PUSH2 0x403 JUMP JUMPDEST PUSH1 0x40 MLOAD PUSH2 0x15D SWAP2 SWAP1 PUSH2 0x131B JUMP JUMPDEST PUSH1 0x40 MLOAD DUP1 SWAP2 SUB SWAP1 RETURN JUMPDEST PUSH2 0x16E PUSH2 0x418 JUMP JUMPDEST STOP JUMPDEST PUSH2 0x178 PUSH2 0x5B7 JUMP JUMPDEST STOP JUMPDEST PUSH2 0x194 PUSH1 0x4 DUP1 CALLDATASIZE SUB DUP2 ADD SWAP1 PUSH2 0x18F SWAP2 SWAP1 PUSH2 0x12D8 JUMP JUMPDEST PUSH2 0x868 JUMP JUMPDEST PUSH1 0x40 MLOAD PUSH2 0x1A1 SWAP2 SWAP1 PUSH2 0x131B JUMP JUMPDEST PUSH1 0x40 MLOAD DUP1 SWAP2 SUB SWAP1 RETURN JUMPDEST PUSH2 0x1B2 PUSH2 0x87D JUMP JUMPDEST PUSH1 0x40 MLOAD PUSH2 0x1BF SWAP2 SWAP1 PUSH2 0x131B JUMP JUMPDEST PUSH1 0x40 MLOAD DUP1 SWAP2 SUB SWAP1 RETURN JUMPDEST PUSH2 0x1D0 PUSH2 0x889 JUMP JUMPDEST PUSH1 0x40 MLOAD PUSH2 0x1DD SWAP2 SWAP1 PUSH2 0x138F JUMP JUMPDEST PUSH1 0x40 MLOAD DUP1 SWAP2 SUB SWAP1 RETURN JUMPDEST PUSH2 0x1EE PUSH2 0x8AE JUMP JUMPDEST PUSH1 0x40 MLOAD PUSH2 0x1FB SWAP2 SWAP1 PUSH2 0x13C8 JUMP JUMPDEST PUSH1 0x40 MLOAD DUP1 SWAP2 SUB SWAP1 RETURN JUMPDEST PUSH2 0x21E PUSH1 0x4 DUP1 CALLDATASIZE SUB DUP2 ADD SWAP1 PUSH2 0x219 SWAP2 SWAP1 PUSH2 0x12D8 JUMP JUMPDEST PUSH2 0x8D3 JUMP JUMPDEST PUSH1 0x40 MLOAD PUSH2 0x22F SWAP6 SWAP5 SWAP4 SWAP3 SWAP2 SWAP1 PUSH2 0x13FB JUMP JUMPDEST PUSH1 0x40 MLOAD DUP1 SWAP2 SUB SWAP1 RETURN JUMPDEST PUSH2 0x252 PUSH1 0x4 DUP1 CALLDATASIZE SUB DUP2 ADD SWAP1 PUSH2 0x24D SWAP2 SWAP1 PUSH2 0x12D8 JUMP JUMPDEST PUSH2 0xA39 JUMP JUMPDEST PUSH1 0x40 MLOAD PUSH2 0x25F SWAP2 SWAP1 PUSH2 0x144C JUMP JUMPDEST PUSH1 0x40 MLOAD DUP1 SWAP2 SUB SWAP1 RETURN JUMPDEST PUSH2 0x270 PUSH2 0xA56 JUMP JUMPDEST PUSH1 0x40 MLOAD PUSH2 0x27D SWAP2 SWAP1 PUSH2 0x1474 JUMP JUMPDEST PUSH1 0x40 MLOAD DUP1 SWAP2 SUB SWAP1 RETURN JUMPDEST PUSH2 0x28E PUSH2 0xA7B JUMP JUMPDEST PUSH1 0x40 MLOAD PUSH2 0x29B SWAP2 SWAP1 PUSH2 0x131B JUMP JUMPDEST PUSH1 0x40 MLOAD DUP1 SWAP2 SUB SWAP1 RETURN JUMPDEST PUSH2 0x2BE PUSH1 0x4 DUP1 CALLDATASIZE SUB DUP2 ADD SWAP1 PUSH2 0x2B9 SWAP2 SWAP1 PUSH2 0x14B7 JUMP JUMPDEST PUSH2 0xA87 JUMP JUMPDEST STOP JUMPDEST PUSH2 0x2DA PUSH1 0x4 DUP1 CALLDATASIZE SUB DUP2 ADD SWAP1 PUSH2 0x2D5 SWAP2 SWAP1 PUSH2 0x12D8 JUMP JUMPDEST PUSH2 0xE0D JUMP JUMPDEST PUSH1 0x40 MLOAD PUSH2 0x2E7 SWAP2 SWAP1 PUSH2 0x144C JUMP JUMPDEST PUSH1 0x40 MLOAD DUP1 SWAP2 SUB SWAP1 RETURN JUMPDEST PUSH2 0x2F8 PUSH2 0xE2A JUMP JUMPDEST STOP JUMPDEST PUSH2 0x314 PUSH1 0x4 DUP1 CALLDATASIZE SUB DUP2 ADD SWAP1 PUSH2 0x30F SWAP2 SWAP1 PUSH2 0x12D8 JUMP JUMPDEST PUSH2 0xFA0 JUMP JUMPDEST PUSH1 0x40 MLOAD PUSH2 0x321 SWAP2 SWAP1 PUSH2 0x131B JUMP JUMPDEST PUSH1 0x40 MLOAD DUP1 SWAP2 SUB SWAP1 RETURN JUMPDEST PUSH2 0x332 PUSH2 0xFB5 JUMP JUMPDEST PUSH1 0x40 MLOAD PUSH2 0x33F SWAP2 SWAP1 PUSH2 0x131B JUMP JUMPDEST PUSH1 0x40 MLOAD DUP1 SWAP2 SUB SWAP1 RETURN JUMPDEST PUSH2 0x362 PUSH1 0x4 DUP1 CALLDATASIZE SUB DUP2 ADD SWAP1 PUSH2 0x35D SWAP2 SWAP1 PUSH2 0x14B7 JUMP JUMPDEST PUSH2 0xFBB JUMP JUMPDEST PUSH1 0x40 MLOAD PUSH2 0x36F SWAP2 SWAP1 PUSH2 0x1474 JUMP JUMPDEST PUSH1 0x40 MLOAD DUP1 SWAP2 SUB SWAP1 RETURN JUMPDEST PUSH0 DUP1 SLOAD PUSH2 0x384 SWAP1 PUSH2 0x150F JUMP JUMPDEST DUP1 PUSH1 0x1F ADD PUSH1 0x20 DUP1 SWAP2 DIV MUL PUSH1 0x20 ADD PUSH1 0x40 MLOAD SWAP1 DUP2 ADD PUSH1 0x40 MSTORE DUP1 SWAP3 SWAP2 SWAP1 DUP2 DUP2 MSTORE PUSH1 0x20 ADD DUP3 DUP1 SLOAD PUSH2 0x3B0 SWAP1 PUSH2 0x150F JUMP JUMPDEST DUP1 ISZERO PUSH2 0x3FB JUMPI DUP1 PUSH1 0x1F LT PUSH2 0x3D2 JUMPI PUSH2 0x100 DUP1 DUP4 SLOAD DIV MUL DUP4 MSTORE SWAP2 PUSH1 0x20 ADD SWAP2 PUSH2 0x3FB JUMP JUMPDEST DUP3 ADD SWAP2 SWAP1 PUSH0 MSTORE PUSH1 0x20 PUSH0 KECCAK256 SWAP1 JUMPDEST DUP2 SLOAD DUP2 MSTORE SWAP1 PUSH1 0x1 ADD SWAP1 PUSH1 0x20 ADD DUP1 DUP4 GT PUSH2 0x3DE JUMPI DUP3 SWAP1 SUB PUSH1 0x1F AND DUP3 ADD SWAP2 JUMPDEST POP POP POP POP POP DUP2 JUMP JUMPDEST PUSH1 0x8 PUSH1 0x20 MSTORE DUP1 PUSH0 MSTORE PUSH1 0x40 PUSH0 KECCAK256 PUSH0 SWAP2 POP SWAP1 POP SLOAD DUP2 JUMP JUMPDEST PUSH0 PUSH1 0x8 PUSH0 CALLER PUSH20 0xFFFFFFFFFFFFFFFFFFFFFFFFFFFFFFFFFFFFFFFF AND PUSH20 0xFFFFFFFFFFFFFFFFFFFFFFFFFFFFFFFFFFFFFFFF AND DUP2 MSTORE PUSH1 0x20 ADD SWAP1 DUP2 MSTORE PUSH1 0x20 ADD PUSH0 KECCAK256 SLOAD SWAP1 POP PUSH0 DUP2 GT PUSH2 0x49B JUMPI PUSH1 0x40 MLOAD PUSH32 0x8C379A000000000000000000000000000000000000000000000000000000000 DUP2 MSTORE PUSH1 0x4 ADD PUSH2 0x492 SWAP1 PUSH2 0x1589 JUMP JUMPDEST PUSH1 0x40 MLOAD DUP1 SWAP2 SUB SWAP1 REVERT JUMPDEST PUSH0 PUSH1 0x8 PUSH0 CALLER PUSH20 0xFFFFFFFFFFFFFFFFFFFFFFFFFFFFFFFFFFFFFFFF AND PUSH20 0xFFFFFFFFFFFFFFFFFFFFFFFFFFFFFFFFFFFFFFFF AND DUP2 MSTORE PUSH1 0x20 ADD SWAP1 DUP2 MSTORE PUSH1 0x20 ADD PUSH0 KECCAK256 DUP2 SWAP1 SSTORE POP PUSH1 0x2 PUSH0 SWAP1 SLOAD SWAP1 PUSH2 0x100 EXP SWAP1 DIV PUSH20 0xFFFFFFFFFFFFFFFFFFFFFFFFFFFFFFFFFFFFFFFF AND PUSH20 0xFFFFFFFFFFFFFFFFFFFFFFFFFFFFFFFFFFFFFFFF AND PUSH4 0x40C10F19 CALLER DUP4 PUSH1 0x40 MLOAD DUP4 PUSH4 0xFFFFFFFF AND PUSH1 0xE0 SHL DUP2 MSTORE PUSH1 0x4 ADD PUSH2 0x539 SWAP3 SWAP2 SWAP1 PUSH2 0x15A7 JUMP JUMPDEST PUSH0 PUSH1 0x40 MLOAD DUP1 DUP4 SUB DUP2 PUSH0 DUP8 DUP1 EXTCODESIZE ISZERO DUP1 ISZERO PUSH2 0x550 JUMPI PUSH0 PUSH0 REVERT JUMPDEST POP GAS CALL ISZERO DUP1 ISZERO PUSH2 0x562 JUMPI RETURNDATASIZE PUSH0 PUSH0 RETURNDATACOPY RETURNDATASIZE PUSH0 REVERT JUMPDEST POP POP POP POP CALLER PUSH20 0xFFFFFFFFFFFFFFFFFFFFFFFFFFFFFFFFFFFFFFFF AND PUSH32 0xFC30CDDEA38E2BF4D6EA7D3F9ED3B6AD7F176419F4963BD81318067A4AEE73FE DUP3 PUSH1 0x40 MLOAD PUSH2 0x5AC SWAP2 SWAP1 PUSH2 0x131B JUMP JUMPDEST PUSH1 0x40 MLOAD DUP1 SWAP2 SUB SWAP1 LOG2 POP JUMP JUMPDEST PUSH1 0xA PUSH0 CALLER PUSH20 0xFFFFFFFFFFFFFFFFFFFFFFFFFFFFFFFFFFFFFFFF AND PUSH20 0xFFFFFFFFFFFFFFFFFFFFFFFFFFFFFFFFFFFFFFFF AND DUP2 MSTORE PUSH1 0x20 ADD SWAP1 DUP2 MSTORE PUSH1 0x20 ADD PUSH0 KECCAK256 PUSH0 SWAP1 SLOAD SWAP1 PUSH2 0x100 EXP SWAP1 DIV PUSH1 0xFF AND PUSH2 0x640 JUMPI PUSH1 0x40 MLOAD PUSH32 0x8C379A000000000000000000000000000000000000000000000000000000000 DUP2 MSTORE PUSH1 0x4 ADD PUSH2 0x637 SWAP1 PUSH2 0x1618 JUMP JUMPDEST PUSH1 0x40 MLOAD DUP1 SWAP2 SUB SWAP1 REVERT JUMPDEST PUSH0 PUSH1 0x6 PUSH0 CALLER PUSH20 0xFFFFFFFFFFFFFFFFFFFFFFFFFFFFFFFFFFFFFFFF AND PUSH20 0xFFFFFFFFFFFFFFFFFFFFFFFFFFFFFFFFFFFFFFFF AND DUP2 MSTORE PUSH1 0x20 ADD SWAP1 DUP2 MSTORE PUSH1 0x20 ADD PUSH0 KECCAK256 SLOAD SWAP1 POP PUSH0 DUP2 GT PUSH2 0x6C3 JUMPI PUSH1 0x40 MLOAD PUSH32 0x8C379A000000000000000000000000000000000000000000000000000000000 DUP2 MSTORE PUSH1 0x4 ADD PUSH2 0x6BA SWAP1 PUSH2 0x1680 JUMP JUMPDEST PUSH1 0x40 MLOAD DUP1 SWAP2 SUB SWAP1 REVERT JUMPDEST PUSH2 0x6CC CALLER PUSH2 0xFF6 JUMP JUMPDEST PUSH0 PUSH1 0x6 PUSH0 CALLER PUSH20 0xFFFFFFFFFFFFFFFFFFFFFFFFFFFFFFFFFFFFFFFF AND PUSH20 0xFFFFFFFFFFFFFFFFFFFFFFFFFFFFFFFFFFFFFFFF AND DUP2 MSTORE PUSH1 0x20 ADD SWAP1 DUP2 MSTORE PUSH1 0x20 ADD PUSH0 KECCAK256 DUP2 SWAP1 SSTORE POP DUP1 PUSH1 0x4 PUSH0 DUP3 DUP3 SLOAD PUSH2 0x71F SWAP2 SWAP1 PUSH2 0x16CB JUMP JUMPDEST SWAP3 POP POP DUP2 SWAP1 SSTORE POP PUSH0 PUSH1 0xA PUSH0 CALLER PUSH20 0xFFFFFFFFFFFFFFFFFFFFFFFFFFFFFFFFFFFFFFFF AND PUSH20 0xFFFFFFFFFFFFFFFFFFFFFFFFFFFFFFFFFFFFFFFF AND DUP2 MSTORE PUSH1 0x20 ADD SWAP1 DUP2 MSTORE PUSH1 0x20 ADD PUSH0 KECCAK256 PUSH0 PUSH2 0x100 EXP DUP2 SLOAD DUP2 PUSH1 0xFF MUL NOT AND SWAP1 DUP4 ISZERO ISZERO MUL OR SWAP1 SSTORE POP PUSH1 0x3 PUSH0 SWAP1 SLOAD SWAP1 PUSH2 0x100 EXP SWAP1 DIV PUSH20 0xFFFFFFFFFFFFFFFFFFFFFFFFFFFFFFFFFFFFFFFF AND PUSH20 0xFFFFFFFFFFFFFFFFFFFFFFFFFFFFFFFFFFFFFFFF AND PUSH4 0xA9059CBB CALLER DUP4 PUSH1 0x40 MLOAD DUP4 PUSH4 0xFFFFFFFF AND PUSH1 0xE0 SHL DUP2 MSTORE PUSH1 0x4 ADD PUSH2 0x7D6 SWAP3 SWAP2 SWAP1 PUSH2 0x15A7 JUMP JUMPDEST PUSH1 0x20 PUSH1 0x40 MLOAD DUP1 DUP4 SUB DUP2 PUSH0 DUP8 GAS CALL ISZERO DUP1 ISZERO PUSH2 0x7F2 JUMPI RETURNDATASIZE PUSH0 PUSH0 RETURNDATACOPY RETURNDATASIZE PUSH0 REVERT JUMPDEST POP POP POP POP PUSH1 0x40 MLOAD RETURNDATASIZE PUSH1 0x1F NOT PUSH1 0x1F DUP3 ADD AND DUP3 ADD DUP1 PUSH1 0x40 MSTORE POP DUP2 ADD SWAP1 PUSH2 0x816 SWAP2 SWAP1 PUSH2 0x1728 JUMP JUMPDEST POP CALLER PUSH20 0xFFFFFFFFFFFFFFFFFFFFFFFFFFFFFFFFFFFFFFFF AND PUSH32 0x884EDAD9CE6FA2440D8A54CC123490EB96D2768479D49FF9C7366125A9424364 DUP3 PUSH1 0x40 MLOAD PUSH2 0x85D SWAP2 SWAP1 PUSH2 0x131B JUMP JUMPDEST PUSH1 0x40 MLOAD DUP1 SWAP2 SUB SWAP1 LOG2 POP JUMP JUMPDEST PUSH1 0x6 PUSH1 0x20 MSTORE DUP1 PUSH0 MSTORE PUSH1 0x40 PUSH0 KECCAK256 PUSH0 SWAP2 POP SWAP1 POP SLOAD DUP2 JUMP JUMPDEST PUSH0 PUSH1 0x5 DUP1 SLOAD SWAP1 POP SWAP1 POP SWAP1 JUMP JUMPDEST PUSH1 0x2 PUSH0 SWAP1 SLOAD SWAP1 PUSH2 0x100 EXP SWAP1 DIV PUSH20 0xFFFFFFFFFFFFFFFFFFFFFFFFFFFFFFFFFFFFFFFF AND DUP2 JUMP JUMPDEST PUSH1 0x3 PUSH0 SWAP1 SLOAD SWAP1 PUSH2 0x100 EXP SWAP1 DIV PUSH20 0xFFFFFFFFFFFFFFFFFFFFFFFFFFFFFFFFFFFFFFFF AND DUP2 JUMP JUMPDEST PUSH0 PUSH0 PUSH0 PUSH0 PUSH0 PUSH1 0x6 PUSH0 DUP8 PUSH20 0xFFFFFFFFFFFFFFFFFFFFFFFFFFFFFFFFFFFFFFFF AND PUSH20 0xFFFFFFFFFFFFFFFFFFFFFFFFFFFFFFFFFFFFFFFF AND DUP2 MSTORE PUSH1 0x20 ADD SWAP1 DUP2 MSTORE PUSH1 0x20 ADD PUSH0 KECCAK256 SLOAD PUSH1 0x8 PUSH0 DUP9 PUSH20 0xFFFFFFFFFFFFFFFFFFFFFFFFFFFFFFFFFFFFFFFF AND PUSH20 0xFFFFFFFFFFFFFFFFFFFFFFFFFFFFFFFFFFFFFFFF AND DUP2 MSTORE PUSH1 0x20 ADD SWAP1 DUP2 MSTORE PUSH1 0x20 ADD PUSH0 KECCAK256 SLOAD PUSH1 0x9 PUSH0 DUP10 PUSH20 0xFFFFFFFFFFFFFFFFFFFFFFFFFFFFFFFFFFFFFFFF AND PUSH20 0xFFFFFFFFFFFFFFFFFFFFFFFFFFFFFFFFFFFFFFFF AND DUP2 MSTORE PUSH1 0x20 ADD SWAP1 DUP2 MSTORE PUSH1 0x20 ADD PUSH0 KECCAK256 PUSH0 SWAP1 SLOAD SWAP1 PUSH2 0x100 EXP SWAP1 DIV PUSH1 0xFF AND PUSH1 0xA PUSH0 DUP11 PUSH20 0xFFFFFFFFFFFFFFFFFFFFFFFFFFFFFFFFFFFFFFFF AND PUSH20 0xFFFFFFFFFFFFFFFFFFFFFFFFFFFFFFFFFFFFFFFF AND DUP2 MSTORE PUSH1 0x20 ADD SWAP1 DUP2 MSTORE PUSH1 0x20 ADD PUSH0 KECCAK256 PUSH0 SWAP1 SLOAD SWAP1 PUSH2 0x100 EXP SWAP1 DIV PUSH1 0xFF AND PUSH1 0x7 PUSH0 DUP12 PUSH20 0xFFFFFFFFFFFFFFFFFFFFFFFFFFFFFFFFFFFFFFFF AND PUSH20 0xFFFFFFFFFFFFFFFFFFFFFFFFFFFFFFFFFFFFFFFF AND DUP2 MSTORE PUSH1 0x20 ADD SWAP1 DUP2 MSTORE PUSH1 0x20 ADD PUSH0 KECCAK256 SLOAD SWAP5 POP SWAP5 POP SWAP5 POP SWAP5 POP SWAP5 POP SWAP2 SWAP4 SWAP6 SWAP1 SWAP3 SWAP5 POP JUMP JUMPDEST PUSH1 0xA PUSH1 0x20 MSTORE DUP1 PUSH0 MSTORE PUSH1 0x40 PUSH0 KECCAK256 PUSH0 SWAP2 POP SLOAD SWAP1 PUSH2 0x100 EXP SWAP1 DIV PUSH1 0xFF AND DUP2 JUMP JUMPDEST PUSH1 0x1 PUSH0 SWAP1 SLOAD SWAP1 PUSH2 0x100 EXP SWAP1 DIV PUSH20 0xFFFFFFFFFFFFFFFFFFFFFFFFFFFFFFFFFFFFFFFF AND DUP2 JUMP JUMPDEST PUSH8 0xDE0B6B3A7640000 DUP2 JUMP JUMPDEST PUSH0 DUP2 GT PUSH2 0xAC9 JUMPI PUSH1 0x40 MLOAD PUSH32 0x8C379A000000000000000000000000000000000000000000000000000000000 DUP2 MSTORE PUSH1 0x4 ADD PUSH2 0xAC0 SWAP1 PUSH2 0x179D JUMP JUMPDEST PUSH1 0x40 MLOAD DUP1 SWAP2 SUB SWAP1 REVERT JUMPDEST PUSH1 0x3 PUSH0 SWAP1 SLOAD SWAP1 PUSH2 0x100 EXP SWAP1 DIV PUSH20 0xFFFFFFFFFFFFFFFFFFFFFFFFFFFFFFFFFFFFFFFF AND PUSH20 0xFFFFFFFFFFFFFFFFFFFFFFFFFFFFFFFFFFFFFFFF AND PUSH4 0x23B872DD CALLER ADDRESS DUP5 PUSH1 0x40 MLOAD DUP5 PUSH4 0xFFFFFFFF AND PUSH1 0xE0 SHL DUP2 MSTORE PUSH1 0x4 ADD PUSH2 0xB27 SWAP4 SWAP3 SWAP2 SWAP1 PUSH2 0x17BB JUMP JUMPDEST PUSH1 0x20 PUSH1 0x40 MLOAD DUP1 DUP4 SUB DUP2 PUSH0 DUP8 GAS CALL ISZERO DUP1 ISZERO PUSH2 0xB43 JUMPI RETURNDATASIZE PUSH0 PUSH0 RETURNDATACOPY RETURNDATASIZE PUSH0 REVERT JUMPDEST POP POP POP POP PUSH1 0x40 MLOAD RETURNDATASIZE PUSH1 0x1F NOT PUSH1 0x1F DUP3 ADD AND DUP3 ADD DUP1 PUSH1 0x40 MSTORE POP DUP2 ADD SWAP1 PUSH2 0xB67 SWAP2 SWAP1 PUSH2 0x1728 JUMP JUMPDEST POP DUP1 PUSH1 0x6 PUSH0 CALLER PUSH20 0xFFFFFFFFFFFFFFFFFFFFFFFFFFFFFFFFFFFFFFFF AND PUSH20 0xFFFFFFFFFFFFFFFFFFFFFFFFFFFFFFFFFFFFFFFF AND DUP2 MSTORE PUSH1 0x20 ADD SWAP1 DUP2 MSTORE PUSH1 0x20 ADD PUSH0 KECCAK256 PUSH0 DUP3 DUP3 SLOAD PUSH2 0xBB4 SWAP2 SWAP1 PUSH2 0x17F0 JUMP JUMPDEST SWAP3 POP POP DUP2 SWAP1 SSTORE POP DUP1 PUSH1 0x4 PUSH0 DUP3 DUP3 SLOAD PUSH2 0xBCC SWAP2 SWAP1 PUSH2 0x17F0 JUMP JUMPDEST SWAP3 POP POP DUP2 SWAP1 SSTORE POP PUSH1 0x9 PUSH0 CALLER PUSH20 0xFFFFFFFFFFFFFFFFFFFFFFFFFFFFFFFFFFFFFFFF AND PUSH20 0xFFFFFFFFFFFFFFFFFFFFFFFFFFFFFFFFFFFFFFFF AND DUP2 MSTORE PUSH1 0x20 ADD SWAP1 DUP2 MSTORE PUSH1 0x20 ADD PUSH0 KECCAK256 PUSH0 SWAP1 SLOAD SWAP1 PUSH2 0x100 EXP SWAP1 DIV PUSH1 0xFF AND PUSH2 0xCD7 JUMPI PUSH1 0x5 CALLER SWAP1 DUP1 PUSH1 0x1 DUP2 SLOAD ADD DUP1 DUP3 SSTORE DUP1 SWAP2 POP POP PUSH1 0x1 SWAP1 SUB SWAP1 PUSH0 MSTORE PUSH1 0x20 PUSH0 KECCAK256 ADD PUSH0 SWAP1 SWAP2 SWAP1 SWAP2 SWAP1 SWAP2 PUSH2 0x100 EXP DUP2 SLOAD DUP2 PUSH20 0xFFFFFFFFFFFFFFFFFFFFFFFFFFFFFFFFFFFFFFFF MUL NOT AND SWAP1 DUP4 PUSH20 0xFFFFFFFFFFFFFFFFFFFFFFFFFFFFFFFFFFFFFFFF AND MUL OR SWAP1 SSTORE POP PUSH1 0x1 PUSH1 0x9 PUSH0 CALLER PUSH20 0xFFFFFFFFFFFFFFFFFFFFFFFFFFFFFFFFFFFFFFFF AND PUSH20 0xFFFFFFFFFFFFFFFFFFFFFFFFFFFFFFFFFFFFFFFF AND DUP2 MSTORE PUSH1 0x20 ADD SWAP1 DUP2 MSTORE PUSH1 0x20 ADD PUSH0 KECCAK256 PUSH0 PUSH2 0x100 EXP DUP2 SLOAD DUP2 PUSH1 0xFF MUL NOT AND SWAP1 DUP4 ISZERO ISZERO MUL OR SWAP1 SSTORE POP JUMPDEST PUSH1 0x1 PUSH1 0xA PUSH0 CALLER PUSH20 0xFFFFFFFFFFFFFFFFFFFFFFFFFFFFFFFFFFFFFFFF AND PUSH20 0xFFFFFFFFFFFFFFFFFFFFFFFFFFFFFFFFFFFFFFFF AND DUP2 MSTORE PUSH1 0x20 ADD SWAP1 DUP2 MSTORE PUSH1 0x20 ADD PUSH0 KECCAK256 PUSH0 PUSH2 0x100 EXP DUP2 SLOAD DUP2 PUSH1 0xFF MUL NOT AND SWAP1 DUP4 ISZERO ISZERO MUL OR SWAP1 SSTORE POP PUSH0 PUSH1 0x7 PUSH0 CALLER PUSH20 0xFFFFFFFFFFFFFFFFFFFFFFFFFFFFFFFFFFFFFFFF AND PUSH20 0xFFFFFFFFFFFFFFFFFFFFFFFFFFFFFFFFFFFFFFFF AND DUP2 MSTORE PUSH1 0x20 ADD SWAP1 DUP2 MSTORE PUSH1 0x20 ADD PUSH0 KECCAK256 SLOAD SUB PUSH2 0xDB3 JUMPI NUMBER PUSH1 0x7 PUSH0 CALLER PUSH20 0xFFFFFFFFFFFFFFFFFFFFFFFFFFFFFFFFFFFFFFFF AND PUSH20 0xFFFFFFFFFFFFFFFFFFFFFFFFFFFFFFFFFFFFFFFF AND DUP2 MSTORE PUSH1 0x20 ADD SWAP1 DUP2 MSTORE PUSH1 0x20 ADD PUSH0 KECCAK256 DUP2 SWAP1 SSTORE POP JUMPDEST PUSH2 0xDBC CALLER PUSH2 0xFF6 JUMP JUMPDEST CALLER PUSH20 0xFFFFFFFFFFFFFFFFFFFFFFFFFFFFFFFFFFFFFFFF AND PUSH32 0xE1FFFCC4923D04B559F4D29A8BFC6CDA04EB5B0D3C460751C2402C5C5CC9109C DUP3 PUSH1 0x40 MLOAD PUSH2 0xE02 SWAP2 SWAP1 PUSH2 0x131B JUMP JUMPDEST PUSH1 0x40 MLOAD DUP1 SWAP2 SUB SWAP1 LOG2 POP JUMP JUMPDEST PUSH1 0x9 PUSH1 0x20 MSTORE DUP1 PUSH0 MSTORE PUSH1 0x40 PUSH0 KECCAK256 PUSH0 SWAP2 POP SLOAD SWAP1 PUSH2 0x100 EXP SWAP1 DIV PUSH1 0xFF AND DUP2 JUMP JUMPDEST PUSH1 0x1 PUSH0 SWAP1 SLOAD SWAP1 PUSH2 0x100 EXP SWAP1 DIV PUSH20 0xFFFFFFFFFFFFFFFFFFFFFFFFFFFFFFFFFFFFFFFF AND PUSH20 0xFFFFFFFFFFFFFFFFFFFFFFFFFFFFFFFFFFFFFFFF AND CALLER PUSH20 0xFFFFFFFFFFFFFFFFFFFFFFFFFFFFFFFFFFFFFFFF AND EQ PUSH2 0xEB9 JUMPI PUSH1 0x40 MLOAD PUSH32 0x8C379A000000000000000000000000000000000000000000000000000000000 DUP2 MSTORE PUSH1 0x4 ADD PUSH2 0xEB0 SWAP1 PUSH2 0x1893 JUMP JUMPDEST PUSH1 0x40 MLOAD DUP1 SWAP2 SUB SWAP1 REVERT JUMPDEST PUSH0 PUSH0 SWAP1 POP JUMPDEST PUSH1 0x5 DUP1 SLOAD SWAP1 POP DUP2 LT ISZERO PUSH2 0xF71 JUMPI PUSH0 PUSH1 0x5 DUP3 DUP2 SLOAD DUP2 LT PUSH2 0xEE0 JUMPI PUSH2 0xEDF PUSH2 0x18B1 JUMP JUMPDEST JUMPDEST SWAP1 PUSH0 MSTORE PUSH1 0x20 PUSH0 KECCAK256 ADD PUSH0 SWAP1 SLOAD SWAP1 PUSH2 0x100 EXP SWAP1 DIV PUSH20 0xFFFFFFFFFFFFFFFFFFFFFFFFFFFFFFFFFFFFFFFF AND SWAP1 POP PUSH1 0xA PUSH0 DUP3 PUSH20 0xFFFFFFFFFFFFFFFFFFFFFFFFFFFFFFFFFFFFFFFF AND PUSH20 0xFFFFFFFFFFFFFFFFFFFFFFFFFFFFFFFFFFFFFFFF AND DUP2 MSTORE PUSH1 0x20 ADD SWAP1 DUP2 MSTORE PUSH1 0x20 ADD PUSH0 KECCAK256 PUSH0 SWAP1 SLOAD SWAP1 PUSH2 0x100 EXP SWAP1 DIV PUSH1 0xFF AND ISZERO PUSH2 0xF63 JUMPI PUSH2 0xF62 DUP2 PUSH2 0xFF6 JUMP JUMPDEST JUMPDEST POP DUP1 DUP1 PUSH1 0x1 ADD SWAP2 POP POP PUSH2 0xEBE JUMP JUMPDEST POP PUSH32 0xEFEA7889CD26C56B4174D211C6B03E98A905C56C27FBD926D308E082727DE59D PUSH1 0x40 MLOAD PUSH1 0x40 MLOAD DUP1 SWAP2 SUB SWAP1 LOG1 JUMP JUMPDEST PUSH1 0x7 PUSH1 0x20 MSTORE DUP1 PUSH0 MSTORE PUSH1 0x40 PUSH0 KECCAK256 PUSH0 SWAP2 POP SWAP1 POP SLOAD DUP2 JUMP JUMPDEST PUSH1 0x4 SLOAD DUP2 JUMP JUMPDEST PUSH1 0x5 DUP2 DUP2 SLOAD DUP2 LT PUSH2 0xFCA JUMPI PUSH0 DUP1 REVERT JUMPDEST SWAP1 PUSH0 MSTORE PUSH1 0x20 PUSH0 KECCAK256 ADD PUSH0 SWAP2 POP SLOAD SWAP1 PUSH2 0x100 EXP SWAP1 DIV PUSH20 0xFFFFFFFFFFFFFFFFFFFFFFFFFFFFFFFFFFFFFFFF AND DUP2 JUMP JUMPDEST PUSH0 PUSH1 0x7 PUSH0 DUP4 PUSH20 0xFFFFFFFFFFFFFFFFFFFFFFFFFFFFFFFFFFFFFFFF AND PUSH20 0xFFFFFFFFFFFFFFFFFFFFFFFFFFFFFFFFFFFFFFFF AND DUP2 MSTORE PUSH1 0x20 ADD SWAP1 DUP2 MSTORE PUSH1 0x20 ADD PUSH0 KECCAK256 SLOAD SWAP1 POP DUP1 NUMBER GT ISZERO DUP1 PUSH2 0x1047 JUMPI POP PUSH0 PUSH1 0x4 SLOAD EQ JUMPDEST ISZERO PUSH2 0x1052 JUMPI POP PUSH2 0x11E7 JUMP JUMPDEST PUSH0 DUP2 NUMBER PUSH2 0x105F SWAP2 SWAP1 PUSH2 0x16CB JUMP JUMPDEST SWAP1 POP PUSH0 PUSH1 0x6 PUSH0 DUP6 PUSH20 0xFFFFFFFFFFFFFFFFFFFFFFFFFFFFFFFFFFFFFFFF AND PUSH20 0xFFFFFFFFFFFFFFFFFFFFFFFFFFFFFFFFFFFFFFFF AND DUP2 MSTORE PUSH1 0x20 ADD SWAP1 DUP2 MSTORE PUSH1 0x20 ADD PUSH0 KECCAK256 SLOAD SWAP1 POP PUSH0 DUP2 SUB PUSH2 0x10F3 JUMPI NUMBER PUSH1 0x7 PUSH0 DUP7 PUSH20 0xFFFFFFFFFFFFFFFFFFFFFFFFFFFFFFFFFFFFFFFF AND PUSH20 0xFFFFFFFFFFFFFFFFFFFFFFFFFFFFFFFFFFFFFFFF AND DUP2 MSTORE PUSH1 0x20 ADD SWAP1 DUP2 MSTORE PUSH1 0x20 ADD PUSH0 KECCAK256 DUP2 SWAP1 SSTORE POP POP POP POP PUSH2 0x11E7 JUMP JUMPDEST PUSH0 PUSH1 0x4 SLOAD PUSH8 0xDE0B6B3A7640000 DUP4 PUSH2 0x110B SWAP2 SWAP1 PUSH2 0x18DE JUMP JUMPDEST PUSH2 0x1115 SWAP2 SWAP1 PUSH2 0x194C JUMP JUMPDEST SWAP1 POP PUSH0 PUSH8 0xDE0B6B3A7640000 DUP3 DUP6 PUSH8 0xDE0B6B3A7640000 PUSH2 0x1136 SWAP2 SWAP1 PUSH2 0x18DE JUMP JUMPDEST PUSH2 0x1140 SWAP2 SWAP1 PUSH2 0x18DE JUMP JUMPDEST PUSH2 0x114A SWAP2 SWAP1 PUSH2 0x194C JUMP JUMPDEST SWAP1 POP DUP1 PUSH1 0x8 PUSH0 DUP9 PUSH20 0xFFFFFFFFFFFFFFFFFFFFFFFFFFFFFFFFFFFFFFFF AND PUSH20 0xFFFFFFFFFFFFFFFFFFFFFFFFFFFFFFFFFFFFFFFF AND DUP2 MSTORE PUSH1 0x20 ADD SWAP1 DUP2 MSTORE PUSH1 0x20 ADD PUSH0 KECCAK256 PUSH0 DUP3 DUP3 SLOAD PUSH2 0x1198 SWAP2 SWAP1 PUSH2 0x17F0 JUMP JUMPDEST SWAP3 POP POP DUP2 SWAP1 SSTORE POP NUMBER PUSH1 0x7 PUSH0 DUP9 PUSH20 0xFFFFFFFFFFFFFFFFFFFFFFFFFFFFFFFFFFFFFFFF AND PUSH20 0xFFFFFFFFFFFFFFFFFFFFFFFFFFFFFFFFFFFFFFFF AND DUP2 MSTORE PUSH1 0x20 ADD SWAP1 DUP2 MSTORE PUSH1 0x20 ADD PUSH0 KECCAK256 DUP2 SWAP1 SSTORE POP POP POP POP POP POP JUMPDEST POP JUMP JUMPDEST PUSH0 DUP2 MLOAD SWAP1 POP SWAP2 SWAP1 POP JUMP JUMPDEST PUSH0 DUP3 DUP3 MSTORE PUSH1 0x20 DUP3 ADD SWAP1 POP SWAP3 SWAP2 POP POP JUMP JUMPDEST DUP3 DUP2 DUP4 MCOPY PUSH0 DUP4 DUP4 ADD MSTORE POP POP POP JUMP JUMPDEST PUSH0 PUSH1 0x1F NOT PUSH1 0x1F DUP4 ADD AND SWAP1 POP SWAP2 SWAP1 POP JUMP JUMPDEST PUSH0 PUSH2 0x122C DUP3 PUSH2 0x11EA JUMP JUMPDEST PUSH2 0x1236 DUP2 DUP6 PUSH2 0x11F4 JUMP JUMPDEST SWAP4 POP PUSH2 0x1246 DUP2 DUP6 PUSH1 0x20 DUP7 ADD PUSH2 0x1204 JUMP JUMPDEST PUSH2 0x124F DUP2 PUSH2 0x1212 JUMP JUMPDEST DUP5 ADD SWAP2 POP POP SWAP3 SWAP2 POP POP JUMP JUMPDEST PUSH0 PUSH1 0x20 DUP3 ADD SWAP1 POP DUP2 DUP2 SUB PUSH0 DUP4 ADD MSTORE PUSH2 0x1272 DUP2 DUP5 PUSH2 0x1222 JUMP JUMPDEST SWAP1 POP SWAP3 SWAP2 POP POP JUMP JUMPDEST PUSH0 PUSH0 REVERT JUMPDEST PUSH0 PUSH20 0xFFFFFFFFFFFFFFFFFFFFFFFFFFFFFFFFFFFFFFFF DUP3 AND SWAP1 POP SWAP2 SWAP1 POP JUMP JUMPDEST PUSH0 PUSH2 0x12A7 DUP3 PUSH2 0x127E JUMP JUMPDEST SWAP1 POP SWAP2 SWAP1 POP JUMP JUMPDEST PUSH2 0x12B7 DUP2 PUSH2 0x129D JUMP JUMPDEST DUP2 EQ PUSH2 0x12C1 JUMPI PUSH0 PUSH0 REVERT JUMPDEST POP JUMP JUMPDEST PUSH0 DUP2 CALLDATALOAD SWAP1 POP PUSH2 0x12D2 DUP2 PUSH2 0x12AE JUMP JUMPDEST SWAP3 SWAP2 POP POP JUMP JUMPDEST PUSH0 PUSH1 0x20 DUP3 DUP5 SUB SLT ISZERO PUSH2 0x12ED JUMPI PUSH2 0x12EC PUSH2 0x127A JUMP JUMPDEST JUMPDEST PUSH0 PUSH2 0x12FA DUP5 DUP3 DUP6 ADD PUSH2 0x12C4 JUMP JUMPDEST SWAP2 POP POP SWAP3 SWAP2 POP POP JUMP JUMPDEST PUSH0 DUP2 SWAP1 POP SWAP2 SWAP1 POP JUMP JUMPDEST PUSH2 0x1315 DUP2 PUSH2 0x1303 JUMP JUMPDEST DUP3 MSTORE POP POP JUMP JUMPDEST PUSH0 PUSH1 0x20 DUP3 ADD SWAP1 POP PUSH2 0x132E PUSH0 DUP4 ADD DUP5 PUSH2 0x130C JUMP JUMPDEST SWAP3 SWAP2 POP POP JUMP JUMPDEST PUSH0 DUP2 SWAP1 POP SWAP2 SWAP1 POP JUMP JUMPDEST PUSH0 PUSH2 0x1357 PUSH2 0x1352 PUSH2 0x134D DUP5 PUSH2 0x127E JUMP JUMPDEST PUSH2 0x1334 JUMP JUMPDEST PUSH2 0x127E JUMP JUMPDEST SWAP1 POP SWAP2 SWAP1 POP JUMP JUMPDEST PUSH0 PUSH2 0x1368 DUP3 PUSH2 0x133D JUMP JUMPDEST SWAP1 POP SWAP2 SWAP1 POP JUMP JUMPDEST PUSH0 PUSH2 0x1379 DUP3 PUSH2 0x135E JUMP JUMPDEST SWAP1 POP SWAP2 SWAP1 POP JUMP JUMPDEST PUSH2 0x1389 DUP2 PUSH2 0x136F JUMP JUMPDEST DUP3 MSTORE POP POP JUMP JUMPDEST PUSH0 PUSH1 0x20 DUP3 ADD SWAP1 POP PUSH2 0x13A2 PUSH0 DUP4 ADD DUP5 PUSH2 0x1380 JUMP JUMPDEST SWAP3 SWAP2 POP POP JUMP JUMPDEST PUSH0 PUSH2 0x13B2 DUP3 PUSH2 0x135E JUMP JUMPDEST SWAP1 POP SWAP2 SWAP1 POP JUMP JUMPDEST PUSH2 0x13C2 DUP2 PUSH2 0x13A8 JUMP JUMPDEST DUP3 MSTORE POP POP JUMP JUMPDEST PUSH0 PUSH1 0x20 DUP3 ADD SWAP1 POP PUSH2 0x13DB PUSH0 DUP4 ADD DUP5 PUSH2 0x13B9 JUMP JUMPDEST SWAP3 SWAP2 POP POP JUMP JUMPDEST PUSH0 DUP2 ISZERO ISZERO SWAP1 POP SWAP2 SWAP1 POP JUMP JUMPDEST PUSH2 0x13F5 DUP2 PUSH2 0x13E1 JUMP JUMPDEST DUP3 MSTORE POP POP JUMP JUMPDEST PUSH0 PUSH1 0xA0 DUP3 ADD SWAP1 POP PUSH2 0x140E PUSH0 DUP4 ADD DUP9 PUSH2 0x130C JUMP JUMPDEST PUSH2 0x141B PUSH1 0x20 DUP4 ADD DUP8 PUSH2 0x130C JUMP JUMPDEST PUSH2 0x1428 PUSH1 0x40 DUP4 ADD DUP7 PUSH2 0x13EC JUMP JUMPDEST PUSH2 0x1435 PUSH1 0x60 DUP4 ADD DUP6 PUSH2 0x13EC JUMP JUMPDEST PUSH2 0x1442 PUSH1 0x80 DUP4 ADD DUP5 PUSH2 0x130C JUMP JUMPDEST SWAP7 SWAP6 POP POP POP POP POP POP JUMP JUMPDEST PUSH0 PUSH1 0x20 DUP3 ADD SWAP1 POP PUSH2 0x145F PUSH0 DUP4 ADD DUP5 PUSH2 0x13EC JUMP JUMPDEST SWAP3 SWAP2 POP POP JUMP JUMPDEST PUSH2 0x146E DUP2 PUSH2 0x129D JUMP JUMPDEST DUP3 MSTORE POP POP JUMP JUMPDEST PUSH0 PUSH1 0x20 DUP3 ADD SWAP1 POP PUSH2 0x1487 PUSH0 DUP4 ADD DUP5 PUSH2 0x1465 JUMP JUMPDEST SWAP3 SWAP2 POP POP JUMP JUMPDEST PUSH2 0x1496 DUP2 PUSH2 0x1303 JUMP JUMPDEST DUP2 EQ PUSH2 0x14A0 JUMPI PUSH0 PUSH0 REVERT JUMPDEST POP JUMP JUMPDEST PUSH0 DUP2 CALLDATALOAD SWAP1 POP PUSH2 0x14B1 DUP2 PUSH2 0x148D JUMP JUMPDEST SWAP3 SWAP2 POP POP JUMP JUMPDEST PUSH0 PUSH1 0x20 DUP3 DUP5 SUB SLT ISZERO PUSH2 0x14CC JUMPI PUSH2 0x14CB PUSH2 0x127A JUMP JUMPDEST JUMPDEST PUSH0 PUSH2 0x14D9 DUP5 DUP3 DUP6 ADD PUSH2 0x14A3 JUMP JUMPDEST SWAP2 POP POP SWAP3 SWAP2 POP POP JUMP JUMPDEST PUSH32 0x4E487B7100000000000000000000000000000000000000000000000000000000 PUSH0 MSTORE PUSH1 0x22 PUSH1 0x4 MSTORE PUSH1 0x24 PUSH0 REVERT JUMPDEST PUSH0 PUSH1 0x2 DUP3 DIV SWAP1 POP PUSH1 0x1 DUP3 AND DUP1 PUSH2 0x1526 JUMPI PUSH1 0x7F DUP3 AND SWAP2 POP JUMPDEST PUSH1 0x20 DUP3 LT DUP2 SUB PUSH2 0x1539 JUMPI PUSH2 0x1538 PUSH2 0x14E2 JUMP JUMPDEST JUMPDEST POP SWAP2 SWAP1 POP JUMP JUMPDEST PUSH32 0x4E6F2070656E64696E6720726577617264730000000000000000000000000000 PUSH0 DUP3 ADD MSTORE POP JUMP JUMPDEST PUSH0 PUSH2 0x1573 PUSH1 0x12 DUP4 PUSH2 0x11F4 JUMP JUMPDEST SWAP2 POP PUSH2 0x157E DUP3 PUSH2 0x153F JUMP JUMPDEST PUSH1 0x20 DUP3 ADD SWAP1 POP SWAP2 SWAP1 POP JUMP JUMPDEST PUSH0 PUSH1 0x20 DUP3 ADD SWAP1 POP DUP2 DUP2 SUB PUSH0 DUP4 ADD MSTORE PUSH2 0x15A0 DUP2 PUSH2 0x1567 JUMP JUMPDEST SWAP1 POP SWAP2 SWAP1 POP JUMP JUMPDEST PUSH0 PUSH1 0x40 DUP3 ADD SWAP1 POP PUSH2 0x15BA PUSH0 DUP4 ADD DUP6 PUSH2 0x1465 JUMP JUMPDEST PUSH2 0x15C7 PUSH1 0x20 DUP4 ADD DUP5 PUSH2 0x130C JUMP JUMPDEST SWAP4 SWAP3 POP POP POP JUMP JUMPDEST PUSH32 0x55736572206973206E6F74207374616B696E6700000000000000000000000000 PUSH0 DUP3 ADD MSTORE POP JUMP JUMPDEST PUSH0 PUSH2 0x1602 PUSH1 0x13 DUP4 PUSH2 0x11F4 JUMP JUMPDEST SWAP2 POP PUSH2 0x160D DUP3 PUSH2 0x15CE JUMP JUMPDEST PUSH1 0x20 DUP3 ADD SWAP1 POP SWAP2 SWAP1 POP JUMP JUMPDEST PUSH0 PUSH1 0x20 DUP3 ADD SWAP1 POP DUP2 DUP2 SUB PUSH0 DUP4 ADD MSTORE PUSH2 0x162F DUP2 PUSH2 0x15F6 JUMP JUMPDEST SWAP1 POP SWAP2 SWAP1 POP JUMP JUMPDEST PUSH32 0x5374616B696E672062616C616E63652069732030000000000000000000000000 PUSH0 DUP3 ADD MSTORE POP JUMP JUMPDEST PUSH0 PUSH2 0x166A PUSH1 0x14 DUP4 PUSH2 0x11F4 JUMP JUMPDEST SWAP2 POP PUSH2 0x1675 DUP3 PUSH2 0x1636 JUMP JUMPDEST PUSH1 0x20 DUP3 ADD SWAP1 POP SWAP2 SWAP1 POP JUMP JUMPDEST PUSH0 PUSH1 0x20 DUP3 ADD SWAP1 POP DUP2 DUP2 SUB PUSH0 DUP4 ADD MSTORE PUSH2 0x1697 DUP2 PUSH2 0x165E JUMP JUMPDEST SWAP1 POP SWAP2 SWAP1 POP JUMP JUMPDEST PUSH32 0x4E487B7100000000000000000000000000000000000000000000000000000000 PUSH0 MSTORE PUSH1 0x11 PUSH1 0x4 MSTORE PUSH1 0x24 PUSH0 REVERT JUMPDEST PUSH0 PUSH2 0x16D5 DUP3 PUSH2 0x1303 JUMP JUMPDEST SWAP2 POP PUSH2 0x16E0 DUP4 PUSH2 0x1303 JUMP JUMPDEST SWAP3 POP DUP3 DUP3 SUB SWAP1 POP DUP2 DUP2 GT ISZERO PUSH2 0x16F8 JUMPI PUSH2 0x16F7 PUSH2 0x169E JUMP JUMPDEST JUMPDEST SWAP3 SWAP2 POP POP JUMP JUMPDEST PUSH2 0x1707 DUP2 PUSH2 0x13E1 JUMP JUMPDEST DUP2 EQ PUSH2 0x1711 JUMPI PUSH0 PUSH0 REVERT JUMPDEST POP JUMP JUMPDEST PUSH0 DUP2 MLOAD SWAP1 POP PUSH2 0x1722 DUP2 PUSH2 0x16FE JUMP JUMPDEST SWAP3 SWAP2 POP POP JUMP JUMPDEST PUSH0 PUSH1 0x20 DUP3 DUP5 SUB SLT ISZERO PUSH2 0x173D JUMPI PUSH2 0x173C PUSH2 0x127A JUMP JUMPDEST JUMPDEST PUSH0 PUSH2 0x174A DUP5 DUP3 DUP6 ADD PUSH2 0x1714 JUMP JUMPDEST SWAP2 POP POP SWAP3 SWAP2 POP POP JUMP JUMPDEST PUSH32 0x416D6F756E74206D7573742062652067726561746572207468616E2030000000 PUSH0 DUP3 ADD MSTORE POP JUMP JUMPDEST PUSH0 PUSH2 0x1787 PUSH1 0x1D DUP4 PUSH2 0x11F4 JUMP JUMPDEST SWAP2 POP PUSH2 0x1792 DUP3 PUSH2 0x1753 JUMP JUMPDEST PUSH1 0x20 DUP3 ADD SWAP1 POP SWAP2 SWAP1 POP JUMP JUMPDEST PUSH0 PUSH1 0x20 DUP3 ADD SWAP1 POP DUP2 DUP2 SUB PUSH0 DUP4 ADD MSTORE PUSH2 0x17B4 DUP2 PUSH2 0x177B JUMP JUMPDEST SWAP1 POP SWAP2 SWAP1 POP JUMP JUMPDEST PUSH0 PUSH1 0x60 DUP3 ADD SWAP1 POP PUSH2 0x17CE PUSH0 DUP4 ADD DUP7 PUSH2 0x1465 JUMP JUMPDEST PUSH2 0x17DB PUSH1 0x20 DUP4 ADD DUP6 PUSH2 0x1465 JUMP JUMPDEST PUSH2 0x17E8 PUSH1 0x40 DUP4 ADD DUP5 PUSH2 0x130C JUMP JUMPDEST SWAP5 SWAP4 POP POP POP POP JUMP JUMPDEST PUSH0 PUSH2 0x17FA DUP3 PUSH2 0x1303 JUMP JUMPDEST SWAP2 POP PUSH2 0x1805 DUP4 PUSH2 0x1303 JUMP JUMPDEST SWAP3 POP DUP3 DUP3 ADD SWAP1 POP DUP1 DUP3 GT ISZERO PUSH2 0x181D JUMPI PUSH2 0x181C PUSH2 0x169E JUMP JUMPDEST JUMPDEST SWAP3 SWAP2 POP POP JUMP JUMPDEST PUSH32 0x4F6E6C79206F776E65722063616E2063616C6C20746869732066756E6374696F PUSH0 DUP3 ADD MSTORE PUSH32 0x6E00000000000000000000000000000000000000000000000000000000000000 PUSH1 0x20 DUP3 ADD MSTORE POP JUMP JUMPDEST PUSH0 PUSH2 0x187D PUSH1 0x21 DUP4 PUSH2 0x11F4 JUMP JUMPDEST SWAP2 POP PUSH2 0x1888 DUP3 PUSH2 0x1823 JUMP JUMPDEST PUSH1 0x40 DUP3 ADD SWAP1 POP SWAP2 SWAP1 POP JUMP JUMPDEST PUSH0 PUSH1 0x20 DUP3 ADD SWAP1 POP DUP2 DUP2 SUB PUSH0 DUP4 ADD MSTORE PUSH2 0x18AA DUP2 PUSH2 0x1871 JUMP JUMPDEST SWAP1 POP SWAP2 SWAP1 POP JUMP JUMPDEST PUSH32 0x4E487B7100000000000000000000000000000000000000000000000000000000 PUSH0 MSTORE PUSH1 0x32 PUSH1 0x4 MSTORE PUSH1 0x24 PUSH0 REVERT JUMPDEST PUSH0 PUSH2 0x18E8 DUP3 PUSH2 0x1303 JUMP JUMPDEST SWAP2 POP PUSH2 0x18F3 DUP4 PUSH2 0x1303 JUMP JUMPDEST SWAP3 POP DUP3 DUP3 MUL PUSH2 0x1901 DUP2 PUSH2 0x1303 JUMP JUMPDEST SWAP2 POP DUP3 DUP3 DIV DUP5 EQ DUP4 ISZERO OR PUSH2 0x1918 JUMPI PUSH2 0x1917 PUSH2 0x169E JUMP JUMPDEST JUMPDEST POP SWAP3 SWAP2 POP POP JUMP JUMPDEST PUSH32 0x4E487B7100000000000000000000000000000000000000000000000000000000 PUSH0 MSTORE PUSH1 0x12 PUSH1 0x4 MSTORE PUSH1 0x24 PUSH0 REVERT JUMPDEST PUSH0 PUSH2 0x1956 DUP3 PUSH2 0x1303 JUMP JUMPDEST SWAP2 POP PUSH2 0x1961 DUP4 PUSH2 0x1303 JUMP JUMPDEST SWAP3 POP DUP3 PUSH2 0x1971 JUMPI PUSH2 0x1970 PUSH2 0x191F JUMP JUMPDEST JUMPDEST DUP3 DUP3 DIV SWAP1 POP SWAP3 SWAP2 POP POP JUMP INVALID LOG2 PUSH5 0x6970667358 0x22 SLT KECCAK256 TLOAD LOG0 EXTDELEGATECALL PUSH6 0x39A4EA32520B 0xD0 0xD8 CALLF 0x81B6 0x2E 0xD0 0x27 0xD2 0xC7 DUP12 SWAP11 0xB2 0xD8 0xA7 PUSH18 0x97EC989DCC8F64736F6C634300081E003300 "
				},
				"gasEstimates": {
					"creation": {
						"codeDepositCost": "1315600",
						"executionCost": "infinite",
						"totalCost": "infinite"
					},
					"external": {
						"REWARD_PER_BLOCK()": "392",
						"checkpoints(address)": "2868",
						"claimRewards()": "infinite",
						"dappToken()": "infinite",
						"deposit(uint256)": "infinite",
						"distributeRewardsAll()": "infinite",
						"getStakersCount()": "2485",
						"getUserInfo(address)": "infinite",
						"hasStaked(address)": "2855",
						"isStaking(address)": "2856",
						"lpToken()": "infinite",
						"name()": "infinite",
						"owner()": "2553",
						"pendingRewards(address)": "2848",
						"stakers(uint256)": "5054",
						"stakingBalance(address)": "2825",
						"totalStakingBalance()": "2513",
						"withdraw()": "infinite"
					},
					"internal": {
						"distributeRewards(address)": "infinite"
					}
				},
				"methodIdentifiers": {
					"REWARD_PER_BLOCK()": "975532dc",
					"checkpoints(address)": "dbb51d6e",
					"claimRewards()": "372500ab",
					"dappToken()": "5eb186f8",
					"deposit(uint256)": "b6b55f25",
					"distributeRewardsAll()": "db03e227",
					"getStakersCount()": "48284789",
					"getUserInfo(address)": "6386c1c7",
					"hasStaked(address)": "c93c8f34",
					"isStaking(address)": "6f49712b",
					"lpToken()": "5fcbd285",
					"name()": "06fdde03",
					"owner()": "8da5cb5b",
					"pendingRewards(address)": "31d7a262",
					"stakers(uint256)": "fd5e6dd1",
					"stakingBalance(address)": "45bc78ab",
					"totalStakingBalance()": "e766c835",
					"withdraw()": "3ccfd60b"
				}
			},
			"storageLayout": {
				"storage": [
					{
						"astId": 1015,
						"contract": "contracts/TokenFarm.sol:TokenFarm",
						"label": "name",
						"offset": 0,
						"slot": "0",
						"type": "t_string_storage"
					},
					{
						"astId": 1017,
						"contract": "contracts/TokenFarm.sol:TokenFarm",
						"label": "owner",
						"offset": 0,
						"slot": "1",
						"type": "t_address"
					},
					{
						"astId": 1020,
						"contract": "contracts/TokenFarm.sol:TokenFarm",
						"label": "dappToken",
						"offset": 0,
						"slot": "2",
						"type": "t_contract(DAppToken)970"
					},
					{
						"astId": 1023,
						"contract": "contracts/TokenFarm.sol:TokenFarm",
						"label": "lpToken",
						"offset": 0,
						"slot": "3",
						"type": "t_contract(LPToken)1007"
					},
					{
						"astId": 1028,
						"contract": "contracts/TokenFarm.sol:TokenFarm",
						"label": "totalStakingBalance",
						"offset": 0,
						"slot": "4",
						"type": "t_uint256"
					},
					{
						"astId": 1031,
						"contract": "contracts/TokenFarm.sol:TokenFarm",
						"label": "stakers",
						"offset": 0,
						"slot": "5",
						"type": "t_array(t_address)dyn_storage"
					},
					{
						"astId": 1035,
						"contract": "contracts/TokenFarm.sol:TokenFarm",
						"label": "stakingBalance",
						"offset": 0,
						"slot": "6",
						"type": "t_mapping(t_address,t_uint256)"
					},
					{
						"astId": 1039,
						"contract": "contracts/TokenFarm.sol:TokenFarm",
						"label": "checkpoints",
						"offset": 0,
						"slot": "7",
						"type": "t_mapping(t_address,t_uint256)"
					},
					{
						"astId": 1043,
						"contract": "contracts/TokenFarm.sol:TokenFarm",
						"label": "pendingRewards",
						"offset": 0,
						"slot": "8",
						"type": "t_mapping(t_address,t_uint256)"
					},
					{
						"astId": 1047,
						"contract": "contracts/TokenFarm.sol:TokenFarm",
						"label": "hasStaked",
						"offset": 0,
						"slot": "9",
						"type": "t_mapping(t_address,t_bool)"
					},
					{
						"astId": 1051,
						"contract": "contracts/TokenFarm.sol:TokenFarm",
						"label": "isStaking",
						"offset": 0,
						"slot": "10",
						"type": "t_mapping(t_address,t_bool)"
					}
				],
				"types": {
					"t_address": {
						"encoding": "inplace",
						"label": "address",
						"numberOfBytes": "20"
					},
					"t_array(t_address)dyn_storage": {
						"base": "t_address",
						"encoding": "dynamic_array",
						"label": "address[]",
						"numberOfBytes": "32"
					},
					"t_bool": {
						"encoding": "inplace",
						"label": "bool",
						"numberOfBytes": "1"
					},
					"t_contract(DAppToken)970": {
						"encoding": "inplace",
						"label": "contract DAppToken",
						"numberOfBytes": "20"
					},
					"t_contract(LPToken)1007": {
						"encoding": "inplace",
						"label": "contract LPToken",
						"numberOfBytes": "20"
					},
					"t_mapping(t_address,t_bool)": {
						"encoding": "mapping",
						"key": "t_address",
						"label": "mapping(address => bool)",
						"numberOfBytes": "32",
						"value": "t_bool"
					},
					"t_mapping(t_address,t_uint256)": {
						"encoding": "mapping",
						"key": "t_address",
						"label": "mapping(address => uint256)",
						"numberOfBytes": "32",
						"value": "t_uint256"
					},
					"t_string_storage": {
						"encoding": "bytes",
						"label": "string",
						"numberOfBytes": "32"
					},
					"t_uint256": {
						"encoding": "inplace",
						"label": "uint256",
						"numberOfBytes": "32"
					}
				}
			},
			"userdoc": {
				"kind": "user",
				"methods": {
					"claimRewards()": {
						"notice": "Reclama recompensas pendientes."
					},
					"deposit(uint256)": {
						"notice": "Deposita tokens LP para staking."
					},
					"distributeRewardsAll()": {
						"notice": "Distribuye recompensas a todos los usuarios en staking."
					},
					"withdraw()": {
						"notice": "Retira todos los tokens LP en staking."
					}
				},
				"notice": "Una granja de staking donde las recompensas se distribuyen proporcionalmente al total stakeado.",
				"version": 1
			}
		}
	}
}